<0x9158,1.1>
:020000040000FA
:060000008A110A16EA292C
:020006000734BD
:080008008B13FF0003088312B3
:100010000313F1000A08F2000408F4008316031326
:10002000010883120313F300831203130C08F50075
:100030000D08F600831603130C0883120313F5054D
:10004000831603130D0883120313F6058A150A128B
:100050007518BD2B8A110A16F5185F2E8A110A161B
:10006000F51A7B2D8A110A16751A3B2E8A110A166B
:100070008B1E3B280B19922E8B133D2883120313E2
:100080007408840072088A007308831603138100C1
:0E0090008312031371088300FF0E7F0E090018
:02009E0000342C
:0200A00000342A
:0E00A200831203175908013A031D9228831296
:1000B00003133A11831203133C103C1183120313F0
:1000C000B81383160313D11183120313B9168A11BF
:1000D0000A1267268A110A1203197628831203135B
:1000E000B8140130BE008A110A122D2D8312031399
:1000F000FF30CA008A150A129F228A110A1283123F
:100100000313B81C86288A110A122D2D8316031397
:100110002B08831203136111E70061158312031783
:10012000D90AF92A033A031D3429831203136119EA
:10013000A12883120313B8140330BE008A110A12D7
:100140002D2D83120313B81CA8288A110A122D2DF5
:10015000831603132A08031DB52883160313401DB5
:100160000800831603134115B92883160313521F81
:10017000080083120313C11EC128831603135116EE
:10018000C42883160313511283120313411ECC2873
:1001900083160313D116CF2883160313D1128312AB
:1001A0000313400883160313DB0083120313410873
:1001B0000F3983160313DC008A150A129B258A1156
:1001C0000A1283120313430E07398A150A120825EF
:1001D0008A110A12831603132108831203134302A0
:1001E000031C0A29031DFC2883160313200883120D
:1001F00003134202031C0A298316031320088316E3
:100200000313DF008316031321080F39831603132A
:10021000E000172983120313420883160313DF003B
:100220008312031343080F3983160313E000831668
:1002300003135F0883120313DE00831603136008A1
:1002400083120313DF008A150A12D1258A110A12BC
:10025000831603132708831203136111E700611546
:1002600083120317D90AF92A013A031DBB29831205
:100270000313611908008316031351148A110A1617
:10028000C5218A110A1283160313D0148A110A1683
:10029000C5218A110A12831203134408831203131F
:1002A000AD0083120313450883120313AE008A15B1
:1002B0000A125A238A110A12831203133912831263
:1002C00003133A17831603132208831203136110D2
:1002D000E500611483160313D1148A110A16C5218F
:1002E0008A110A12831203170F30DE0083120313E0
:1002F000BA153A1283120317900191018312031366
:10030000B81E8A2983120313B8141B30BE008A1149
:100310000A122D2D83120313BF1F9729BF13BC147C
:100320003F0883120313E110E600E1149E29BC107C
:100330003F08831203136111E70061158312031351
:100340008714831203130915323083120313E1104B
:10035000E600E11483120313E118AA2983120313A0
:10036000871083120313091183120317EB148312EE
:100370000317D90AF92A073A031DE629831203173E
:10038000EB1CE229EB1083160313A41DCD298A115F
:100390000A122D258A110A1208008A110A1209264A
:1003A0008A110A1283120317170896008316031383
:1003B0002308831203136111E700611583120317E9
:1003C000D90A08008A110A12792EF92A013A031D66
:1003D0006B2A831203136119F52983120313B814CE
:1003E0001530BE008A110A122D2D831203133C1CF6
:1003F00008008316031351143C1083120313CB011E
:10040000CC0183120313C11E092A8316031351164C
:100410000C2A83160313511283120313411E142A4C
:1004200083160313D116172A83160313D1128312CE
:100430000313400883160313DB00831203134108E0
:100440000F3983160313DC008A150A129B258A11C3
:100450000A12831603132108831203134302031C99
:10046000492A031D3B2A8316031320088312031312
:100470004202031C492A8316031320088316031320
:10048000DF008316031321080F3983160313E000DE
:10049000562A83120313420883160313DF008312C4
:1004A000031343080F3983160313E0008316031365
:1004B0005F0883120313DE008316031360088312A0
:1004C0000313DF008A150A12D1258A110A1283123A
:1004D0000317D90AF92A033A031DE32A83160313E3
:1004E000D0148A110A16C5218A110A128312031325
:1004F000440883120313AD008312031345088312CB
:100500000313AE008A150A125A238A110A128312A3
:1005100003133912831203133A17831603132208A5
:10052000831203136110E500611483160313D114C1
:100530008A110A16C5218A110A12831203170F3075
:10054000DE0083120313BA153A12831203179001C7
:100550009101831203133A1583120313B81EB82AAC
:1005600083120313B8141B30BE008A110A122D2DFA
:1005700083120313520883120313DB008312031345
:10058000BF1FCB2ABF13BC143F0883120313E11013
:10059000E600E114D22ABC103F0883120313611154
:1005A000E700611583120313871483120313FF30CE
:1005B000EF0083120313B813831203130915831278
:1005C0000317D90AF92A013A031DF92A83120317DE
:1005D000EB1CEF2AEB108A110A122D2D0800831252
:1005E0000313B81FF62A8A110A122D2D8A110A1236
:0405F000792E080058
:0C05F400831603138610831603130611F0
:10060000831203130608F939003886008316031392
:10061000C201C001C1014017C801C901CC01CD010F
:10062000CA01CB0183160313FF30AF00B000B10045
:10063000B200B300B400B501B601B701B8010800BB
:1006400083160313C4004130C3002C2B83160313FD
:10065000C4004030C3002C2B831603134030940099
:100660008312031320309400831203130808F8390F
:1006700000388800831603134308CE018312031346
:100680008C1193008316031314184B2B831603133A
:10069000CE0B422B0800831603134408CE018312AD
:1006A00003138C1193008316031314185C2B831609
:1006B0000313CE0B532B0800831203130808F839D9
:1006C00000388800080083160313411C0800632BC0
:1006D000831603134119080083160313401AE32CF1
:1006E00083160313C01AF52C83160313401B082D21
:1006F00083160313C01C692C831603134208003AA7
:10070000031DAD2B83160313C1180800C20A470846
:10071000CA00831603134A0883160313330203180F
:10072000972B83120313B8146530BE00082D83166F
:1007300003134A08831603133702031CA52B8312E5
:100740000313B8146630BE00082D831603130A3055
:10075000C600C1140130202B682C013A031DDB2B8D
:1007600083160313C1180800C2014708CB00831683
:1007700003134B088316031334020318C52B83128B
:100780000313B8146930BE00082D831603134B08F9
:10079000831603133802031CD32B83120313B814DC
:1007A0006A30BE00082D831603130A30C600C11438
:1007B0000030202B682C033A031DEE2B8316031305
:1007C00041180800C20A7830C5004114831203138F
:1007D0000608F939023886000800682C013A031D22
:1007E0001C2C8316031341180800C20A4708C800CE
:1007F0008316031348088316031331020318062CCB
:1008000083120313B8146330BE00082D831603133C
:100810004808831603133502031C142C8312031398
:10082000B8146430BE00082D831603130530C500CC
:1008300041140130202B682C073A031D502C8316DD
:100840000313411808004708C90083160313490819
:100850008316031332020318332C83120313B814C4
:100860006730BE00082D831603134908831603134F
:100870003602031C412C83120313B8146830BE00E7
:10088000082D831203130608F939003886008316F1
:100890000313C20A0A30C50041140030202B682C13
:1008A000013A031D682C83160313411808008312B4
:1008B00003130608F9390438860083120313381726
:1008C00083160313C2011430C600C114401508007A
:1008D000080083160313C01D9B2C831603134208C4
:1008E000003A031D832C8316031341180800C20A23
:1008F0003C30C600C114831203130608F9390638C8
:10090000860008009A2C013A031D9A2C83160313C3
:10091000C1180800831203130608F939003886004D
:1009200083160313C201C01140140A30C600C1145B
:100930000030202B080083160313401CE22C831682
:1009400003134208003A031DC22C83160313C11877
:100950000800C20A4708CC00831603134C0883160C
:1009600003132F020318BA2C83120313B814613037
:10097000BE00082D831603130A30C600C1140130CF
:10098000202BE12C013A031DE12C83160313C1181F
:100990000800C2014708CD00831603134D088316D3
:1009A000031330020318DA2C83120313B8146230D5
:1009B000BE00082D831603130A30C600C114003090
:1009C000202B08000800831203130608F9390038A9
:1009D000860083160313C0010230C200C0140A301F
:1009E000C5004114C1100030202B831203133813AB
:1009F000831203130608F93900388600831603139F
:100A0000C001C201C0150A30C5004114C110080060
:100A1000831203133813831203130608F9390038BD
:100A2000860083160313C001C20140141430C600AF
:080A3000C11441100030202B1D
:080A380083120317D901DA0152
:100A400083160313511083160313511083160313D7
:100A5000D110831603135111080083120313881356
:100A600000008817831203138710831603132108CD
:100A7000831603132902031C552D031D472D8316CE
:100A800003132008831603132802031C552D831615
:100A90000313200883160313DF00831603132108B2
:100AA0000F3983160313E000622D83160313280801
:100AB00083160313DF008316031329080F398316E7
:100AC0000313E000831603135F0883120313DE0091
:100AD00083160313600883120313DF008A150A12BA
:100AE000D1258A110A1283120317100883120317E3
:100AF00094008312031711088312031795008312C1
:100B00000313391283120313B91283120317DA0184
:100B1000D90183120313BA19912D83160313D1102F
:100B2000922D3A1683160313511083160313D01017
:100B30008A110A16C5218A110A1283120313101092
:100B4000831203130E0883120313AD0083120313E1
:100B50000F0883120313AE00831203176E0883126B
:100B60000313B300831203176F0883120313B40037
:100B70008A150A122521831203134B0883120313CB
:100B8000B300831203134C0883120313B40025210E
:100B9000831203132D0883120313CB008312031354
:100BA0002E0883120313CC008A110A128312031336
:100BB0003C1083120313BA1783120317FF30E900A6
:100BC0008A150A128A238A110A12831603135115F1
:100BD000831203130911831603132A08031DFF2D23
:100BE00083160313C2011430C600C11400308A11E9
:100BF0000A1220238A110A12831603134111831249
:100C00000313BA1C08008A110A1641258A110A1218
:100C1000080083120313871083120313B91283127F
:100C20000317100883120317920083120317110889
:100C300083120317930083120313101083120313FC
:100C40000E0883120313AD00831203130F088312DF
:100C50000313AE00831203176E0883120313B3004D
:100C6000831203176F0883120313B4008A150A1244
:100C70002521831203132D0883120313CB00831243
:100C800003132E0883120313CC008A110A12831255
:100C90000313BA194F2E83160313D110502E3A1690
:100CA00083120313101083160313A41C5A2E8316E9
:100CB00003135110831203133C1583120313BA1C40
:100CC00008008A110A1641258A110A1208008312A7
:100CD00003138313031B83173F3084000008E000D5
:100CE000840A0008E00604084A3A031D702E6008D2
:100CF000080083120313B81E852E83120313B81441
:100D00001B30BE008A110A122D2D83120313BC1C46
:100D1000962E83120313E118952E83120313B81431
:100D20001E30BE008A110A122D2DA22E831203132B
:100D30006119A22E83120313B8141E30BE008A114B
:100D40000A122D2D83160313D31FB12E2D308312BB
:100D500003136110E5006114831203133A1739126B
:100D600008008312031361180800831203133A1F4B
:100D7000BC2E3A13BA17080083120313391AE92E4E
:100D8000831203171F3017020318D12E1708970A72
:100D9000193E8313031B83178400831203134F0828
:100DA0008000831203171F3018020318E22E180860
:100DB000980A393E8313031B83178400831203139D
:100DC00051088000831203170530DB0083120313E0
:100DD000391683120313510847020318F72E8312A2
:100DE0000313B8141730BE008A110A122D2D831276
:100DF0000313460851020318052F83120313B81476
:100E00001830BE008A110A122D2D831203134F08C9
:100E100049020318132F83120313B8141930BE00AC
:100E20008A110A122D2D8312031348084F0203184A
:100E3000212F83120313B8141A30BE008A110A122C
:040E40002D2D08004C
:0C0E440083160313081283120313081214
:100E500083120313B811831203138812000088163B
:100E600083120313B81283120313D70183120313DF
:100E7000B811080083120313B81283120313B819B0
:100E8000452F83120313D700582F831203135706DD
:100E900003190800D706831203138812000088166E
:100EA000283083120313E110E600E114E118562FF5
:100EB00083120313081683120313B8158312031346
:100EC0005708013A031D692F83160313D0135013DB
:100ED000812F033A031D712F83160313D01750136C
:100EE000812F013A031D792F83160313D013501756
:100EF000812F073A031D812F83160313D017501734
:100F0000812F8A110A1651218A110A122830831260
:100F10000313E110E600E114E1188C2F831203178C
:100F2000DF01E001831203170130DF070318E00A35
:100F3000831603132108831203176002031CB82FC2
:100F4000031DAA2F831603132008831203175F02C1
:100F5000031CB82F83160313200883160313DF0026
:100F60008316031321080F3983160313E000C52FDE
:100F7000831203175F0883160313DF00831203171E
:100F800060080F3983160313E000831603135F080C
:100F900083120313DE008316031360088312031306
:100FA000DF008A150A12D1258A110A12831203174B
:100FB0005F08831603132806031D922F831203175D
:100FC0006008831603132906031D922F831203134F
:080FD000E113EC00E117080039
:080FD800831203175A08031DE0
:100FE0000034831203133A180334831203132608C0
:0C0FF0008A150A1208258A110A1207341B
:020FFC000734B8
:020FFE000734B6
:101000008316031305083F38850083160313093040
:101010009F00831203139F019F171F14831603134E
:10102000D801D901DA010800831603135808003AE1
:1010300003191C28D8030800831203131F19080082
:10104000831603135A183228DA1857285A197C289D
:10105000DA19A1285A1AC628DA1AEB28DA01DA16A0
:10106000D901080059194B28D918462883160313AB
:101070009F13831203139F121F129F1183160313D2
:10108000D914831603130130D800080059158312B0
:1010900003131F150800831203131E088312031382
:1010A000D00083160313DA01DA14D90108005919A4
:1010B0007028D9186B28831603139F138312031308
:1010C0009F121F129F1583160313D914831603133F
:1010D0000130D80008005915831203131F150800AA
:1010E000831203131E0883160313C700831603130A
:1010F000DA015A15D901080059199528D9189028EC
:10110000831603139F13831203139F121F169F113D
:1011100083160313D914831603130130D800080073
:101120005915831203131F150800831203131E0899
:1011300083120313CF0083160313DA01DA15D901E2
:1011400008005919BA28D918B528831603139F1314
:10115000831203139F121F169F1583160313D914AE
:10116000831603130130D8000800591583120313A6
:101170001F150800831203131E0883120313D200E5
:1011800083160313DA015A16D90108005919DF280A
:10119000D918DA28831603139F13831203139F169B
:1011A0001F129F1183160313D914831603130130E2
:1011B000D80008005915831203131F150800831265
:1011C00003131E0883120313D30083160313DA01DB
:1011D000DA16D901080059190429D918FF288316ED
:1011E00003139F13831203139F161F129F15831659
:1011F0000313D914831603130130D80008005915BE
:10120000831203131F150800831203131E08831291
:101210000313D10083160313DA015A14D90108000D
:021220000800C4
:0E122200831203133308AD02031CAE0334081D
:10123000AE02031CAF030800831203133308AD0290
:10124000031CAE033408AE02080083120313AF017F
:101250003308AD070318AE0A3408AE070318AF0A07
:10126000080083120313AE01AD0C0318AE07AE0CD9
:10127000AD0C0318AE07AE0CAD0C0318AE07AE0CE8
:10128000AD0C0318AE07AE0CAD0C0318AE07AE0CD8
:10129000AD0C0318AE07AE0CAD0C0318AE07AE0CC8
:1012A000AD0C0318AE07AE0CAD0C0800831203138F
:1012B000AF01B5001030B700350803102D1C6129AF
:1012C000AF07AF0CAE0CAD0C0310B70B5E290800D6
:1012D00083120313B001B5001830B70035080310AE
:1012E0002D1C7329B007B00CAF0CAE0CAD0C031065
:1012F000B70B7029080083120313B300AF01083045
:10130000B7002E0DAF0D3308AF0203188929AF07C0
:101310000310AE0DB70B8129B5010830B7002D0DB4
:10132000AF0DB50D3308AF02B6010301031C360F34
:10133000B5020318A3293308AF07B6010301031848
:10134000360FB5070310AD0DB70B8F2908008312B8
:101350000313B300B0011830B7002D0DAE0DAF0D63
:10136000B00DAD0D3308B00203182D142D1CB007BD
:10137000B70BAD29080083120313B001B101183077
:10138000B7002D0DAE0DAF0DB00DB10DAD0D330885
:10139000B0023408031C340FB10203182D142D18A9
:1013A000D429B1073308B007B70BC129080083124D
:1013B00003132030B700B201B1010310AD0DAE0D23
:1013C000AF0DB00DB10DB20D0318EE293408320285
:1013D000031DEC2933083102031CF5293308B1023F
:1013E000031CB2033408B2022D14B70BDD29080028
:1013F00083120317E601E701E801FF30E9008316D5
:10140000031387128316031307168316031387111A
:1014100083160313940183120313940108008312AB
:101420000317E701831203138C1193008316031330
:101430001418080083120317E70B162A83120317E8
:101440000130E600080083120317E908031D0800B5
:101450003230E900831203176808003A031D312A6D
:10146000832A013A031D3B2A831203135008831277
:101470000317E300832A033A031D452A831203134B
:10148000500883120317E400832A013A031D4F2AF0
:1014900083120313500883120317E200832A073ACA
:1014A000031D592A83120313500883120317E00007
:1014B000832A013A031D632A8312031350088312FF
:1014C0000317E100832A033A031D6D2A83120313D5
:1014D000500883120313DC00832A013A031D772A84
:1014E00083120313500883120317E500832A0F3A6F
:1014F000031D832A83120313500883120313DD0094
:1015000083120317E80183160313403094008312FB
:10151000031320309400831203130808F8390438A9
:10152000880041300F22831203176808E80A0F224F
:10153000831203130808F839003888000800831262
:0815400003170530E800832ABF
:0815480083160313D01483166F
:10155000031350108316031350150800831603134A
:10156000D0148A110A16C5218A150A12831603138C
:101570005019CB2A8316031350148A110A16C52159
:101580008A150A1283160313D0108A110A16C52170
:101590008A150A1201348316031350108A110A1691
:1015A000C5218A150A120A3083120313E112EA00D8
:1015B000E1168A110A1651218A150A1214208A1579
:1015C0000A1283120313E11AD92A83160313501146
:1015D0008A110A16C5218A150A128316031350149C
:1015E0008A110A16C5218A150A1283160313D01010
:1015F0008A110A16C5218A150A12013483160313AB
:10160000501C0B2B83160313D0108A110A16C52108
:101610008A150A12013483160313D0148A110A168C
:10162000C5218A150A128316031350158A110A164A
:10163000C5218A150A128316031350148A110A163B
:10164000C5218A150A1283160313D0108A110A16AF
:10165000C5218A150A12013483160313D0148A1186
:101660000A16C5218A150A128316031350108A110F
:0A1670000A16C5218A150A120800A7
:06167A0083160313D111D9
:1016800083160313511383120317EB01EE01EC01D0
:10169000831603130714831203130630900083127A
:1016A00003138E018F01831203130C10831603138F
:1016B0000C10080083120317EB106B108312031336
:1016C0002D0883120317EE00831203132E088312D2
:1016D0000317EF0083120313FF30AD06AE060310AD
:1016E0000130AD070318AE0A831203132D088312CD
:1016F00003138E00831203132E08831203138F002B
:10170000831203130C10831603130C148312031398
:101710001014080083160313D115831203176B14DA
:101720006B15831203131010831203138E018F01A4
:101730008312031310140800831203176B1C080094
:10174000831203131010831203176B19B42B831227
:1017500003130E0883120317EC00831203130F0800
:1017600083120317ED00B52B6B11831203138E0147
:101770008F01831203131014080083120313101037
:1017800083120317EB14831203130C108A110A122D
:021790003E28F1
:0E1792008312031325081F39013A031DD32BC0
:1017A0008A150A12192F013A023A031DDA2B8A15FB
:1017B0000A12272F023A033A031DE12B8A110A1657
:1017C000F82F033A043A031DE82B8A150A120A2F50
:1017D000043A053A031DEF2B8A110A12EC2F053A41
:1017E000063A031DF62B8A150A12262E063A073AE8
:1017F000031DFD2B8A150A124C2C073A083A031DCB
:10180000042C8A110A12FE2F083A093A031D0B2CE8
:101810008A110A120328093A0A3A031D122C8A1166
:101820000A12FF2F0A3A0B3A031D192C8A150A12C5
:10183000E22E0B3A0C3A031D202C8A150A12C42EF4
:101840000C3A0D3A031D272C8A150A12A62E0D3AC2
:101850000E3A031D2E2C8A150A123C2D0E3A0F3A11
:10186000031D352C8A150A12322F0F3A103A031D28
:101870003C2C8A150A122E2F103A0434831383123B
:101880000313A608031D8317250884000008AA0077
:08189000840A0008A9000634D7
:0818980083120313B818033496
:1018A000831203175A08031D0034831603132A08F2
:1018B0000319952C831203132608003A031D662C86
:1018C00083120313BB170734942C942C013A031D85
:1018D000792C83160313401683160313521B732CA3
:1018E00083160313CF0A831203133B170734942C78
:1018F000942C033A031D8C2C831603134016831675
:101900000313521B862C83120313D40A831203136E
:10191000BB160734942C942C013A031D942C83128B
:101920000313BB170734942CCB2C83120313260804
:10193000003A031DA12C8316031340170734CB2C48
:10194000CB2C013A031DB12C83160313C0180734A6
:1019500083160313CF0A8316031340160734CB2CC8
:10196000CB2C033A031DC12C83160313C018073474
:1019700083160313CF0A8316031340160734CB2CA8
:10198000CB2C013A031DCB2C83160313C01907344B
:08199000C0160734CB2C023411
:08199800080083120313B91DBE
:1019A000DB2CB910B911391183160313D11383122B
:1019B0000313D8010800831203133A180800831296
:1019C0000313391DEF2C3911B91483160313D117E2
:1019D0000A3083120313E111E800E11508008312B5
:1019E0000313B91C080083120313E11908008316BE
:1019F0000313D21F072D831203133A148316031304
:101A0000D11383120313D80183120313B9100800F2
:101A100083120313D80083160313D0125012D0116F
:101A2000003A031D182D83120313B9150800382D31
:101A3000013A031D1C2D382D033A031D232D831657
:101A40000313D016382D013A031D2A2D83160313D4
:101A50005016382D073A031D322D83160313D01666
:101A60005016382D013A031D382D83160313D01557
:081A700083120313391508006D
:081A7800831203130130A900E1
:101A8000831203132608003A031D4E2D83160313F9
:101A9000520883120313AA000634842D013A031D51
:101AA000592D83160313530883120313AA00063417
:101AB000842D033A031D642D8316031350088312EB
:101AC0000313AA000634842D013A031D6F2D8316DB
:101AD0000313510883120313AA000634842D073A16
:101AE000031D7A2D831203176E0883120313AA00B5
:101AF0000634842D013A031D842D831203176F08C9
:0A1B000083120313AA000634023416
:061B0A008316031387108F
:101B1000831203138710831603130813831603130A
:101B2000881383120313081783120313881788136B
:101B300000008817080083160313403094008312B6
:101B4000031320309400831203130808F839023875
:101B50008800831603135C088A150A120F22831665
:101B600003135B080F228A150A128312031308134A
:101B700000000817831203130808F839003888009A
:021B800008005B
:0E1B820083160313891083160313881283122F
:101B90000313891483120313881688120000881611
:101BA000080083160313403094008312031320307F
:101BB0009400831203130808F83903388800831649
:101BC000031360088A150A120F22831603135F0895
:101BD0008A150A120F228A150A128312031389101A
:101BE00000008914831203130808F83900388800AC
:021BF0000800EB
:0E1BF2008312031325088400A9008312031335
:101C00002608031D092E8313000883120313AA005C
:101C10000634013A031D122E8317000883120313A2
:101C2000AA000634033A031D1F2E04088A110A165F
:101C300094278A150A1283120313AA000634040893
:0C1C40008A150A1253268A150A1206346F
:041C4C0083160313E5
:101C5000D31D0334831203175A08031D003483165F
:101C60000313511183120313260883120317DA009A
:101C7000831203176B1083120317940195018312CB
:101C800003179201930183120313DE0183120317DA
:101C900096019701980183120313BC108312031756
:061CA0000130D9000734F9
:0A1CA600A03CFF3C013E203C031966
:101CB0000034031C0034203C820728340A341B34CF
:101CC000FF3400345D3405340F34143405340134EA
:101CD0003C34963414343234FF34FF34FF34FF3450
:101CE000FF34FF3400340034003400344634003410
:0A1CF000013402340034003448349B
:061CFA000800831603132D
:101D0000DD004130DE00831603134030940083125F
:101D1000031320309400831203130808F8390438A1
:101D20008800831603135E088A150A120F22831691
:101D300003135D088A150A120F228A150A128312EC
:0C1D400003130808F83900388800080078
:041D4C0083120313E8
:101D50000130A900831203132608003A031DB82E90
:101D600083120317180883120313AA000634C32E24
:101D7000383E831203178313031B83178400000864
:081D800083120313AA000634CC
:081D8800831203130130A900CE
:101D9000831203132608003A031DD62E831203175D
:101DA000170883120313AA000634E12E183E83128B
:101DB00003178313031B8317840000088312031384
:041DC000AA0006343B
:0C1DC400831203175A08031D0034831219
:101DD0000313A608031DF02E83120313BB15F92E5F
:101DE00083120313BB1483120313260883120313F5
:041DF000BF000734F5
:0C1DF40083120313B91A03348312031383
:101E00002508A9008400831203132608AA0083135F
:041E10008000063414
:0C1E1400831203175A08031D00348312C8
:101E20000313260883120313D900831203133B16EE
:021E3000073475
:0E1E3200831203132608013A031D232F831287
:0E1E40000313B917262F83120313381007342B
:021E4E00013061
:0C1E500083120313AA000130A90006341D
:041E5C0083120313D7
:041E6000B817073474
:081E640083120313BA160734C0
:06200000521630313031B0
:0A20060083160313D400FF30013CE1
:1020100003180628D40B062808008316031305129C
:1020200083120313051201300320831203130516D4
:1020300008300320831603134030940083120313E7
:1020400020309400831203130808F83905388800FB
:1020500040308A150A120F2200300F2200300F2262
:1020600000300F2200300F2200300F2200300F22EC
:1020700000300F2200300F2200300F2200300F22DC
:1020800000300F2200300F2200300F2200300F22CC
:1020900000300F2200300F2200300F2200300F22BC
:1020A00000300F22831603130030D0000F22831656
:1020B00003130430D1000F228A110A16831203136E
:1020C0000808F83900388800831203130808F83923
:1020D0000638880040308A150A120F2200300F227D
:1020E000FF300F22FF300F2200300F2200300F226E
:1020F00000300F2200300F2200300F2200300F225C
:1021000000300F2200300F2200300F2200300F224B
:1021100000300F2200300F2200300F2200300F223B
:1021200000300F2200300F228A110A168312031387
:102130000808F83900388800831203130808F839B2
:102140000638880041308A150A120F2213300F22F8
:1021500000300F2283120313130883160313D200D7
:102160000F2283120313130883160313D3008A115B
:102170000A16831203130808F839003888008316FA
:102180000313061683160313881583160313091108
:102190008312031309118316031386118312031389
:1021A0008611831603138612831603135111080038
:1021B00083160313403094008312031320309400DD
:1021C000831203130808F8390538880040308A154F
:1021D0000A120F2200300F2200300F2200300F228F
:1021E00000300F2200300F2200300F2200300F226B
:1021F00000300F2200300F2200300F2200300F225B
:1022000000300F2200300F2200300F2200300F224A
:1022100000300F2200300F2200300F2200300F223A
:102220008A110A16831203130808F8390038880047
:10223000831203130808F8390638880040308A15DD
:102240000A120F2200300F22FF300F22FF300F2220
:1022500000300F2200300F2200300F2200300F22FA
:1022600000300F2200300F2200300F2200300F22EA
:1022700000300F2200300F2200300F2200300F22DA
:1022800000300F2200300F2200300F2200300F22CA
:102290008A110A16831203130808F83900388800D7
:1022A0000800831603134030940083120313203078
:1022B0009400831203130808F83906388800413067
:1022C0008A150A120F2212300F2200300F228312B9
:1022D0000313130883160313D2000F228312031370
:1022E000130883160313D3008A110A1683120313EB
:1022F0000808F83900388800831203130808F839F1
:102300000538880040308A150A120F2212300F2239
:102310008316031350080F228316031351080F224C
:102320008A110A16831203130808F8390038880046
:1023300008008316031340309400831203132030E7
:102340009400831203130808F839063888004130D6
:102350008A150A120F2212300F2200300F22831228
:102360000313130883160313D2000F2283120313DF
:10237000130883160313D3008A110A16831203135A
:102380000808F83900388800080083160313403025
:10239000940083120313203094008312031308085F
:1023A000F8390538880040308A150A120F22123099
:1023B0000F228316031350080F22831603135108AC
:1023C0000F228A110A16831203130808F8390038FD
:0423D0008800080079
:0C23D4008312031300308B0083160313E8
:1023E0008C00831603138D008A110A16CD278A11DB
:1023F0000A1641258A150A1200208A110A16772624
:102400008A110A16831203138313031B83173830B0
:1024100084000408613A0319102A8001840A092AF9
:1024200038148316031308108316031388108316B9
:1024300003130811831203130808F83900388800C1
:102440008A150A12F8218A110A168A110A160D2015
:102450008A110A168A150A12C1258A110A168A15C6
:102460000A123D238A110A16831603130130AA00AB
:102470008A110A12FA228A110A168A150A12852569
:102480008A110A168A150A12A4228A110A168A15B6
:102490000A127D268A110A168A110A1222278A1127
:1024A0000A168A110A121C258A110A1683120313AE
:1024B0008B170B1700308A150A1208258A110A1685
:1024C00083120313FF30CA008A150A128A238A1165
:1024D0000A16013083120313D900831203133B162B
:1024E00083160313511583120313B91F782A00288A
:1024F00083120313BA1E832ABA128A110A16D8202D
:102500008A110A168B2A8A110A1651218A110A1673
:1025100083120313BA1683120313BA1FAA2ABA131B
:10252000831203171530DD008A150A1214208A1150
:102530000A16831203130A30E000E00B9D2A83126F
:102540000317DD0B942A831203135008831203131D
:10255000DA00B82A8A150A1214208A110A1683167C
:1025600003132A18B82A8A110A1268238A110A1634
:10257000831603132508831203135202031CC92A6E
:1025800083120313081283120313B8118312031367
:10259000B81683120317DA080319F12A83160313F6
:1025A000D31DD72A831203170A30DC00F12A8312C5
:1025B0000317DC08031DF12A831203133A1DE62AD0
:1025C00083120313B8141F30BE00EB2A83120313C7
:1025D000B8140430BE008A110A122D258A110A1679
:1025E000B22B831203175A1CFB2A8A110A16C62320
:1025F0008A110A16B22B83120317DA1C052B8A11D3
:102600000A1251208A110A16B22B8A150A12CD24F9
:102610008A110A16831203133B1E172B3B128312D7
:10262000031359088A110A123A278A110A168312CB
:102630000313BB1D272BBB11831203130812831234
:102640000313B81183120313881200008816831233
:102650000313BB1C792BBB103B15831203133F08DC
:10266000831203136112E900611683160313210814
:10267000831203134302031C552B031D472B8316A0
:1026800003132008831203134202031C552B8316E5
:102690000313200883160313DF0083160313210896
:1026A0000F3983160313E000622B831203134208D1
:1026B00083160313DF008312031343080F398316B5
:1026C0000313E000831603135F0883120313DE0075
:1026D00083160313600883120313DF008A150A129E
:1026E000D1258A110A1683120313081683120313C5
:1026F000B815831203133B1D8F2B83120313611A2A
:102700008F2B83120313081283120313B811831241
:102710000313881200008816831203133B118312DF
:102720000313BB1E992BBB128A150A12AE228A1103
:102730000A16831203133B1FA32B3B138A150A129D
:10274000FE228A110A1683120313BB1FAD2BBB1383
:102750008A150A122C238A110A168A150A122322B4
:102760008A110A16732A08008312031383120313B3
:102770000719B32B831603130C128C1298128312B1
:0C2780000313071183120313BA1408009E
:04278C00831203179A
:102790005908013A031D082C83160313A41B2414A3
:1027A000831203133A1183120313B8138312031312
:1027B0001930EF0083160313D11183120313CB01D9
:1027C000CC0183120313B9168A110A1267268A11E3
:1027D0000A160319F32B83120313B8140130BE0039
:1027E0008A110A122D2D83120313FF30CA008A1595
:1027F0000A129F228A110A16831603132B088312CA
:1028000003136111E700611583120317D90A402DE4
:10281000033A031DAE2C831203136119172C831284
:102820000313B8140330BE008A110A122D2D83122F
:102830000313B81C1E2C8A110A122D2D83160313A4
:10284000A41B332C831603132A08031D2F2C831675
:102850000313401D0800831603134115332C831600
:102860000313521F080083120313C11E3B2C83164F
:10287000031351163E2C83160313511283120313B4
:10288000411E462C83160313D116492C83160313BD
:10289000D11283120313400883160313DB00831243
:1028A000031341080F3983160313DC008A150A123B
:1028B0009B258A110A1683120313430E07398A15C2
:1028C0000A1208258A110A16831603132108831297
:1028D00003134302031C842C031D762C831603135D
:1028E0002008831203134202031C842C8316031353
:1028F000200883160313DF008316031321080F3902
:1029000083160313E000912C8312031342088316ED
:102910000313DF008312031343080F3983160313D5
:10292000E000831603135F0883120313DE0083168F
:102930000313600883120313DF008A150A12D125DE
:102940008A110A16831603132708831203136111D1
:10295000E700611583120317D90A402D013A031DC0
:102960002B2D8312031361190800831203133A15E8
:102970008316031351148A110A16C5218A110A16E7
:1029800083160313D0148A110A16C5218A110A1658
:1029900083120313440883120313AD00831203133D
:1029A000450883120313AE008A150A125A238A11AE
:1029B0000A16831203133912831203133A1783166C
:1029C0000313D1148A110A16C5218A110A1683121B
:1029D00003170F30DE0083120313BA153A12831661
:1029E00003132208831203136110E500611483129C
:1029F00003179001910183120313B81E072D831250
:102A00000313B8141B30BE008A110A122D2D831235
:102A10000313520883120313DB0083120313BF1F37
:102A20001A2DBF13BC143F0883120313E110E600F4
:102A3000E114212DBC103F08831203136111E7003C
:102A4000611583120313871483120313091583126C
:102A50000317D90A402D073A031D402D831203178F
:102A6000EB1C362DEB108A110A122D2D8312031345
:102A7000B81F3D2D8A110A122D2D8A110A12792EA6
:022A800008004C
:0E2A8200831203138313031B83172030840079
:102A90002D3A0319502D00308000840A0408482D77
:102AA000831203132430A3002830A20083160313DB
:102AB0002F3099002430980083120313803098003F
:102AC00090309800831603130C128C169812831200
:102AD00003134A3092009101831603138C1083165E
:102AE00003137D309200831603130711831203131F
:102AF00007110800080083120313A0012308243AD9
:102B00000319872D2308273A0319BA2DC92D9A1ABC
:102B1000D42D1A081F39133A031DD42DA0160530E1
:102B20004038831203139200920E0310920C121578
:102B3000831603138C14831203131A0883120313CE
:102B4000A101C039003A031DA72D2114C92D003A57
:102B5000403A031DAD2DA114C92D403AC03A031DC2
:102B6000B32D2115C92DC03A803A031DB92DA115E9
:102B7000C92DD42D1A08AC002408250626062C06DB
:102B8000031DD42D2016831603138C1283120313F6
:102B900018128313230884001A088000201AE72DD6
:102BA000A30A8A110A123E2883120313A401A50165
:102BB000A601A7012430A300831203138C10121165
:102BC0009101831603138C108A110A123E282430B7
:102BD000A300831203138C101211910183160313A7
:102BE0008C10831203132408A800A119092E2118A0
:102BF000FD2D2119132EA118032E8A150A12C9239F
:102C00008A110A161D2E8A150A123E248A110A16E6
:102C10001D2E831203132508A9008A150A12F9250F
:102C20008A110A161D2E831203132508A9008A157E
:102C30000A12FA268A110A161D2E83120313063A67
:102C40000319282E063AAA00073A031DFF30A900EF
:102C500083120313280829062A06AB002F2E83129D
:102C600003130715831203132830A20083160313DE
:102C700098160C163E2E83120313A00183138312A1
:102C80000313220884002D3A031D572E83120313C9
:102C9000A1018316031398120C128C1683120313CE
:102CA00018168312031307118A110A123E28831281
:102CB000031300089900A20A8A110A123E288312FF
:102CC0000313A00183120313121191018312031342
:102CD0008C10831203132430A300A0018A110A125E
:0E2CE0003E28831603130C128C129812080063
:022CEE0083124F
:102CF0000313E101E201E301E401E501E601E7017B
:102D0000E801E901EA01EB01EC01831603138111EB
:102D100001118110011481128B16831203130930E3
:102D2000E200080083160313D31B9B2E83120317A4
:102D3000900F9B2E910A83120313611CA22EE50BA8
:102D4000A22E6110831203136208E20A003A031DE7
:102D5000B02E83120317E9080319AF2EE9030F2FD2
:102D6000023A031DC82E831203175A19C72E831265
:102D70000317DA19C72E83120313391EC72E8312C5
:102D80000317DB03031DC72E8312031339120F2F02
:102D9000013A031DDC2E83120313E11DD22EE80B32
:102DA000D22EE11183160313D319DB2E83120317DE
:102DB000DC08031DDC030F2F073A031DE72E8316E3
:102DC0000313411CE62EC50BE62E41100F2F023ACD
:102DD000031DEC2E132F0F2F013A031D0B2F83120F
:102DE0000313E11CF62EE60BF62EE11083120313FB
:102DF000BA1D0A2F83120317DE03031D0A2F831245
:102E00000313BA11831203133A1E0A2F3A128316C0
:102E10000313D1100F2F0F3A031D0F2FE2010B11D7
:102E20008A110A123E28831203136308E30A003A48
:102E3000031D222F83120313611D212FE70B212F66
:102E400061115E2F023A031D2D2F83120313E11F20
:102E50002C2FEC0B2C2FE1135E2F013A031D382F82
:102E600083120313611E372FE90B372F61125E2F78
:102E7000073A031D432F83160313C11C422FC60BB1
:102E8000422FC1105E2F013A031D472F5E2F033AD8
:102E9000031D522F83120313E11E512FEA0B512FF2
:102EA000E1125E2F013A031D572F622F5E2F0E3A5B
:102EB000031D5E2FE301831203133B140B118A11D0
:102EC0000A123E28831203136408E40A003A031D21
:102ED0006F2F831203130608203A8600872F013ACA
:102EE000031D782F8A150A129C238A110A16872F30
:102EF000043A031D832F83120313611F822FEB0BF0
:102F0000822F6113872F0F3A031D872FE4010B11C6
:102F10008A110A123E2883120313EE00ED01ED0B15
:082F20008F2FEE0B8F2F08002C
:082F2800831203178D00A03095
:102F30008D02831603178C130C14831203170C08CD
:102F400008008313831603178C18A42F0408831218
:102F500003178D00A0308D02831203130008831223
:102F600003178C00831603178C130C158B1BC12FB2
:102F700055308D00AA308D008C140C118C18BE2F8A
:102F800008008B1355308D00AA308D008C140C1165
:102F90008C18C82F8B17080008008313A0308400FA
:102FA000040894278000840A0408C03A031DD02F27
:102FB00008008313A0308400A127840A0408BD3AC6
:102FC000031DDC2F080083130E308A0004085326EB
:102FD0008A110A168000A12708008313A0308400FC
:102FE000E327840A0408BD3A03190800F02F0800FB
:0E2FF00083120313BE0183120313B8100734BB
:022FFE000800C9
:02400E00713F00
:1042000028000A001B00FF0000005D0005000F00F1
:104210001400050001003C00960014003200FF006D
:10422000FF00FF00FF00FF00FF0000000000000093
:1042300000004600000001000200000000004800ED
:00000001FF
