<0xc9d,1.3>
:020000040000FA
:060000008A110A16032814
:020006000734BD
:080008008B13FF0003088312B3
:100010000313F1000A08F2000408F4008316031326
:10002000010883120313F300831203130C08F50075
:100030000D08F600831603130C0883120313F5054D
:10004000831603130D0883120313F6058A150A128B
:100050007518EE2B8A110A16F518752E8A110A16D4
:10006000F51A912D8A110A16751A512E8A110A163F
:100070008B1E3B280B19A82E8B133D2883120313CC
:100080007408840072088A007308831603138100C1
:0E0090008312031371088300FF0E7F0E090018
:02009E0000342C
:0200A00000342A
:0E00A200831203175908013A031D9228831296
:1000B00003133A11831203133C103C1183120313F0
:1000C000B81383160313D11183120313B9168A11BF
:1000D0000A127C268A110A12031976288312031346
:1000E000B8140130BE008A110A123C2D831203138A
:1000F000FF30CA008A150A1269238A110A12831274
:100100000313B81C86288A110A123C2D8316031388
:100110002B08831203136111E70061158312031783
:10012000D90A082B033A031D3429831203136119DA
:10013000A12883120313B8140330BE008A110A12D7
:100140003C2D83120313B81CA8288A110A123C2DD7
:10015000831603132A08031DB52883160313401DB5
:100160000800831603134115B92883160313521F81
:10017000080083120313C11EC128831603135116EE
:10018000C42883160313511283120313411ECC2873
:1001900083160313D116CF2883160313D1128312AB
:1001A0000313400883160313DB0083120313410873
:1001B0000F3983160313DC008A150A12E7258A110A
:1001C0000A1283120313430E07398A150A123925BE
:1001D0008A110A12831603132108831203134302A0
:1001E000031C0A29031DFC2883160313200883120D
:1001F00003134202031C0A298316031320088316E3
:100200000313DF008316031321080F39831603132A
:10021000E000172983120313420883160313DF003B
:100220008312031343080F3983160313E000831668
:1002300003135F0883120313DE00831603136008A1
:1002400083120313DF008A150A121D268A110A126F
:10025000831603132708831203136111E700611546
:1002600083120317D90A082B013A031DC1298312EF
:100270000313611908008316031351148A110A1617
:10028000B4238A110A1283160313D0148A110A1692
:10029000B4238A110A12831203134408831203132E
:1002A000AD0083120313450883120313AE008A15B1
:1002B0000A128B238A110A12831203133912831232
:1002C00003133A17831603132208831203136110D2
:1002D000E500611483160313D1148A110A16B4239E
:1002E0008A110A12831203170F30DE0083120313E0
:1002F000BA153A1283120317900191018312031366
:10030000B81E8A2983120313B8141B30BE008A1149
:100310000A123C2D83120313BF1F9729BF13BC146D
:100320003F0883120313E110E600E1149E29BC107C
:100330003F08831203136111E70061158312031351
:1003400038158312031387148312031309153230EF
:1003500083120313E110E600E11483120313E11882
:10036000AD298312031387108312031338118312EC
:100370000313091183120317EB1483120317D90A0D
:10038000082B073A031DEC2983120317EB1CE829FD
:10039000EB1083160313A41DD3298A110A123C25DE
:1003A0008A110A1208008A110A121B268A110A12DF
:1003B000831203171708960083160313230883126A
:1003C00003136111E700611583120317D90A0800AE
:1003D0008A110A128E2E082B013A031D712A8312EC
:1003E00003136119FB2983120313B8141530BE00DF
:1003F0008A110A123C2D831203133C1C0800831639
:10040000031351143C1083120313CB01CC0183124C
:100410000313C11E0F2A831603135116122A8316C3
:100420000313511283120313411E1A2A8316031356
:10043000D1161D2A83160313D11283120313400809
:1004400083160313DB008312031341080F3983164D
:100450000313DC008A150A12E7258A110A12831693
:1004600003132108831203134302031C4F2A031DA5
:10047000412A831603132008831203134202031C2C
:100480004F2A83160313200883160313DF008316F5
:10049000031321080F3983160313E0005C2A83122B
:1004A0000313420883160313DF0083120313430868
:1004B0000F3983160313E000831603135F088312BA
:1004C0000313DE0083160313600883120313DF0097
:1004D0008A150A121D268A110A1283120317D90AD5
:1004E000082B033A031DEC2A83160313D0148A1138
:1004F0000A16B4238A110A128312031344088312C2
:100500000313AD0083120313450883120313AE00D7
:100510008A150A128B238A110A12831203133912C5
:10052000831203133A17831603132208831203134B
:100530006110E500611483160313D1148A110A16A1
:10054000B4238A110A12831203170F30DE008312BC
:100550000313BA153A128312031790019101831203
:1005600003133A1583120313B81EBE2A8312031312
:10057000B8141B30BE008A110A123C2D83120313DB
:10058000520883120313DB0083120313BF1FD12A07
:10059000BF13BC143F0883120313E110E600E114FB
:1005A000D82ABC103F08831203136111E7006115BC
:1005B0008312031338158312031387148312031352
:1005C000FF30EF0083120313B813831203130915CE
:1005D00083120317D90A082B013A031D082B831233
:1005E0000317EB1CFA2AEB108A110A123C2D8A1110
:1005F0000A12080083120313B81F032B8A110A1270
:100600003C2D8A110A128A110A128E2E8A110A12A0
:020610000800E0
:0E06120083160313861083160313061183123A
:1006200003130608F9390038860083160313C20144
:10063000C001C1014017C801C901CC01CD01CA01E7
:10064000CB0183160313FF30AF00B000B100B2003E
:10065000B300B400B501B601B701B80108008316B4
:100660000313C4004130C3003B2B83160313C400A3
:100670004030C3003B2B8316031340309400831299
:10068000031320309400831203130808F83900384C
:100690008800831603134308CE01831203138C11C1
:1006A00093008316031314185A2B83160313CE0BCF
:1006B000512B0800831603134408CE018312031341
:1006C0008C1193008316031314186B2B83160313DA
:1006D000CE0B622B0800831203130808F839003888
:1006E0008800080083160313411C0800722B831630
:1006F00003134119080083160313401AF22C8316C2
:100700000313C01A042D83160313401B172D8316E1
:100710000313C01C782C831603134208003A031DF0
:10072000BC2B83160313C1180800C20A4708CA006D
:10073000831603134A088316031333020318A62BE8
:1007400083120313B8146530BE00172D83160313EC
:100750004A08831603133702031CB42B83120313B6
:10076000B8146630BE00172D831603130A30C60076
:10077000C11401302F2B772C013A031DEA2B83166D
:100780000313C1180800C2014708CB0083160313E6
:100790004B088316031334020318D42B831203135C
:1007A000B8146930BE00172D831603134B08831647
:1007B00003133802031CE22B83120313B8146A30AC
:1007C000BE00172D831603130A30C600C114003073
:1007D0002F2B772C033A031DFD2B8316031341188F
:1007E0000800C20A7830C5004114831203130608BA
:1007F000F939023886000800772C013A031D2B2CAA
:100800008316031341180800C20A4708C80083165C
:10081000031348088316031331020318152C83129F
:100820000313B8146330BE00172D83160313480852
:10083000831603133502031C232C83120313B814ED
:100840006430BE00172D831603130530C500411414
:1008500001302F2B772C073A031D5F2C83160313CF
:10086000411808004708C900831603134908831676
:10087000031332020318422C83120313B814673097
:10088000BE00172D8316031349088316031336027F
:10089000031C502C83120313B8146830BE00172DAC
:1008A000831203130608F9390038860083160313F0
:1008B000C20A0A30C500411400302F2B772C013AB0
:1008C000031D772C831603134118080083120313AA
:1008D0000608F93904388600831203133817831683
:1008E0000313C2011430C600C114401508000800EB
:1008F00083160313C01DAA2C831603134208003A63
:10090000031D922C8316031341180800C20A3C30C1
:10091000C600C114831203130608F939063886008D
:100920000800A92C013A031DA92C83160313C11832
:100930000800831203130608F9390038860083166D
:100940000313C201C01140140A30C600C1140030A4
:100950002F2B080083160313401CF12C831603135E
:100960004208003A031DD12C83160313C118080056
:10097000C20A4708CC00831603134C0883160313DE
:100980002F020318C92C83120313B8146130BE0060
:10099000172D831603130A30C600C11401302F2B04
:1009A000F02C013A031DF02C83160313C118080024
:1009B000C2014708CD00831603134D0883160313A5
:1009C00030020318E92C83120313B8146230BE00FE
:1009D000172D831603130A30C600C11400302F2BC5
:1009E00008000800831203130608F939003886004E
:1009F00083160313C0010230C200C0140A30C500C0
:100A00004114C11000302F2B8312031338138312AB
:100A100003130608F9390038860083160313C00152
:100A2000C201C0150A30C5004114C110080083126C
:100A300003133813831203130608F93900388600AC
:100A400083160313C001C20140141430C600C11440
:060A5000411000302F2BC5
:0A0A560083120317D901DA01831699
:100A60000313511083160313511083160313D1106F
:100A70008316031351110800831203138813000017
:100A80008817831203138710831603132108831614
:100A900003132902031C642D031D562D8316031313
:100AA0002008831603132802031C642D83160313E6
:100AB000200883160313DF008316031321080F3960
:100AC00083160313E000712D831603132808831681
:100AD0000313DF008316031329080F39831603134A
:100AE000E000831603135F0883120313DE008316EE
:100AF0000313600883120313DF008A150A121D26F0
:100B00008A110A1283120313381183120317100873
:100B1000831203179400831203171108831203171B
:100B2000950083120313391283120313B91283122F
:100B30000317DA01D90183120313BA19A32D8316FF
:100B40000313D110A42D3A168316031351108316E4
:100B50000313D0108A110A16B4238A110A128312C1
:100B600003131010831203130E0883120313AD0036
:100B7000831203130F0883120313AE0083120317AB
:100B80006E0883120313B300831203176F088312D6
:100B90000313B4008A150A122521831203134B088C
:100BA00083120313B300831203134C08831203133D
:100BB000B4002521831203132D0883120313CB00E5
:100BC000831203132E0883120313CC008A110A1216
:100BD000831203133C1083120313BA1783120317F3
:100BE000FF30E9008A150A12BB238A110A12831604
:100BF00003135115831203130911831603132A08D3
:100C0000031D112E83160313C2011430C600C11434
:100C100000308A110A122F238A110A128316031335
:100C2000411183120313BA1C08008A110A165725B2
:100C30008A110A1208008312031387108312031308
:100C4000381183120313B912831203171008831289
:100C500003179200831203171108831203179300DE
:100C6000831203131010831203130E08831203134D
:100C7000AD00831203130F0883120313AE00831217
:100C800003176E0883120313B300831203176F0850
:100C900083120313B4008A150A1225218312031349
:100CA0002D0883120313CB00831203132E08831223
:100CB0000313CC008A110A1283120313BA19642E8B
:100CC00083160313D110652E3A16831203131010E6
:100CD00083160313A41C6F2E831603135110831263
:100CE00003133C1583120313BA1C08008A110A1659
:100CF00057258A110A120800831203138313031B5A
:100D000083173F3084000008E000840A0008E006F2
:100D100004084A3A031D852E600808008312031355
:100D2000B81E9A2E83120313B8141B30BE008A110A
:100D30000A123C2D83120313BC1CAB2E8312031327
:100D4000E118AA2E83120313B8141E30BE008A11B4
:100D50000A123C2DB72E831203136119B72E83128A
:100D60000313B8141E30BE008A110A123C2D8316DC
:100D70000313D31FC62E2D30831203136110E50019
:100D80006114831203133A173912080083120313F4
:100D900061180800831203133A1FD12E3A13BA17B1
:100DA000080083120313391AFE2E831203171F3013
:100DB00017020318E62E1708970A193E8313031B20
:100DC00083178400831203134F08800083120317D4
:100DD0001F3018020318F72E1808980A393E83139B
:100DE000031B8317840083120313510880008312AE
:100DF00003170530DB008312031339168312031324
:100E00005108470203180C2F83120313B81417302C
:100E1000BE008A110A123C2D8312031346085102A8
:100E200003181A2F83120313B8141830BE008A1146
:100E30000A123C2D831203134F0849020318282F6E
:100E400083120313B8141930BE008A110A123C2D04
:100E50008312031348084F020318362F831203131B
:0E0E6000B8141A30BE008A110A123C2D080088
:020E6E008316E9
:100E70000313D01483160313501083160313501555
:100E8000080083160313501C6F2F83160313521F81
:100E90004D2F83160313501D013483160313D014F2
:100EA0008A110A16B4238A110A12831603135010EA
:100EB0008A110A16B4238A110A120A308312031304
:100EC000E112EA00E1168A110A1640238A150A1275
:100ED00014208A110A1283120313E11A632F831656
:100EE000031350118A110A16B4238A110A128316A9
:100EF000031350148A110A16B4238A110A12831696
:100F00000313D0108A110A16B4238A110A1201346D
:100F100083160313501CB32F83160313521F912FF4
:100F2000013483160313D0148A110A16B4238A11CC
:100F30000A128316031350108A110A16B4238A1159
:100F40000A120A3083120313E112EA00E1168A1131
:100F50000A1640238A150A1214208A110A128312D3
:100F60000313E11AA72F83160313D0148A110A164C
:100F7000B4238A110A128316031350158A110A1614
:100F8000B4238A110A128316031350148A110A1605
:100F9000B4238A110A1283160313D0108A110A1679
:100FA000B4238A110A12013483160313D0148A1150
:100FB0000A16B4238A110A128316031350108A11D9
:0A0FC0000A16B4238A110A12080071
:060FCA00831203175A0810
:100FD000031D003483120313A608031DF32F83128D
:100FE0000313BB15FC2F83120313BB1483120313CB
:0A0FF000260883120313BF00073424
:020FFA000734BA
:101000008316031305083F38850083160313093040
:101010009F00831203139F019F171F14831603134E
:10102000D801D901DA010800831603135808003AE1
:1010300003191C28D8030800831203131F19080082
:10104000831603135A183228DA1857285A197C289D
:10105000DA19A1285A1AC628DA1AEB28DA01DA16A0
:10106000D901080059194B28D918462883160313AB
:101070009F13831203139F121F129F1183160313D2
:10108000D914831603130130D800080059158312B0
:1010900003131F150800831203131E088312031382
:1010A000D00083160313DA01DA14D90108005919A4
:1010B0007028D9186B28831603139F138312031308
:1010C0009F121F129F1583160313D914831603133F
:1010D0000130D80008005915831203131F150800AA
:1010E000831203131E0883160313C700831603130A
:1010F000DA015A15D901080059199528D9189028EC
:10110000831603139F13831203139F121F169F113D
:1011100083160313D914831603130130D800080073
:101120005915831203131F150800831203131E0899
:1011300083120313CF0083160313DA01DA15D901E2
:1011400008005919BA28D918B528831603139F1314
:10115000831203139F121F169F1583160313D914AE
:10116000831603130130D8000800591583120313A6
:101170001F150800831203131E0883120313D200E5
:1011800083160313DA015A16D90108005919DF280A
:10119000D918DA28831603139F13831203139F169B
:1011A0001F129F1183160313D914831603130130E2
:1011B000D80008005915831203131F150800831265
:1011C00003131E0883120313D30083160313DA01DB
:1011D000DA16D901080059190429D918FF288316ED
:1011E00003139F13831203139F161F129F15831659
:1011F0000313D914831603130130D80008005915BE
:10120000831203131F150800831203131E08831291
:101210000313D10083160313DA015A14D90108000D
:021220000800C4
:0E122200831203133308AD02031CAE0334081D
:10123000AE02031CAF030800831203133308AD0290
:10124000031CAE033408AE02080083120313AF017F
:101250003308AD070318AE0A3408AE070318AF0A07
:10126000080083120313AE01AD0C0318AE07AE0CD9
:10127000AD0C0318AE07AE0CAD0C0318AE07AE0CE8
:10128000AD0C0318AE07AE0CAD0C0318AE07AE0CD8
:10129000AD0C0318AE07AE0CAD0C0318AE07AE0CC8
:1012A000AD0C0318AE07AE0CAD0C0800831203138F
:1012B000AF01B5001030B700350803102D1C6129AF
:1012C000AF07AF0CAE0CAD0C0310B70B5E290800D6
:1012D00083120313B001B5001830B70035080310AE
:1012E0002D1C7329B007B00CAF0CAE0CAD0C031065
:1012F000B70B7029080083120313B300AF01083045
:10130000B7002E0DAF0D3308AF0203188929AF07C0
:101310000310AE0DB70B8129B5010830B7002D0DB4
:10132000AF0DB50D3308AF02B6010301031C360F34
:10133000B5020318A3293308AF07B6010301031848
:10134000360FB5070310AD0DB70B8F2908008312B8
:101350000313B300B0011830B7002D0DAE0DAF0D63
:10136000B00DAD0D3308B00203182D142D1CB007BD
:10137000B70BAD29080083120313B001B101183077
:10138000B7002D0DAE0DAF0DB00DB10DAD0D330885
:10139000B0023408031C340FB10203182D142D18A9
:1013A000D429B1073308B007B70BC129080083124D
:1013B00003132030B700B201B1010310AD0DAE0D23
:1013C000AF0DB00DB10DB20D0318EE293408320285
:1013D000031DEC2933083102031CF5293308B1023F
:1013E000031CB2033408B2022D14B70BDD29080028
:1013F00083160313081283120313081283120313B4
:10140000B811831203138812000088168312031385
:10141000B81283120313D70183120313B811080003
:1014200083120313B81283120313B8191B2A8312F1
:101430000313D7002E2A831203135706031908003B
:10144000D7068312031388120000881628308312EF
:101450000313E110E600E114E1182C2A83120313B0
:10146000081683120313B815831203135708013AA1
:10147000031D3F2A83160313D0135013572A033A30
:10148000031D472A83160313D0175013572A013A16
:10149000031D4F2A83160313D0135017572A073AF8
:1014A000031D572A83160313D0175017572A8A1182
:1014B0000A1640238A150A12283083120313E110FA
:1014C000E600E114E118622A83120317DF01E0014C
:1014D000831203170130DF070318E00A8316031392
:1014E0002108831203176002031C8E2A031D802A21
:1014F000831603132008831203175F02031C8E2A2E
:1015000083160313200883160313DF0083160313C7
:1015100021080F3983160313E0009B2A8312031757
:101520005F0883160313DF008312031760080F3967
:1015300083160313E000831603135F08831203135B
:10154000DE0083160313600883120313DF008A157D
:101550000A121D268A150A12831203175F088316C2
:1015600003132806031D682A8312031760088316D5
:1015700003132906031D682A83120313E113EC00E9
:04158000E117080067
:0C15840083120317E601E701E801FF30C5
:10159000E9008316031387128316031307168316B5
:1015A0000313871183160313940183120313940109
:1015B000080083120317E701831203138C119300B1
:1015C000831603131418080083120317E70BE02A8D
:1015D000831203170130E600080083120317E9089D
:1015E000031D08003230E900831203176808003A2F
:1015F000031DFB2A4D2B013A031D052B83120313F8
:10160000500883120317E3004D2B033A031D0F2BE1
:1016100083120313500883120317E4004D2B013A81
:10162000031D192B83120313500883120317E200C2
:101630004D2B073A031D232B8312031350088312EB
:101640000317E0004D2B013A031D2D2B83120313CA
:10165000500883120317E1004D2B033A031D372B6B
:1016600083120313500883120313DC004D2B013A3D
:10167000031D412B83120313500883120317E50047
:101680004D2B0F3A031D4D2B831203135008831269
:101690000313DD0083120317E801831603134030A0
:1016A000940083120313203094008312031308085C
:1016B000F839043888004130D922831203176808AA
:1016C000E80AD922831203130808F8390038880081
:0C16D0000800831203170530E8004D2BC2
:0416DC00831603135B
:1016E000D11183160313511383120317EB01EE017B
:1016F000EC018316031307148312031306309000C2
:10170000831203138E018F01831203130C108316AF
:1017100003130C10080083120317EB106B108312D5
:1017200003132D0883120317EE00831203132E08F0
:1017300083120317EF0083120313FF30AD06AE06CA
:1017400003100130AD070318AE0A831203132D08EE
:10175000831203138E00831203132E0883120313C4
:101760008F00831203130C10831603130C148312BF
:1017700003131014080083160313D11583120317E3
:101780006B146B15831203131010831203138E0155
:101790008F018312031310140800831203176B1CAC
:1017A0000800831203131010831203176B19E52B23
:1017B000831203130E0883120317EC008312031322
:1017C0000F0883120317ED00E62B6B11831203132E
:1017D0008E018F0183120313101408008312031368
:1017E000101083120317EB14831203130C108A11C9
:0417F0000A123E2873
:0C17F4008312031325081F39013A031D5E
:10180000042C8A150A125F2F013A023A031D0B2C91
:101810008A150A126D2F023A033A031D122C8A11FF
:101820000A16F32F033A043A031D192C8A150A12DB
:10183000502F043A053A031D202C8A150A122E2F28
:10184000053A063A031D272C8A150A12722E063A0B
:10185000073A031D2E2C8A150A127D2C073A083AE6
:10186000031D352C8A110A120328083A093A031D70
:101870003C2C8A110A16FF2F093A0A3A031D432C01
:101880008A110A12FD2F0A3A0B3A031D4A2C8A11BB
:101890000A12E52F0B3A0C3A031D512C8A150A1235
:1018A000102F0C3A0D3A031D582C8A150A12F22EED
:1018B0000D3A0E3A031D5F2C8A110A16AA2F0E3A12
:1018C0000F3A031D662C8A150A12742F0F3A103A2C
:1018D000031D6D2C8A110A16FA2F103A0434831353
:1018E00083120313A608031D83172508840000082C
:0A18F000AA00840A0008A9000634CB
:0618FA0083120313B8186D
:101900000334831203175A08031D0034831603138C
:101910002A080319C62C831203132608003A031D54
:10192000972C83120313BB170734C52CC52C013A1F
:10193000031DAA2C83160313401683160313521B90
:10194000A42C83160313CF0A831203133B17073407
:10195000C52CC52C033A031DBD2C8316031340165A
:1019600083160313521BB72C83120313D40A83125A
:101970000313BB160734C52CC52C013A031DC52C17
:1019800083120313BB170734C52CFC2C83120313DB
:101990002608003A031DD22C831603134017073480
:1019A000FC2CFC2C013A031DE22C83160313C018F7
:1019B000073483160313CF0A831603134016073424
:1019C000FC2CFC2C033A031DF22C83160313C018C5
:1019D000073483160313CF0A831603134016073404
:1019E000FC2CFC2C013A031DFC2C83160313C0199C
:0A19F0000734C0160734FC2C023443
:0619FA0008008312031334
:101A0000B91D0C2DB910B911391183160313D11357
:101A100083120313D8010800831203133A18080035
:101A200083120313391D202D3911B91483160313A2
:101A3000D1170A3083120313E111E800E115080001
:101A400083120313B91C080083120313E119080061
:101A500083160313D21F382D831203133A148316EF
:101A60000313D11383120313D80183120313B91084
:101A7000080083120313D80083160313D0125012E8
:101A8000D011003A031D492D83120313B915080024
:101A9000692D013A031D4D2D692D033A031D542D67
:101AA00083160313D016692D013A031D5B2D83168F
:101AB00003135016692D073A031D632D8316031374
:101AC000D0165016692D013A031D692D8316031394
:0A1AD000D015831203133915080026
:061ADA00831203178D00CA
:101AE000A0308D02831603178C130C148312031776
:101AF0000C0808008313831603178C187D2D040827
:101B0000831203178D00A0308D0283120313000887
:101B1000831203178C00831603178C130C158B1B71
:101B20009A2D55308D00AA308D008C140C118C1814
:101B3000972D08008B1355308D00AA308D008C1422
:101B40000C118C18A12D8B17080008008313A030EE
:101B5000840004086D258000840A0408C03A031D2F
:101B6000A92D08008313A03084007A25840A040874
:101B7000BD3A031DB52D080083130E308A000408FA
:101B80009F268A150A1280007A2508008313A03048
:101B90008400BC25840A0408BD3A03190800C92D35
:021BA00008003B
:0E1BA200831603138710831203138710831614
:101BB00003130813831603138813831203130817E0
:101BC00083120313881788130000881708008316F0
:101BD00003134030940083120313203094008312C7
:101BE00003130808F83902388800831603135C08C9
:101BF0008A150A12D922831603135B08D9228A1583
:101C00000A12831203130813000008178312031328
:0A1C10000808F839003888000800C1
:061C1A008316031389107C
:101C20008316031388128312031389148312031378
:101C300088168812000088160800831603134030A7
:101C400094008312031320309400831203130808B6
:101C5000F839033888008316031360088A150A12BE
:101C6000D922831603135F088A150A12D9228A150E
:101C70000A128312031389100000891483120313BC
:0A1C80000808F83900388800080051
:061C8A008312031325087C
:101C90008400A900831203132608031D552E831305
:101CA000000883120313AA000634013A031D5E2EB6
:101CB0008317000883120313AA000634033A031D96
:101CC0006B2E04088A150A126D258A150A128312D2
:101CD0000313AA00063404088A150A129F268A15DF
:041CE0000A120634AA
:0C1CE40083160313D31D0334831203176F
:101CF0005A08031D00348316031351118312031372
:101D0000260883120317DA00831203176B1083125D
:101D10000317940195018312031792019301831213
:101D20000313DE01831203179601970198018312B2
:0E1D30000313BC10831203170130D9000734CF
:021D3E00A03CC7
:101D4000FF3C013E203C03190034031C0034203CBE
:101D5000820728340A341B34FF3400345D340534E0
:101D60000F341434053401343C3496341434323492
:101D7000FF34FF34FF34FF34FF34FF3400340034C9
:101D8000003400344634003401340234003400346A
:021D90004834D5
:0E1D9200080083160313DD004130DE008316C7
:101DA00003134030940083120313203094008312F5
:101DB00003130808F83904388800831603135E08F3
:101DC0008A150A12D922831603135D088A150A128E
:101DD000D9228A150A12831203130808F839003829
:041DE000880008006F
:0C1DE400831203130130A90083120313C3
:101DF0002608003A031D042F8312031718088312C4
:101E00000313AA0006340F2F383E831203178313DF
:101E1000031B83178400000883120313AA000634EF
:101E2000831203130130A900831203132608003A1A
:101E3000031D222F83120317170883120313AA000E
:101E400006342D2F183E831203178313031B8317A9
:0C1E50008400000883120313AA0006346B
:041E5C0083120317D3
:101E60005A08031D0034831203133A1803348312F3
:101E7000031326088A150A1239258A110A12073413
:101E800083120313B91A0334831203132508A9001C
:101E90008400831203132608AA00831380000634EB
:101EA000831203175A08031D0034831203132608F4
:0E1EB00083120313D900831203133B16073469
:021EBE0083128D
:101EC00003132608013A031D692F83120313B91760
:0A1ED0006C2F83120313381007343F
:061EDA0001308312031326
:081EE000AA000330A90006343A
:081EE80083120313BA1607343C
:06200000521630313033AE
:0A2006008312031300308B008316D1
:1020100003138C00831603138D008A150A12A6255C
:102020008A110A1657258A150A1200208A110A16E3
:102030008D268A110A16831203138313031B831739
:10204000383084000408613A031929288001840A81
:1020500022283814831603130810831603138810DC
:10206000831603130811831203130808F839003884
:1020700088008A150A12C2228A110A168A110A16C3
:10208000FC218A110A168A150A120D268A110A16CF
:102090008A150A126E238A110A1683160313013059
:1020A000AA008A110A1209238A110A168A150A122D
:1020B000D1258A110A168A110A1237278A110A169F
:1020C0008A150A12C9268A110A168A150A12F821D7
:1020D0008A110A168A110A122B258A110A168312EE
:1020E00003138B170B1700308A150A1239258A1132
:1020F0000A1683120313FF30CA008A150A12BB2383
:102100008A110A16013083120313D90083120313B4
:102110003B168316031351158312031338118312D0
:102120000313B91F9428002883120313BA1EA3288F
:10213000BA12831203133819A2288A110A16C72269
:102140008A110A16B4288A110A1688238A110A16D7
:10215000831203133819B1288A110A16B4238A117D
:102160000A1683120313BA1683120313BA1FD32855
:10217000BA13831203171530DD008A150A121420D2
:102180008A110A16831203130A30E000E00BC628F6
:1021900083120317DD0BBD2883120313500883122B
:1021A0000313DA00E1288A150A1214208A110A168C
:1021B000831603132A18E1288A110A1277238A1139
:1021C0000A16831603132508831203135202031CF5
:1021D000F22883120313081283120313B811831217
:1021E0000313B81683120317DA0803191A29831682
:1021F0000313D31D0029831203170A30DC001A29A8
:1022000083120317DC08031D1A29831203133A1DD6
:102210000F2983120313B8141F30BE001429831230
:102220000313B8140430BE008A110A123C258A1127
:102230000A16DE29831203175A1C24298A110A164A
:10224000D9238A110A16DE2983120317DA1C2E29D4
:102250008A110A1251208A110A16DE2983120313E9
:1022600038118A150A12FE248A110A1683120313E2
:102270003B1E43293B128312031359088A150A1285
:1022800010228A110A1683120313BB1D5329BB1196
:1022900083120313081283120313B811831203135A
:1022A00088120000881683120313BB1CA529BB10DB
:1022B0003B15831203133F08831203136112E900D5
:1022C0006116831603132108831203134302031CB0
:1022D0008129031D73298316031320088312031316
:1022E0004202031C8129831603132008831603135B
:1022F000DF008316031321080F3983160313E00050
:102300008E2983120313420883160313DF008312FE
:10231000031343080F3983160313E00083160313D6
:102320005F0883120313DE00831603136008831211
:102330000313DF008A150A121D268A110A1683125A
:102340000313081683120313B815831203133B1DDE
:10235000BB2983120313611ABB29831203130812CA
:1023600083120313B8118312031388120000881616
:10237000831203133B1183120313BB1EC529BB1227
:102380008A110A1241278A110A16831203133B1F6E
:10239000CF293B138A110A1288278A110A16831241
:1023A0000313BB1FD929BB138A110A12D4278A1120
:1023B0000A168A150A12ED228A110A168F280800B9
:1023C00083120313831203130719DF2983160313E0
:1023D0000C128C1298128312031307118312031329
:0423E000BA14080023
:0C23E40083160313D400FF30013C0318E3
:1023F000F529D40BF529080083160313051283125F
:10240000031305120130F22183120313051608305D
:10241000F2218316031340309400831203132030FB
:102420009400831203130808F839053888004030F7
:102430008A150A12D9220030D9220030D922003060
:10244000D9220030D9220030D9220030D9220030E0
:10245000D9220030D9220030D9220030D9220030D0
:10246000D9220030D9220030D9220030D9220030C0
:10247000D9220030D9220030D9220030D9220030B0
:10248000D922831603130030D000D92283160313F8
:102490000430D100D9228A110A16831203130808C6
:1024A000F83900388800831203130808F839063811
:1024B000880040308A150A12D9220030D922FF3014
:1024C000D922FF30D9220030D9220030D922003061
:1024D000D9220030D9220030D9220030D922003050
:1024E000D9220030D9220030D9220030D922003040
:1024F000D9220030D9220030D9220030D922003030
:10250000D9220030D9228A110A168312031308082F
:10251000F83900388800831203130808F8390638A0
:10252000880041308A150A12D9221330D92200308E
:10253000D92283120313130883160313D200D9225E
:1025400083120313130883160313D3008A110A1688
:10255000831203130808F839003888008316031320
:1025600006168316031388158316031309118312A5
:1025700003130911831603138611831203138611A3
:102580008316031386128316031351110800831652
:1025900003134030940083120313203094008312FD
:1025A00003130808F8390538880040308A150A12E4
:1025B000D9220030D9220030D9220030D92200306F
:1025C000D9220030D9220030D9220030D92200305F
:1025D000D9220030D9220030D9220030D92200304F
:1025E000D9220030D9220030D9220030D92200303F
:1025F000D9220030D9220030D9220030D9228A11C4
:102600000A16831203130808F83900388800831269
:1026100003130808F8390638880040308A150A1272
:10262000D9220030D922FF30D922FF30D922003000
:10263000D9220030D9220030D9220030D9220030EE
:10264000D9220030D9220030D9220030D9220030DE
:10265000D9220030D9220030D9220030D9220030CE
:10266000D9220030D9220030D9220030D9228A1153
:102670000A16831203130808F83900388800080086
:102680008316031340309400831203132030940008
:10269000831203130808F8390638880041308A1578
:1026A0000A12D9221230D9220030D9228312031300
:1026B000130883160313D200D922831203131308BD
:1026C00083160313D3008A110A1683120313080812
:1026D000F83900388800831203130808F8390538E0
:1026E000880040308A150A12D9221230D922831666
:1026F00003135008D922831603135108D9228A11D3
:102700000A16831203130808F839003888000800F5
:102710008316031340309400831203132030940077
:10272000831203130808F8390638880041308A15E7
:102730000A12D9221230D9220030D922831203136F
:10274000130883160313D200D9228312031313082C
:1027500083160313D3008A110A1683120313080881
:10276000F8390038880008008316031340309400BD
:102770008312031320309400831203130808F839DE
:102780000538880040308A150A12D9221230D92221
:10279000831603135008D922831603135108D92234
:1027A0008A110A16831203130808F83900388800C2
:0227B00008001F
:0E27B200831203175908013A031D1B2C8316CE
:1027C0000313A41B2414831203133A11831203135B
:1027D000B813831203131930EF0083160313D111BA
:1027E00083120313CB01CC0183120313B9168A1190
:1027F0000A127C268A110A160319062C8312031367
:10280000B8140130BE008A110A123C2D8312031342
:10281000FF30CA008A150A1269238A110A16831624
:1028200003132B08831203136111E7006115831250
:102830000317D90A562D033A031DC12C8312031323
:1028400061192A2C83120313B8140330BE008A11B5
:102850000A123C2D83120313B81C312C8A110A1260
:102860003C2D83160313A41B462C831603132A083E
:10287000031D422C83160313401D08008316031307
:102880004115462C83160313521F080083120313AD
:10289000C11E4E2C831603135116512C831603139D
:1028A000511283120313411E592C83160313D116A0
:1028B0005C2C83160313D112831203134008831672
:1028C0000313DB008312031341080F39831603132C
:1028D000DC008A150A12E7258A110A1683120313EF
:1028E000430E07398A150A1239258A110A168316EA
:1028F00003132108831203134302031C972C031DA7
:10290000892C831603132008831203134202031C2D
:10291000972C83160313200883160313DF008316F6
:10292000031321080F3983160313E000A42C83122C
:102930000313420883160313DF00831203134308B3
:102940000F3983160313E000831603135F08831205
:102950000313DE0083160313600883120313DF00E2
:102960008A150A121D268A110A16831603132708D0
:10297000831203136111E700611583120317D90A4B
:10298000562D013A031D412D8312031361190800CE
:10299000831203133A158316031351148A110A166E
:1029A000B4238A110A1683160313D0148A110A1647
:1029B000B4238A110A1683120313440883120313E3
:1029C000AD0083120313450883120313AE008A156A
:1029D0000A128B238A110A168312031339128312E7
:1029E00003133A1783160313D1148A110A16B4235A
:1029F0008A110A16831203170F30DE0083120313A5
:102A0000BA153A12831603132208831203136110B6
:102A1000E5006114831203179001910183120313DF
:102A2000B81E1A2D83120313B8141B30BE008A116E
:102A30000A123C2D83120313520883120313DB0086
:102A400083120313BF1F2D2DBF13BC143F08831225
:102A50000313E110E600E114342DBC103F0883128B
:102A600003136111E70061158312031338158312F4
:102A70000313871483120313091583120317D90A4A
:102A8000562D073A031D562D83120317EB1C4C2DB0
:102A9000EB108A110A123C2D83120313B81F532D19
:0E2AA0008A110A123C2D8A110A128E2E08008D
:022AAE00831291
:102AB00003138313031B8317203084002D3A03195B
:102AC000662D00308000840A04085E2D83120313F3
:102AD0002430A3002830A200831603132F3099005E
:102AE00024309800831203138030980090309800AF
:102AF000831603130C128C169812831203134A3098
:102B000092009101831603138C10831603137D30FA
:102B10009200831603130711831203130711080091
:102B2000080083120313A0012308243A03199D2DE2
:102B30002308273A0319D02DDF2D9A1AEA2D1A08F7
:102B40001F39133A031DEA2DA016053040388312B1
:102B500003139200920E0310920C121583160313A6
:102B60008C14831203131A0883120313A101C039B2
:102B7000003A031DBD2D2114DF2D003A403A031DFC
:102B8000C32DA114DF2D403AC03A031DC92D2115D4
:102B9000DF2DC03A803A031DCF2DA115DF2DEA2D80
:102BA0001A08AC002408250626062C06031DEA2D6B
:102BB0002016831603138C12831203131812831327
:102BC000230884001A088000201AFD2DA30A8A1108
:102BD0000A123E2883120313A401A501A601A7012E
:102BE0002430A300831203138C1012119101831659
:102BF00003138C108A110A123E282430A30083127A
:102C000003138C1012119101831603138C1083127D
:102C100003132408A800A1191F2E2118132E21190F
:102C2000292EA118192E8A150A12FA238A110A16BA
:102C3000332E8A150A126F248A110A16332E831234
:102C400003132508A9008A150A1245268A110A16B7
:102C5000332E831203132508A9008A150A12402770
:102C60008A110A16332E83120313063A03193E2ED5
:102C7000063AAA00073A031DFF30A9008312031386
:102C8000280829062A06AB00452E831203130715D0
:102C9000831203132830A2008316031398160C1610
:102CA000542E83120313A0018313831203132208EB
:102CB00084002D3A031D6D2E83120313A101831688
:102CC000031398120C128C16831203131816831216
:102CD000031307118A110A123E28831203130008F6
:102CE0009900A20A8A110A123E2883120313A00136
:102CF0008312031312119101831203138C10831298
:102D000003132430A300A0018A110A123E2883165F
:0A2D100003130C128C129812080035
:062D1A0083120313E10126
:102D2000E201E301E401E501E601E701E801E9016F
:102D3000EA01EB01EC0183160313811101118110EB
:102D4000011481128B16831203130930E20008006C
:102D500083160313D31BB12E83120317900FB12ECA
:102D6000910A83120313611CB82EE50BB82E611073
:102D7000831203136208E20A003A031DC62E83126F
:102D80000317E9080319C52EE903252F023A031D8D
:102D9000DE2E831203175A19DD2E83120317DA1958
:102DA000DD2E83120313391EDD2E83120317DB037E
:102DB000031DDD2E831203133912252F013A031D43
:102DC000F22E83120313E11DE82EE80BE82EE11129
:102DD00083160313D319F12E83120317DC08031D86
:102DE000DC03252F073A031DFD2E83160313411C18
:102DF000FC2EC50BFC2E4110252F023A031D022F7D
:102E0000292F252F013A031D212F83120313E11CC3
:102E10000C2FE60B0C2FE11083120313BA1D202F89
:102E200083120317DE03031D202F83120313BA112D
:102E3000831203133A1E202F3A1283160313D11064
:102E4000252F0F3A031D252FE2010B118A110A12BB
:102E50003E28831203136308E30A003A031D382F48
:102E600083120313611D372FE70B372F6111742F66
:102E7000023A031D432F83120313E11F422FEC0B71
:102E8000422FE113742F013A031D4E2F83120313B7
:102E9000611E4D2FE90B4D2F6112742F073A031D50
:102EA000592F83160313C11C582FC60B582FC1105E
:102EB000742F013A031D5D2F742F033A031D682FF1
:102EC00083120313E11E672FEA0B672FE112742FA1
:102ED000013A031D6D2F782F742F0E3A031D742FA6
:102EE000E301831203133B140B118A110A123E28CB
:102EF000831203136408E40A003A031D852F83122A
:102F000003130608203A86009D2F013A031D8E2FD9
:102F10008A150A12CD238A110A169D2F043A031D21
:102F2000992F83120313611F982FEB0B982F6113B6
:102F30009D2F0F3A031D9D2FE4010B118A110A12D8
:102F40003E2883120313EE00ED01ED0BA52FEE0BCF
:042F5000A52F0800A1
:0C2F5400831203130130A9008312031341
:102F60002608003A031DBC2F831603135208831250
:102F70000313AA000634F22F013A031DC72F83164C
:102F80000313530883120313AA000634F22F033AE3
:102F9000031DD22F83160313500883120313AA00B4
:102FA0000634F22F013A031DDD2F83160313510857
:102FB00083120313AA000634F22F073A031DE82FE9
:102FC000831203176E0883120313AA000634F22F2C
:102FD000013A031DF22F831203176F0883120313A4
:062FE000AA0006340234D1
:0A2FE60083120313BE0183120313CC
:042FF000B8100734DA
:082FF40083120313B817073420
:022FFC000800CB
:022FFE00073496
:02400E00713F00
:1042000028000A001B00FF0000005D0005000F00F1
:104210001400050001003C00960014003200FF006D
:10422000FF00FF00FF00FF00FF0000000000000093
:1042300000004600000001000200000000004800ED
:00000001FF
