<0x5068,1.4>
:020000040000FA
:060000008A110A12402AD9
:080008008B13FF0003088312B3
:100010000313F1000A08F2000408F4008316031326
:10002000010883120313F300831203130C08F50075
:100030000D08F600831603130C0883120313F5054D
:10004000831603130D0883120313F6058A110A128F
:10005000F5189D298A110A12F51A5E2C8A110A12C6
:10006000751A242D8A110A127618482D8A110A163B
:100070008B1E3B280B1914288B133D288312031366
:100080007408840072088A007308831603138100C1
:0E0090008312031371088300FF0E7F0E090018
:02009E0000342C
:0200A00000342A
:0E00A20083160313071683120313CE01CF013A
:1000B000D001D5012030EB21080083120313B818BA
:1000C0000800831203134E190800831203134E1CF9
:1000D0006B280230382A83120313071AE52883128B
:1000E00003139201921583120313970183120313D2
:1000F0008C10C330EB2183160313260883120313DD
:10010000D100831603132608831603139200831667
:100110000313280883120313D4008316031327083C
:1001200083120313D20083120313520883120313A2
:10013000D30083160313290883120313D6008312F6
:100140000313FF30D500831203134E144E17CE1540
:10015000831603138C14831203131215DD218312EB
:100160000313CE1CB528CE01080083120313003000
:10017000D000FF30CF0083120313920112168312B6
:1001800003138C10CB30EB21831603132A08831240
:100190000313D100831603132A0883160313920056
:1001A00083120313FF30D500831203134E14CE16AF
:1001B000831603138C14831203131215DD2183128B
:1001C0000313CE1CE528CE01080010298312031367
:1001D00092011216831203138C10DB30EB2183166D
:1001E00003132A0883120313D100831603132A086A
:1001F00083160313920083120313FF30D50083127A
:1002000003134E144E16831603138C148312031318
:100210001215DD2183120313CE1C1029CE01080014
:10022000831203134E15080083120313B818080035
:1002300083120313CE1B0800831203134E1C2229C2
:100240000330382A831203134E1D5D2083160313D7
:10025000240883120313CF00831603132508831287
:100260000313D00083120313920192158312031318
:100270009701831203138C10D330EB2183160313E1
:10028000260883120313D10083160313260883164E
:100290000313920083160313280883120313D40058
:1002A00083160313270883120313D2008312031348
:1002B000520883120313D3008316031329088312F1
:1002C0000313D60083120313FF30D50083120313E8
:1002D0004E144E17CE16831603138C148312031379
:1002E0001215DD2183120313CE1C7829CE010800DC
:1002F00083120313CE17080083120313D50B8C2926
:10030000831603138C108312031312118312031329
:10031000CE01CE140130382A831203134E1F080079
:10032000D30B08005208D300D408031D99294E139B
:1003300008005608D102D4030800831203135108A1
:1003400083160313920083120313CE1AB529831266
:100350000313CE1DB02983120313071ACE29B42923
:1003600083120313071ECE29BF29831203134F08DC
:1003700050040319CE290130CF02031CD00383128D
:100380000313071500000000000083120313071178
:10039000831203138C108A110A123E28831603134A
:1003A0008C1083120313121183120313CE018312D4
:1003B00003138C108A110A123E28831203134E185D
:1003C000DD2983120313CE1CE8292030EB2108001D
:1003D0004230EB21080083120313880083120313B9
:1003E00009148A110A16B2208A110A128312031301
:1003F00009100800831203134E1808008312031318
:10040000CF00D001DB30EB210F2A831203134E18EB
:10041000080083120313CF00D001CB30EB218312ED
:10042000031392011216831203139701831203130D
:100430008C10831603132A0883120313D10083162A
:1004400003132A0883160313920083120313FF3049
:10045000D500831203134E14CE16831603138C1487
:10046000831203131215DD2183120313CE0108003A
:1004700083120313B814BB0083120313061408007D
:100480008312031300308B00831603138C00831632
:1004900003138D00831203138313031B8317383058
:1004A000840004084E3A0319582A8001840A512A0C
:1004B000831603138313031B8317B53084000408CA
:1004C000B73A0319662A8001840A5F2A8A110A163C
:1004D0002D238A110A1679218A110A1227248A11DA
:1004E0000A12831603130030880083120313880155
:1004F00083160313091083120313091083160313C1
:1005000089108312031389108316031309118312B0
:100510000313091183160313871083120313871023
:100520008316031385128312031385128316031394
:100530000710831203130710831603138611831207
:1005400003138611831603138614831603130615EB
:10055000831603130516831603130614831203135D
:1005600006108A110A1279278A110A128A110A16AC
:1005700003208A110A1283120313B8018312031392
:100580008B170B1783120313B91783120313B91FA9
:10059000CB2A6400C52A83120313CD158A110A12CF
:1005A000AC238A110A128A110A1251208A110A12E6
:1005B0008A110A12D0238A110A128A110A1264259A
:1005C0008A110A128A110A16C1208A110A12BE2340
:1005D000AC23831203133A1CF92A831203130A3043
:1005E000E5005F145F18F22A831203138B130B13B9
:1005F000402A83120313B91AE4238A110A168D21A3
:100600008A110A1283120313381D9C2B83120313C1
:100610003C1C462B3A15831203134B08003A031D6A
:100620001B2B83160313200883120313E800E70132
:100630006714412B412B013A031D282B831603130A
:10064000210883120313E800E701E714412B412B33
:10065000033A031D352B8316031322088312031359
:10066000E800E7016715412B412B013A031D412B9F
:1006700083160313230883120313E800E701E71529
:10068000412B8A110A16C7208A110A1283120313FA
:10069000BC1C572B3A11831203134B08831203130C
:1006A000E800E7018A110A16C7208A110A1283128C
:1006B00003133C1D602B8A110A125D208A110A1255
:1006C00083120313BC1D692B8A110A1214218A118B
:1006D0000A12831203133C1E752B831203134B085B
:1006E0008A110A12FA218A110A1283120313BC1EFC
:1006F000812B831203134B088A110A1205228A11D7
:100700000A12831203133C1F8D2B831203134B0811
:100710008A110A1286278A110A1283120313BC1F38
:10072000962B8A110A1277258A110A128312031353
:10073000BC0183120313381183120313B91DA12BBB
:10074000BE2383120313391EA62BAC238A110A126F
:10075000D1278A110A12E92A831203134D08831242
:10076000031388008312031385168A110A16B22018
:100770008A110A12831203138512080083120313CD
:100780004A088312031388008312031307148A1183
:100790000A16B2208A110A128312031307100800E6
:1007A000831603130711831603137F3092008312FD
:1007B0000313003095002030970004309200170892
:1007C0000C389700071108008312031306148316D0
:1007D00003133508831203134C06031D162C8312D2
:1007E0000313BA18052C8316031335088400031D60
:1007F000FF2B8A110A1639238A110A12042C8A1136
:100800000A1601238A110A12162C831603133508BF
:100810008400031D112C8A110A164D238A110A1215
:10082000162C8A110A1643238A110A128312031303
:10083000B91283160313B501FF3083120313CC00E2
:0E0840008312031306108312031338110800ED
:02084E00831213
:1008500003138313031B83172B308400383A0319C7
:10086000362C00308000840A04082E2C83120313D7
:100870002F30AE003330AD00831603132F309900B4
:100880002430980083120313803098009030980031
:10089000831603130C128C16981283120313003064
:1008A00090051D080A389D008E018F0183160313E1
:1008B00006128312031306120800080083120313A2
:1008C000AB012E082F3A03196A2C2E08323A03196D
:1008D000A12CB02C9A1ABB2C1A081F39153A031DEB
:1008E000BB2CAB1683120313FF309B000530F0388E
:1008F000831203139C009C0E03109C0C101483168F
:1009000003130D14831203131A0883120313AC018B
:10091000C039003A031D8E2C2C14B02C003A403AFA
:10092000031D942CAC14B02C403AC03A031D9A2CF1
:100930002C15B02CC03A803A031DA02CAC15B02C5D
:10094000BB2C1A08B7002F08300631063706031DE6
:10095000BB2C2B16831603138C128312031318124D
:1009600083132E0884001A0880002B1ACF2CAE0A9D
:100970008A110A123E2883120313AF01B001B1019C
:10098000B2012F30AE00831203130D1010108E0130
:100990008F01831603130D108A110A123E282F307F
:1009A000AE00831203130D1010108E018F018316F9
:1009B00003130D10831203132F08B300AC19F22C8C
:1009C0002C18E62C2C19FC2CAC18EC2C8A110A16CD
:1009D00015228A110A12062D8A110A1675228A1109
:1009E0000A12062D831203133008B4008A110A1666
:1009F00058238A110A12062D831203133008B400FB
:100A00008A110A166C248A110A12062D8312031306
:100A1000063A0319112D063AB500073A031DFF30B7
:100A2000B40083120313330834063506B600182DBC
:100A3000831203130616831203133330AD0083169B
:100A4000031398160C16272D83120313AB0183137F
:100A5000831203132D088400383A031D402D83129E
:100A60000313AC018316031398120C128C16831215
:100A7000031318168312031306128A110A123E2852
:100A80008312031300089900AD0A8A110A123E2846
:100A900083120313AB01831603130D108312031388
:100AA0000D108312031310108E018F018312031394
:100AB0002F30AE00AB018A110A123E2883160313B1
:080AC0000C128C1298120800C0
:080AC800831603138715831642
:100AD0000313871683120313D701D717DA01DB013B
:100AE000D801D90120306D2620305E2608008312FF
:100AF0000313B81183120313D701831603132C08B1
:100B00002E020318852D2E08862D2C088312031320
:100B1000DB00DA01831603132B0883120313D900B9
:100B2000D8018312031392018312031397018312D6
:100B30000313D7165716CF305E26DF306D2683128B
:100B40000313831203133230DD005717831203138C
:100B5000871DB22D83120313D71EB12DD712423039
:100B60005E26BA2D83120313571BBA2D20305E2642
:100B700007307C2E83120313871EC62D83120313A6
:100B8000571EC52D571242306D26CE2D83120313EA
:100B9000571BCE2D20306D2606307C2E831203137A
:100BA000570830390319D62D8726A62D8312031333
:100BB000C830DC00CF305E26DF306D2687268312FA
:100BC0000313DC0BDE2D83120313D7165716DF3009
:100BD0005E26CF306D268312031383120313323047
:100BE000DD005717831203138719FE2D8312031399
:100BF000D71EFD2DD71242305E26062E8312031318
:100C0000571B062E20305E2607307C2E83120313DE
:100C1000871A122E83120313571E112E57124230B9
:100C20006D261A2E83120313571B1A2E20306D26A1
:100C300006307C2E83120313570830390319222EF5
:100C40008726F22D831203135713D7165716CF306A
:100C50005E26DF306D2683120313571E3D2E83124E
:100C6000031358085904031D392E571242306D26BC
:100C70003D2E0130D802031CD90383120313D71E63
:100C80004F2E831203135A085B04031D4B2ED712F9
:100C900042305E264F2E0130DA02031CDB03831242
:100CA0000313570830390319572E87262B2E83122A
:100CB0000313D70183120313B8150800831203131B
:100CC00088008312031389148A110A16B2208A112C
:100CD0000A12831203138910080083120313880079
:100CE0008312031309158A110A16B2208A110A12F7
:100CF000831203130911080083120313B814BB00F5
:100D000083120313061483120313D71708008312E8
:100D10000313071500000711000007150000071155
:040D200000000800C7
:0C0D2400831203132608A002031CA10385
:100D30002708A102031CA20308008312031326083C
:100D4000A002031CA1032708A102080083120313B9
:100D5000A2012608A0070318A10A2708A107031863
:100D6000A20A080083120313A101A00C0318A10713
:100D7000A10CA00C0318A107A10CA00C0318A1073B
:100D8000A10CA00C0318A107A10CA00C0318A1072B
:100D9000A10CA00C0318A107A10CA00C0318A1071B
:100DA000A10CA00C0318A107A10CA00C0800831231
:100DB0000313A201A8001030AA0028080310201C69
:100DC000E22EA207A20CA10CA00C0310AA0BDF2E8E
:100DD000080083120313A301A8001830AA002808F2
:100DE0000310201CF42EA307A30CA20CA10CA00C32
:100DF0000310AA0BF12E080083120313A600A20110
:100E00000830AA00210DA20D2608A20203180A2FFD
:100E1000A2070310A10DAA0B022FA8010830AA00F7
:100E2000200DA20DA80D2608A202A9010301031C92
:100E3000290FA8020318242F2608A207A9010301DD
:100E40000318290FA8070310A00DAA0B102F0800E4
:100E500083120313A600A3011830AA00200DA10DD0
:100E6000A20DA30DA00D2608A30203182014201C18
:100E7000A307AA0B2E2F080083120313A301A401BA
:100E80001830AA00200DA10DA20DA30DA40DA00DD8
:100E90002608A3022708031C270FA4020318201406
:100EA0002018552FA4072608A307AA0B422F0800D5
:100EB000831203132030AA00A501A4010310A00D82
:100EC000A10DA20DA30DA40DA50D03186F2F2708CA
:100ED0002502031D6D2F26082402031C762F2608E9
:100EE000A402031CA5032708A5022014AA0B5E2F49
:020EF0000800F8
:0E0EF2008316031305168316031305118312CE
:100F00000313051183120313EB010800831203136B
:100F1000EC00831203136C1F9D2F8312031305151E
:100F2000831203136B1483120313EC1F9C2F8A117B
:100F30000A1214218A110A12AE2F8312031305110B
:100F4000831203136B10EB10ED0183120313EC1FDC
:100F5000AE2F8A110A125D208A110A12831203131E
:100F60006C083F3903190800ED00EB1408008312E8
:100F700003133819080083120313ED03031D08003F
:100F8000EB108312031338153C1783120313CB01A4
:100F9000080083120313B814BB0083120313061452
:100FA000080083120313051EDE2F831203136B192F
:100FB000DD2F6B15EB153230EE00E62F8312031395
:100FC0006B1DE62F6B11EB153230EE00831203130D
:100FD000EB1D080083120313EE08031D0800EB113C
:100FE000831603132D08C0388A110A1286278A1126
:040FF0000A120800D9
:06200000521630313034AD
:0A20060083160313811101118110EC
:10201000011481128B16831203130A30E0000A3078
:10202000E1000A30E200080083120313B91C4228C1
:1020300083120313630803191F28E3034228831242
:10204000031383120313391927284708282848083F
:1020500083160313120603193F2883120313391939
:102060003528831603139203382883160313920A24
:1020700083120313490883120313E30042288312D7
:102080000313B91083120313E00BA7280A30E000F2
:1020900083120313EB1D4F28EE08031DEE0383127A
:1020A00003134E1C58288A110A127C218A110A1621
:1020B00083120313671E5F28EA0303196712831252
:1020C0000313E10BA7280A30E10083120313571F03
:1020D0006C28DD0303195713831203134D080739C6
:1020E00083120313E4003E3E8400831203133D0871
:1020F000831203138000831203134D08F839CD00B7
:1021000083120313640A0739CD0483120313B9132E
:1021100083120313B9153916831203135F1C932816
:10212000E50303195F1083120313E20BA7280A309B
:10213000E200831203130608083A86008312031391
:10214000EB1CA7288A110A12B7278A110A160B114D
:102150008A110A123E28831203130430E400E40BB0
:10216000AF280800831203132830E400E40BB628DC
:102170000800831203130A30A000B220A00BBD2870
:02218000080055
:0E21820083120313E70120303A210800831274
:1021900003130F30E7056716E713831203133A1D85
:1021A000D628E717831203130A30E8074921831260
:1021B0000313FF30EA0083120313671AE528E701CF
:1021C00020303A210430712108008A110A168D212D
:1021D0008A110A1683120313680866026717031828
:1021E000F5286713E900E909690AE90003192629B6
:1021F0006908E039003A031D012983120313B91459
:10220000391583120313E71ADB28831203136716A9
:10221000E71683160313053092008312031301306F
:10222000C700831203130330C800831203133C302A
:10223000C90083120313B914391183120313671BE6
:102240002329CF302429DF303A21DB2883120313DE
:10225000E71F3329E713E71242303A2183120313B1
:102260000A30E802DB28831203130F30E7054230FF
:102270003A21080083120313880083120313871482
:102280008A110A16B2208A110A16831203138710C4
:10229000080083160313FF309200831203130030EB
:1022A0009500203097000730920017080C389700EF
:1022B000071108008312031367080F390319080078
:1022C000831203136808660203186929E900E90903
:1022D000690AF839003A03190800E701053071214D
:1022E000080083120313B814BB00831203130614EF
:0222F0000800E4
:0E22F2008316031305080B38850083160313AB
:1023000004309F00831203139F019F171F1483162D
:102310000313B201B301B40108008316031332089A
:10232000003A03199529B2030800831203131F19F9
:102330000800831603133418A529B418CA29B41940
:10234000EF29B401B415B30108003319BE29B3183D
:10235000B929831603139F13831203139F121F12AD
:102360009F1183160313B314831603130230B200B4
:1023700008003315831203131F150800831203137B
:102380001E0883120313E60083160313B401B4146A
:10239000B30108003319E329B318DE2983160313A8
:1023A0009F13831203139F121F129F15831603138B
:1023B000B314831603130230B200080033158312DE
:1023C00003131F150800831203131E08831203133F
:1023D000BD0083160313B401B415B301080033190B
:1023E000082AB318032A831603139F1383120313B7
:1023F0009F121F169F1583160313B314831603131E
:102400000230B20008003315831203131F150800B1
:10241000831203131E0883120313C60083160313CB
:0A242000B4013414B30108000800F1
:06242A00831203133008C9
:102430001F39013A031D1F2A8A110A165D2C013A21
:10244000023A031D262A8A110A16822C023A033AFE
:10245000031D2D2A8A110A16782C033A043A031D0B
:10246000342A8A110A16E72B043A053A031D3B2A3F
:102470008A110A16D12B053A063A031D422A8A11FF
:102480000A16A12B063A073A031D492A8A110A1691
:10249000BA2B073A083A031D502A8A110A16882ACD
:1024A000083A093A031D572A8A110A16272C093AB5
:1024B0000A3A031D5E2A8A110A163A2C0A3A0B3A86
:1024C000031D652A8A110A16122C0B3A0C3A031DB9
:1024D0006C2A8A110A16FD2B0C3A0D3A031D732A39
:1024E0008A110A164D2C0D3A04348312031338193D
:1024F00000343815BC1783120313300883160313F6
:10250000AB0083120313310883160313AC000734A6
:1025100083120313B81803348312031338190034D9
:10252000831203133108003A031D9E2A83120313FA
:10253000660883160313A000F32AF32A013A031D49
:10254000A92A83120313660883160313A100F32A32
:10255000F32A033A031DB42A831203136608831671
:102560000313A200F32AF32A013A031DBF2A8312A0
:102570000313660883160313A300F32AF32A073A0A
:10258000031DD52A831603130130AF0083160313EE
:10259000B50183120313CC0183120313BA10B916C9
:1025A000831203133815F32AF32A013A031DEB2A89
:1025B000831603130030AF0083160313B501831293
:1025C0000313CC0083120313BA10B916831203133A
:1025D0003815F32AF32A033A031DF12A0734F32AA4
:0825E000F32A0234F32A073448
:0825E800831203178D00A030DF
:1025F0008D02831603178C130C14831203170C0817
:1026000008008313831603178C18042B0408831205
:1026100003178D00A0308D0283120313000883126C
:1026200003178C00831603178C130C158B1B212B9F
:1026300055308D00AA308D008C140C118C181E2B77
:1026400008008B1355308D00AA308D008C140C11AE
:102650008C18282B8B17080008008313A0308400E7
:102660000408F4228000840A0408B23A031D302BC7
:1026700008008313A03084000123840A0408B03AC0
:10268000031D3C2B0800831313308A0004088523A4
:102690008A110A168000012308008313A0308400E9
:1026A0004323840A0408B03A03190800502B080099
:1026B0008312031330088400B4008312031331081B
:1026C000031D682B8313000883120313B50006341F
:1026D000013A031D712B8317000883120313B50001
:1026E0000634033A031D7E2B04088A110A16F422CD
:1026F0008A110A1683120313B500063404088A11DE
:0A2700000A1685238A110A16063412
:06270A00A03CFF3C013E73
:10271000123C03190034031C0034123C820722349B
:102720006234A234E034FA340534C8340134143449
:102730000434FF34003400341434323400340034B0
:02274000003463
:0E27420083120313671A00348312031338192D
:1027500000348312031331080C39031D0234831231
:1027600003133C1438158312031331088312031327
:04277000CB0007345F
:0C27740083120313B818033483120313FC
:10278000671A0034831203133819003483120313B9
:10279000BC14381583120313310883120313CB00C2
:0227A0000734FC
:0E27A20083120313B91A00348312031338197B
:1027B000003483120313310883160313B500831208
:0E27C0000313CC0083120313BA10B9160734AA
:0227CE00831274
:1027D0000313B91A00348312031338190034831217
:1027E0000313310883160313B50083120313CC00BF
:0A27F00083120313BA14B91607345C
:0627FA00831203134E18C8
:10280000003483120313BC1A0734831203133819DC
:1028100000343815BC1683120313310883120313D6
:04282000CB000734AE
:0C282400831203134E18003483120313B8
:102830003C1A0734831203133819003438153C1638
:0E28400083120313310883120313CB000734F5
:02284E008312F3
:1028500003134E190734831203134E1800348312E6
:1028600003133C1907348312031338190034381545
:042870003C150734D8
:0C287400831203134E1800348312031368
:10288000CE1B073483120313BC19073483120313BE
:0A289000381900343815BC15073460
:06289A008312031338193C
:1028A000003438153C1783120313310883120313C5
:0A28B000CB0083120313EB10073472
:0628BA0083120313310834
:1028C000013A031D682C831203133A1438156B2C3C
:0828D0008312031338100734D2
:0828D800831203133008B40061
:1028E0008400831203133108B5008313800006347B
:1028F00083120313BB0183120313B8108312031353
:042900000610073482
:0C290400013083120313B5000430B4004E
:0229100006348B
:02400E00723FFF
:1042000022006200A200E000FA000500C8000100E0
:1042100014000400FF000000000014003200000041
:04422000000000009A
:00000001FF
