<0x1103,1.2>
:020000040000FA
:060000008A110A124D28CE
:020006000734BD
:080008008B13FF0003088312B3
:100010000313F1000A08F2000408F4008316031326
:10002000010883120313F300831203130C08F50075
:100030000D08F600831603130C0883120313F5054D
:10004000831603130D0883120313F6058A110A128F
:10005000F51A172D8A110A12751ADD2D8A110A1246
:100060007618012E8A110A128B1E37280B19092BBC
:100070008B133928831203137408840072088A00D2
:10008000730883160313810083120313710883001E
:06009000FF0E7F0E0900C7
:0400960000340034FE
:06009A0083120313003085
:1000A0008B00831603138C00831603138D008A11B3
:1000B0000A169B258A110A12831603130230A00028
:1000C0000530C2008A110A12E0248316031332306D
:1000D00099002030980083120313203090008A1179
:1000E0000A16E2218A110A16B8228A110A168123F9
:1000F0008A110A162D278A110A16D9248A110A167E
:100100000E278A110A128316031381110115811417
:10011000011081128B16831203138313031B8317A1
:10012000203084000408463A031999288001840A83
:100130009228831203132516831603137D30D600ED
:1001400083160313E20183160313081583160313A2
:1001500007128312031307128316031387158316DE
:1001600003138716831603130817831603138615C4
:1001700083160313881283160313081283120313C2
:1001800008128812831203138B170B17FF30831288
:100190000313A600831603132B0883120313B40062
:1001A000831203136430BF0083120313241FDD285E
:1001B0008A110A1604208A110A1283120313221EBE
:1001C000E2284D2883120313351C202935083906EF
:1001D000031D17298316031351086106031D1729F0
:1001E00083120313B51806298316031351088400DC
:1001F000031D00298A110A16A7258A110A1205294A
:100200008A110A166F258A110A12172983160313F9
:1002100051088400031D12298A110A16BB258A1170
:100220000A1217298A110A16B1258A110A12831295
:100230000313B501B90183160313E101FF30D100A7
:1002400083160313620803194129621C302983169F
:10025000031363088A110A1640248A110A123E29E0
:10026000E21C37298A110A1286238A110A12621D9A
:100270003E298A110A1638268A110A128316031398
:10028000E2018A110A1601268A110A128A110A1637
:10029000CC228A110A1682238A110A16E4238A11B3
:1002A0000A128312031321138316031330088312D7
:1002B00003132D02031D6229831603132F088312D3
:1002C00003132C0283120313031821178312031341
:1002D00044186C2922107F29221083160313290841
:1002E000831203132D02031D7B2983160313280891
:1002F000831203132C0283120313031C2214831290
:100300000313251083120313A11C972983160313CB
:100310002E08831203133102031896298312031344
:100320002514A11021112112A112A111AF298316A8
:1003300003134108831203133102031CAF298312F4
:100340000313A1142514831203132C08831203131F
:10035000AE00831203132D0883120313AF00831220
:10036000031321128316031344088312031331026B
:100370008312031303182116831203130819C329C8
:1003800083120313271683120313261CCC298A1108
:100390000A1603258A110A1283120313221DD52976
:1003A0002211831203135217D21783120313A21DB3
:1003B000DE29A211831203135217D21383160313DB
:1003C0004708831203132705031DA0178312031385
:1003D000A01FF0298A110A163A278A110A12F22A56
:1003E000831203132018042A83120313871AFC298B
:1003F000622383120313201483120313081B042A9D
:10040000622383120313201483120313A51E3D2AB3
:10041000831603135A15DA11DA1483120313521FC9
:10042000312A83120313D21F1D2A83160313C30814
:100430000319312A0A30C302212A831603130A3012
:10044000C30783160313430844020318292A4408E8
:10045000C3008316031343084A02031C312A4A08C7
:10046000C3008A110A1670228A110A12831203131A
:10047000A51F3C2AA5136223F22A83120313201C12
:10048000562A831603135A11DA115A10DA108A11F8
:100490000A1670228A110A1283120313871EF22A87
:1004A00083120313081FF22A6223F22A8312031312
:1004B000A01E662A831603135A11DA115A10DA1095
:1004C0008A110A1653268A110A12F22A831203137A
:1004D000A01D762A831603135A11DA115A14DA1062
:1004E0008A110A12E7268A110A12F22A83120313CA
:1004F000201D9C2A831603135A11DA115A14DA109C
:100500008A110A12E3238A110A1283120313211A91
:10051000622383120313521B62238A110A166C266C
:100520008A110A12831203136D1C9B2A8A110A1660
:1005300038268A110A12F22A83120313201EBE2AB9
:10054000831603135A11DA115A14DA108A110A1693
:10055000A0248A110A1283120313521B62238A11E8
:100560000A166C268A110A1283120313ED1CBD2A87
:100570008A110A1638268A110A12F22A83120313E4
:10058000201BC72A8A110A121D268A110A128312F9
:100590000313201FF22A83120313A11383160313DC
:1005A0005A11DA115A14DA108A110A1253268A11D2
:1005B0000A1283120313A118E32A83120313A51F3F
:1005C000E32AA513A51683120313521FED2A8A11DD
:1005D0000A126626E7268A110A128A110A166C2662
:1005E0008A110A12831203132618FD2A8312031399
:1005F000081283160313DA10082B831603135A1CF0
:10060000052B831203130816082B831203130812F9
:10061000D42883160313D2080319102BD203132BEB
:1006200083120313A30183160313D308031DD303FB
:100630008A110A1692228A110A126D238A110A124D
:10064000831603135A1D3A2B83160313DA1D362B18
:1006500083160313DC0B3D2B3C30DC0083120313A9
:10066000881E342B8812352B8816392B83120313DE
:1006700088163D2B83120313881283160313D60B9F
:100680005E2B7D30D60083120313071E492B071201
:100690004A2B071683160313DA1C552B83160313F4
:1006A0005A1C542B5A10552B5A1483120313A11899
:1006B0005E2B83160313E008031DE0030B118A1160
:1006C0000A123A28831203132011A0112012A0123B
:1006D00020132010A512A010080083120313A51BDD
:1006E000080083120313861D812B83120313BF0B93
:1006F0000800831203136430BF0083120313A5178D
:0C070000852B831203136430BF00080037
:04070C00831203133E
:100710002218080083120313A1178312031344182D
:10072000080083120313A11CB62B83120313441871
:10073000080083120313310883160313EE00831697
:1007400003133C0883160313D400831603136D08A8
:100750008A110A1652228A110A12831603133B08C1
:100760008A110A1622228A110A12D72BC830831640
:100770000313D30083120313A51425112111A11112
:1007800083160313EE01831603133808831603132D
:10079000D40083160313420883160313ED00831657
:1007A000031337088A110A1622228A110A128312A9
:1007B0000313A1128A110A1262238A110A128312E8
:1007C00003132015080083120313521BDA2C831223
:1007D0000313A118112C83120313A51C0800831600
:1007E00003133608831203132D02031DFD2B8316FA
:1007F00003133508831203132C020318102C8312E1
:100800000313A510831603133A0883160313D400A9
:100810008316031339088A110A1622228A110A1232
:10082000080083120313441C1B2C8A110A16702221
:100830008A110A12DA2C83120313251C752C8312D9
:100840000313A11C712C83120313A117831203132A
:100850004418080083120313A11C4F2C83120313A6
:100860004418080083120313310883160313EE00A3
:10087000831603133C0883160313D4008316031353
:100880006D088A110A1652228A110A12831603135E
:100890003B088A110A1622228A110A12702CC830CB
:1008A00083160313D30083120313A51425112111FA
:1008B000A11183160313EE01831603133808831660
:1008C0000313D40083160313420883160313ED00A9
:1008D0008316031337088A110A1622228A110A1274
:1008E000752C83120313A116DA2C831203136308E9
:1008F00083160313ED00831603136D088316031389
:10090000EB0083120313A61E892C831203132119F3
:100910000800831603134308831203133102031CD8
:10092000952C831203132115DA2C83120313251936
:10093000080083120313261EA12C83120313A1198E
:10094000080083120313261D0800831603134508AD
:10095000831203133102031C0800831203132E08B1
:1009600083120313C500831203132F08831203138A
:10097000C600831203132C0883120313CB008312C7
:1009800003132D0883120313CC008A110A160621C3
:100990008A110A12831603134608831203134502B1
:1009A0000318D62C83120313A115DA2C8312031318
:1009B000251508008A110A1262238A110A120800FA
:1009C000831203138313031B831754308400613A8B
:1009D0000319EF2C00308000840A0408E72C8312EE
:1009E00003135830D7005C30D600831603132F3022
:1009F00099002430980083120313803098009030BF
:100A00009800831603130C128C169812831203138A
:100A1000003090051D080A389D008E018F01831655
:100A20000313081083120313081008000800831230
:100A30000313D4015708583A0319232D57085B3A7A
:100A400003195A2D692D9A1A742D1A081F39113A53
:100A5000031D742DD41683120313FF309B00053041
:100A6000F038831203139C009C0E03109C0C10148E
:100A7000831603130D14831203131A08831203132E
:100A8000D501C039003A031D472D5514692D003A90
:100A9000403A031D4D2DD514692D403AC03A031D2F
:100AA000532D5515692DC03A803A031D592DD51582
:100AB000692D742D1A08E000580859065A06600678
:100AC000031D742D5416831603138C128312031303
:100AD00018128313570884001A088000541A882DAE
:100AE000D70A8A110A123A2883120313D801D901AE
:100AF000DA01DB015830D700831203130D101010F8
:100B00008E018F01831603130D108A110A123A28E1
:100B10005830D700831203130D1010108E018F016F
:100B2000831603130D10831203135808DC00D51924
:100B3000AB2D55189F2D5519B52DD518A52D8A11FA
:100B40000A1258278A110A12BF2D8A110A12D427B5
:100B50008A110A12BF2D831203135908DD008A116E
:100B60000A169C268A110A12BF2D831203135908F4
:100B7000DD008A110A16EC268A110A12BF2D831293
:100B80000313063A0319CA2D063ADE00073A031D7D
:100B9000FF30DD00831203135C085D065E06DF0094
:100BA000D12D831203130814831203135C30D60073
:100BB0008316031398160C16E02D83120313D40129
:100BC00083138312031356088400613A031DF92D21
:100BD00083120313D5018316031398120C128C167B
:100BE0008312031318168312031308108A110A12B2
:100BF0003A288312031300089900D60A8A110A12B0
:100C00003A2883120313D401831603130D108312A1
:100C100003130D108312031310108E018F01831222
:100C200003135830D700D4018A110A123A288316C8
:0A0C300003130C128C129812080036
:060C3A0083120313441CA9
:100C40002A2E8A110A1670228A110A128316031399
:100C5000EC014A2E83120313A11A452E83120313AB
:100C6000A11C452E643083120313310203183C2E5D
:100C70008316031320083F2E8316031342088A119C
:100C80000A1652228A110A124A2E8A110A16702254
:100C90008A110A128A110A1262238A110A12831215
:100CA000031320170800831203134418602E8312C5
:100CB0000313A11C602E83120313A11A602E0800D7
:100CC0008A110A1670228A110A1208008316031369
:100CD000400883160313D30083120313D21BAB2ED9
:100CE00083120313A117831203132218080083121F
:100CF0000313211A080083120313A11C962E8316D6
:100D000003134D0883160313D400831603136B08D3
:100D10008A110A1652228A110A12831603133E08F8
:100D20008A110A1622228A110A12AA2E8316031386
:100D30003F0883160313D400831603134208831657
:100D40000313EB008316031337088A110A162222B5
:100D50008A110A12DE2E83120313211B0800831648
:100D60000313420883160313EB0083120313A11C21
:100D7000D02E831603134D0883160313D400831655
:100D800003136B088A110A163C228A110A12831671
:100D900003133D088A110A1608228A110A12DE2E50
:100DA000831603133F0883160313D400831603131B
:100DB00031088A110A1608228A110A128A110A12A7
:100DC00062238A110A1283120313A01508008312EA
:100DD0000313D21BF82E83120313221CF12E1D269F
:100DE000080083120313211EF72E1D260800FE2E75
:100DF00083120313211FFE2E1D26080083120313E6
:100E0000251C082F83120313A11C082F1D26080080
:100E100083120313E11C302F83120313D21B4C2FB8
:100E200083120313A118302F83160313360883127D
:100E300003132D02031D222F83160313350883127B
:100E400003132C020318302F831603133F08831655
:100E50000313D4000A308A110A1622228A110A12B8
:100E600083120313611C3C2F83120313211B4C2F8D
:100E700083120313D21F4C2F83160313D3080319B5
:100E80004C2F83120313521F0800831603134008CC
:100E900083160313D3000800831203136308831619
:100EA0000313EB008A110A121D268A110A12080088
:100EB0008312031359081F39013A031D622F8A1147
:100EC0000A12D52F013A023A031D692F8A110A1618
:100ED000812F023A033A031D702F8A110A16482FF8
:100EE000033A043A031D772F8A110A166F2F043A2A
:100EF000053A031D7E2F8A110A16BE2F053A063ABF
:100F0000031D852F8A110A12F52F063A073A031D91
:100F10008C2F8A110A12FF2F073A083A031D932FCC
:100F20008A110A120328083A093A031D9A2F8A11D6
:100F30000A165D2F093A0A3A031DA12F8A110A16D3
:100F4000932F0A3A0B3A031DA82F8A110A16CD2FA8
:100F50000B3A0C3A031DAF2F8A110A16A52F0C3A33
:100F60000D3A031DB62F8A110A16D82F0D3A0E3AE4
:100F7000031DBD2F8A110A16C92E0E3A0F3A031D02
:100F8000C42F8A110A16C62F0F3A103A031DCB2F11
:100F90008A110A16B42F103A113A031DD22F8A1162
:100FA0000A16D42F113A04340334831203135A0857
:100FB000003A031DE02F2030DE0083120313E92FD7
:100FC000013A031DE82FA030DE0083160313E92F3A
:100FD0000234031FF02F831203130230DD00F42FBD
:0A0FE000831203130130DD00063414
:060FEA008312031321181D
:0E0FF00003348A110A1262238A110A1207348E
:020FFE000334BA
:06200000521630313032AF
:0A20060008008312031320132110B9
:1020100083120313E601E701E801E901EA018312F3
:102020000313BA0183120313BB013B14BB148A11BF
:102030000A1670228A110A1683120313081923281C
:102040008312031388118A110A16CC228A110A16E8
:10205000831603130530D400831203136608031993
:102060005128023A031D3B2832308A110A160822F1
:102070008A110A165128023A033A031D46283230C3
:102080008A110A1622228A110A165128033A043AA2
:10209000031D50288A110A1670228A110A16512827
:1020A000043A83120313E60183120313061C5C280F
:1020B000831203133A145F28831203133A10831216
:1020C0000313861C672883120313BA146A28831229
:1020D0000313BA1083120313061D7228831203130D
:1020E0003A157528831203133A1183120313871DBF
:1020F0007D2883120313BA15802883120313BA11A3
:1021000083120313871E8828831203133A168B2821
:10211000831203133A1283120313081F93288312A6
:102120000313BA16962883120313BA1283120313E9
:10213000081D9E28831203133A17A1288312031344
:102140003A1383120313861DA92883120313BA17A7
:10215000AC2883120313BA13831203133B1DB42854
:10216000831203138816B72883120313881283126D
:102170000313BB1DBF28831203130816C228831242
:10218000031308128A110A1603258A110A168312EC
:102190000313521F1C2883120313D21FD628831245
:1021A0000313BC0A83120313EA0ADE288312031303
:1021B000BD0A83120313680A0F39E8008312031360
:1021C0006A080739EA00831203130830E900831212
:1021D0000313E90369086A06031DF0288030F1281B
:1021E0000030831203136804831203136908003A52
:0621F000031DE7281C2876
:0A21F600831203134B08C502031CFB
:10220000C6034C08C602031CC7030800831203134D
:102210004B08C502031CC6034C08C6020800831203
:102220000313C7014B08C5070318C60A4C08C607A5
:102230000318C70A080083120313C601C50C03184C
:10224000C607C60CC50C0318C607C60CC50C031878
:10225000C607C60CC50C0318C607C60CC50C031868
:10226000C607C60CC50C0318C607C60CC50C031858
:10227000C607C60CC50C0318C607C60CC50C08005B
:1022800083120313C701CD001030CF004D08031097
:10229000451C4B29C707C70CC60CC50C0310CF0B38
:1022A0004829080083120313C801CD001830CF005D
:1022B0004D080310451C5D29C807C80CC70CC60C87
:1022C000C50C0310CF0B5A29080083120313CB004F
:1022D000C7010830CF00460DC70D4B08C7020318D1
:1022E0007329C7070310C60DCF0B6B29CD0108302A
:1022F000CF00450DC70DCD0D4B08C702CE01030120
:10230000031C4E0FCD0203188D294B08C707CE01C1
:10231000030103184E0FCD070310C50DCF0B79290C
:10232000080083120313CB00C8011830CF00450DFD
:10233000C60DC70DC80DC50D4B08C80203184514BE
:10234000451CC807CF0B9729080083120313C80147
:10235000C9011830CF00450DC60DC70DC80DC90DF8
:10236000C50D4B08C8024C08031C4C0FC9020318CA
:1023700045144518BE29C9074B08C807CF0BAB2920
:102380000800831203132030CF00CA01C9010310D3
:10239000C50DC60DC70DC80DC90DCA0D0318D82926
:1023A0004C084A02031DD6294B084902031CDF29A9
:1023B0004B08C902031CCA034C08CA024514CF0BC0
:0423C000C729080021
:0C23C40083120313E101E201E301E401D4
:1023D000E501313083160313920005308312031395
:1023E0009200831603130711831203130C30970016
:1023F00083120313950183120313E301831603135E
:1024000087108316031388108312031361150800C5
:1024100083120313E11C122A831203139501831202
:102420000313E30183120313E101E4000130E5002B
:102430008312031387148312031388148312031364
:102440006114080083120313611C2C2A83120313E6
:10245000950183120313E30183120313E101E400E6
:102460000130E500831203138710831203138814CD
:1024700083120313E114080083120313E101E40043
:1024800083120313950083120313E3000130E50068
:102490008312031387148312031388148312031304
:1024A0006114080083120313E101E4008312031393
:1024B000950083120313E3000130E5008312031338
:1024C000871083120313881483120313E114080086
:1024D00083120313621408008312031362100800AE
:1024E00083120313E101E4018312031395018312A4
:1024F0000313E30183120313881483120313E115FA
:10250000080083120313E101E40183120313950110
:1025100083120313E301831203138810831203133E
:10252000611508008312031361190800E1190800FE
:10253000E50BB72A640863020319B72A0318A92A0E
:10254000E30A630883120313950083120313E30065
:10255000B12AE30363088312031395008312031364
:10256000E30083160313540883120313E5000800E5
:102570008316031305080F388500831603130230F2
:102580009F00831203139F019F171F1483160313C9
:10259000E801E901EA010800831603136808003A1C
:1025A0000319D42AE8030800831203131F19080033
:1025B000831603136A18E62AEA180B2B6A19302BC4
:1025C000EA19552BEA01EA15E90108006919FF2A01
:1025D000E918FA2A831603139F13831203139F1219
:1025E0001F129F1183160313E9148316031302307D
:1025F000E80008006915831203131F1508008312F1
:1026000003131E0883120313B00083160313EA0199
:10261000EA14E90108006919242BE9181F2B831615
:1026200003139F13831203139F121F129F15831608
:102630000313E914831603130230E8000800691538
:10264000831203131F150800831203131E0883123D
:102650000313A80083160313EA016A15E9010800B1
:102660006919492BE918442B831603139F1383120E
:1026700003139F121F169F1183160313E914831669
:1026800003130230E80008006915831203131F15B5
:102690000800831203131E0883120313A900831674
:1026A0000313EA01EA15E901080069196E2BE9181C
:1026B000692B831603139F17831203139F121F1690
:1026C0009F1583160313E914831603130230E800E1
:1026D00008006915831203131F15080083160313DE
:1026E0001E0883120313AA00831203131E08831209
:1026F0000313AB0083160313EA016A14E90108000F
:022700000800CF
:0E270200080083160313220883120313C50078
:1027100083160313230883120313C60083160313BF
:10272000240883120313300203189A2B8312031315
:10273000B10108008A110A1640218A110A16831273
:1027400003134608C5004708C600C608031DB12B81
:102750008316031326088312031345020318B12BB3
:10276000D42B83160313260883120313C502031CFC
:10277000C6038316031325088A110A1640218A11FD
:102780000A16831203134608C5004708C6008316BD
:102790000313260883120313C5070318C60AC608C5
:1027A0000319D42BFF30C5008316031327088312A7
:1027B000031345020318E02B83120313B101E32B2B
:1027C00083120313B1000800831203132A08831233
:1027D0000313C500831203132B0883120313C600CF
:1027E000831603132A088A110A1640218A110A1631
:1027F00083120313460883120313C50083120313C5
:10280000470883120313C600831603132C08831290
:102810000313CB00831603132D0883120313CC007C
:102820008A110A1606218A110A1683120313C61F7B
:102830001B2CC501C6014508CB004608CC008312FD
:102840000313310883120313C500831203133408E2
:102850008A110A161B214608C500C6018A110A16EC
:102860000F218A110A1683120313450883120313DA
:10287000AC0083120313460883120313AD00080053
:10288000FF3A031D502C831603132F0883120313E2
:10289000EE0083160313300883120313EF00722C2B
:1028A000FF3A83120313CB00CC01831203132C08CD
:1028B00083120313C500831203132D08831203131D
:1028C000C6008A110A160F218A110A1683120313F1
:1028D000450883120313EE00831203134608831284
:1028E0000313EF0083120313A11C852C831603131B
:1028F000340883160313D4008316031333088A1194
:102900000A1608228A110A16932C8316031332081A
:1029100083160313D4008316031331088A110A1691
:1029200008228A110A168A110A1262238A110A16CB
:10293000831203132016831603130530E0000800EA
:1029400083120313251CB62C831603133208831637
:102950000313D4008316031331088A110A160822C0
:102960008A110A16831603130530E000831203133D
:10297000211BD02C831203136F08831203132D0223
:10298000031DC82C831203136E08831203132C0239
:102990000318D02C83160313E0080319D02C080069
:1029A0008A110A1670228A110A1262238A110A16E3
:0229B00008001D
:0E29B2008312031306080F39860083120313E5
:1029C00006168312031386168316031381178312C8
:1029D0000313D001F124D2015108D2000430D300F6
:1029E000080083120313D10183120313861EFB2CEC
:1029F00083120313511483120313061E022D831234
:102A00000313D1140800831203135213D21A0A2D90
:102A10000B1C0800F1241430D0005108D00B0E2DEF
:102A2000F1245106D216031D0800D21252080F39A4
:102A3000003A031D1C2D2F2D013A031D202D422D80
:102A4000013A023A031D252D392D5108013A031D83
:102A50002A2D552D013A023A031D5C2D4B2D5108AC
:102A6000013A031D342D4B2D013A023A031D5C2D12
:102A7000552D5108003A031D3E2D4B2D033A031DE1
:102A80005C2D552D5108003A031D472D552D033A55
:102A9000031D5C2D4B2DD30A5308083A031D5C2DF2
:102AA000D21752170430D3005C2DD30B5C2DD213F8
:102AB00052170430D3005C2D5208F0395104D20073
:042AC0000B100800EF
:0C2AC400831203178D00A0308D028316D2
:102AD00003178C130C14831203170C0808008313BC
:102AE000831603178C18722D0408831203178D00A8
:102AF000A0308D02831203130008831203178C0089
:102B0000831603178C130C158B1B8F2D55308D00DE
:102B1000AA308D008C140C118C188C2D08008B138E
:102B200055308D00AA308D008C140C118C18962D08
:102B30008B17080008008313A03084000408622566
:102B40008000840A0408D13A031D9E2D08008313D7
:102B5000A03084006F25840A0408CE3A031DAA2DF4
:102B60000800831315308A000408C6258A110A1646
:102B700080006F2508008313A0308400B125840AEB
:0C2B80000408CE3A03190800BE2D08001E
:042B8C00A03CFF3C2E
:102B9000013E313C03190034031C0034313C8207F0
:102BA00002340F343F3401341A34B4343334003433
:102BB000003400349E341934563400340F349034C9
:102BC0000134463402343C340534DC3400342834D7
:102BD000023414340134143464341E34143405348F
:102BE0000F341E3405349634C83464340A34F8344F
:102BF00040341E341E340034FF3496340034003424
:022C0000F534A9
:0E2C020083120313ED1183120313861C0F2E91
:102C1000831203136D180E2EED156D14152E8312ED
:102C200003136D1C152EED156D1083120313061C76
:102C3000202E83120313ED181F2EED15ED14262EF2
:102C400083120313ED1C262EED15ED1083120313D2
:102C5000061D312E831203136D19302EED156D15DF
:102C6000372E831203136D1D372EED156D110800DD
:102C700083160313320883160313D4008316031339
:102C800031088A110A1608228A110A168A110A12B4
:102C900062238A110A1683120313A01683160313E4
:102CA0000530E000080083120313A11C5C2E83167C
:102CB00003130530E000080083120313211B662E66
:102CC00083160313E0080319662E08008A110A12FE
:082CD00062238A110A160800B4
:082CD80083120313ED1D9B2E76
:102CE000831203136D1D7A2E8A110A1638268A1153
:102CF0000A160800831203136D1C862EFF308A11FA
:102D00000A1640248A110A160800892E831203131A
:102D1000201283120313A61C972E83120313ED1C9B
:102D2000972E8A110A1286238A110A160800831226
:082D3000031320110800080044
:082D3800831203135908840003
:102D4000DD00831203135A08031DAC2E8313000801
:102D500083120313DE000634013A031DB52E8317D8
:102D6000000883120313DE000634033A031DC22E4B
:102D700004088A110A1662258A110A16831203139F
:102D8000DE00063404088A110A16C6258A110A16BE
:022D9000063407
:0E2D920083120313241FD52E831203135A0835
:102DA00083120313E6000130E62E83120313A31AE5
:102DB000E02EA301A3167D3083160313D200E52E67
:102DC00083120313A3122417221600308312031355
:082DD000DE000130DD000634D5
:082DD8008312031335180034C7
:102DE0008312031359081F3C0318FA2E5908453C57
:102DF0000318022F59089F3C031801345908CD3C91
:102E0000031C0134831203135908DD00840083126C
:0C2E100003135A08DE0083138000063410
:042E1C008316031303
:102E200006148316031386148316031306158312E0
:102E30000313061C1E2F83120313ED1483120313B6
:102E4000861C252F831203136D1483120313061D92
:0A2E50002C2F831203136D150800E8
:062E5A008316031388112A
:102E600083120313881583120313A0138312031311
:102E7000A7010800831203138811831603135A1144
:102E8000DA115A108A110A1670228A110A160800DD
:102E900083120313201F0034831203135A08031DE7
:102EA000552F83120313A215073483120313A61C94
:0A2EB000033483160313E214073401
:062EBA008312031335181A
:102EC0000034831203135A0883160313D100E10060
:0E2ED00083120313B51435143508B900073406
:022EDE0083125D
:102EE0000313201F0034831203135A08031D7C2F81
:102EF0008312031322150734831603136214E300AD
:022F0000073494
:0E2F02008312031335180034831203135A0888
:102F1000013A031D8F2F831203132216922F83125F
:062F200003132512073423
:0A2F260083120313351800348312E0
:102F300003135A0883160313D100E100831203130D
:0A2F4000B51035143508B900073448
:062F4A00831203135A0874
:102F5000831203130319AF2F01302617B02F261346
:082F6000A2168A110A160734BB
:082F6800831203133518003435
:0C2F700083120313DE010130DD00063483
:042F7C0083120313A6
:0C2F8000201F0034831603136215073471
:042F8C00013083127B
:0A2F90000313DE000230DD000634FA
:062F9A0083120313A701DE
:082FA00083120313A013073490
:082FA800831203132417073400
:022FB0000734E4
:02400E00721F1F
:1042000002000F003F0001001A00B400330000005C
:10421000000000009E001900560000000F009000F2
:104220000100460002003C000500DC000000280000
:10423000020014000100140064001E0014000500B8
:104240000F001E0005009600C80064000A00F80078
:1042500040001E001E000000FF009600000000004D
:02426000F50067
:00000001FF
