<0x6817,2.1>
:020000040000FA
:060000008A110A125128CA
:080008008B13FF0003088312B3
:100010000313F1000A08F2000408F4008316031326
:10002000010883120313F300831203130C08F50075
:100030000D08F600831603130C0883120313F5054D
:10004000831603130D0883120313F6058A110A128F
:10005000F518232D8A110A12F51AC52D8A110A12D4
:10006000751A8B2E8A110A127618AF2E8A110A166B
:100070008B1E3B280B19C3288B133D2883120313B7
:100080007408840072088A007308831603138100C1
:0E0090008312031371088300FF0E7F0E090018
:02009E0000342C
:0200A00000342A
:0E00A2008312031300308B00831603138C00AF
:1000B000831603138D00831203138313031B83170B
:1000C0003830840004084E3A031969288001840AF4
:1000D0006228831603138313031B8317B530840030
:1000E0000408B73A031977288001840A70288A1116
:1000F0000A1699238A110A1651218A110A128E258D
:100100008A110A1283160313003088008312031326
:100110008801831603130910831203130910831631
:100120000313891083120313891083160313091113
:100130008312031309118316031387108312031309
:1001400087108316031385128312031385128316F7
:10015000031307108312031307108316031386116A
:100160008312031386118316031386148316031355
:10017000061583160313051683160313061483123C
:10018000031306108A110A16ED218A110A128A1128
:100190000A16B2208A110A1283120313B8018312BD
:1001A00003138B170B1783120313B917831203134F
:1001B000B91FDC286400D62883120313CD158A11D9
:1001C0000A12D2218A110A128A110A1219248A11DA
:1001D0000A128A110A12F6218A110A128A110A12C7
:1001E0004D228A110A128A110A1603208A110A1254
:1001F000E421D221831203133A1C0A298312031328
:100200000A30E4005E145E180329831203138B1373
:100210000B13512883120313B91A0A228A110A16E2
:1002200065218A110A1283120313381DB329831220
:1002300003133C1C6029831203133A118312031326
:100240004A10CA104A11CA11E421831203134B0841
:10025000003A031D35298316031320088312031364
:10026000E800E70167145B295B29013A031D422975
:1002700083160313210883120313E800E701E71430
:100280005B295B29033A031D4F29831603132208B8
:1002900083120313E800E70167155B295B29013A24
:1002A000031D5B2983160313230883120313E8003D
:1002B000E701E7155B298A110A1609208A110A123B
:1002C00083120313BC1C7329831203133A15831280
:1002D00003134B0883120313E800E7018A110A167F
:1002E00009208A110A12831203133C1D86298312E6
:1002F0000313CE1981298A110A12E9248A110A12DC
:1003000086298A110A1229248A110A1283120313D8
:10031000BC1D982983120313CE1993298A110A123E
:10032000E9248A110A128A110A1278248A110A12FF
:10033000831203133C1FA429831203134B088A1151
:100340000A16FA218A110A1283120313BC1FAD295F
:100350008A110A1263228A110A1283120313BC0142
:1003600083120313381183120313B91DB829E42132
:1003700083120313391EBD29D2218A110A1658226D
:100380008A110A1283120313071AD1298312031345
:100390004E118A110A1229248A110A128312031398
:1003A000CE11FA28831203134D0883120313880019
:1003B0008312031385168A110A1634218A110A1230
:1003C0008312031385120800831203134A08831251
:1003D000031388008312031307148A110A163421A9
:1003E0008A110A12831203130710080083160313DD
:1003F0000711831603137F3092008312031300301A
:100400009500203097000430920017080C389700B0
:10041000071108008312031306148316031335080B
:10042000831203134C06031D3C2A83120313BA18CC
:100430002B2A8316031335088400031D252A8A11ED
:100440000A16A5238A110A122A2A8A110A166D236E
:100450008A110A123C2A8316031335088400031DEF
:10046000372A8A110A16B9238A110A123C2A8A11DC
:100470000A16AF238A110A1283120313B9128316C4
:100480000313B501FF3083120313CC00831203134F
:0A0490000610831203133811080050
:06049A0083160313871511
:1004A00083160313871683120313D401D417D701BD
:1004B000D801D501D601FF30DC00DD002030E0237B
:1004C0002030D123080083120313D40183120313B5
:1004D000B811831603132C08831203135C06031D43
:1004E000742A54144E30D123831603132B0883121D
:1004F00003135D06031D7F2AD4144E30E0238316B8
:1005000003132C0883120313DC00831603132B0838
:1005100083120313DD00831603132C08270203182C
:10052000932A2708942A2C0883120313D800D70192
:10053000D70CD80CD70CD70CD80CD70C83160313B8
:100540002B0826020318A62A2608A72A2B0883129E
:100550000313D600D501D50CD60CD50C831203138A
:100560009201831203139701831203138C30DB0073
:1005700083120313D4125412831203135418C32A80
:10058000D416DB30D12383120313D418CA2A54168D
:10059000C730E02383120313831203136430DA009D
:1005A0005417831203135418E92A83120313871D67
:1005B000E12A83120313D41EE02AD4124E30D12331
:1005C000E92A83120313541BE92A2030D123073070
:1005D000EF2B83120313D418012B83120313871EEE
:1005E000F92A83120313541EF82A54124E30E023C2
:1005F000012B83120313541B012B2030E023063000
:10060000EF2B83120313540830390319092B0A24E2
:10061000D12A831203138C30DB0083120313C830FA
:10062000D90083120313D4125412831203135418E3
:100630001B2BDB30D12383120313D418212BC7309B
:10064000E0230A2483120313D90B212B83120313F3
:100650008C30DB0083120313D41254128312031361
:100660005418352BD416CB30D12383120313D4184E
:100670003C2B5416D730E023831203138312031349
:100680006430DA0054178312031354185B2B83125F
:1006900003138719532B83120313D41E522BD41226
:1006A0004E30D1235B2B83120313541B5B2B203062
:1006B000D1230730EF2B83120313D418732B83122B
:1006C0000313871A6B2B83120313541E6A2B5412C5
:1006D0004E30E023732B83120313541B732B2030F3
:1006E000E0230630EF2B831203135408303903192B
:1006F0007B2B0A24432B831203138C30DB008312E1
:100700000313D412541254138312031354188B2B53
:10071000D416DB30D12383120313D418922B541632
:10072000C730E02383120313D418A82B83120313BA
:10073000541EA82B8312031355085604031DA42B23
:1007400054124E30E023A82B0130D502031CD603EF
:10075000831203135418BE2B83120313D41EBE2B13
:100760008312031357085804031DBA2BD4124E30BA
:10077000D123BE2B0130D702031CD80383120313ED
:10078000540830390319C62B0A24922B8312031301
:10079000D40183120313B8154E30D1234E30E02319
:1007A00008008312031388008312031389148A112B
:1007B0000A1634218A110A128312031389100800C1
:1007C0008312031388008312031309158A110A1672
:1007D00034218A110A1283120313091108008312AB
:1007E0000313B814BB0083120313061483120313FC
:1007F000D41783120313FF30DC00DD0008008312DE
:1008000003135B08143A03190800DB03DB03DB0363
:10081000DB03080083120313071500000000071113
:10082000831203135B088A110A164B218A110A12DC
:020830000800BE
:0E08320083160313071683120313CE01CF01A2
:10084000D001D201D30183120313CE1120307725BA
:10085000080083120313B8180800831203134E19FB
:100860000800831203134E1C372C0230862DDB3018
:100870007725831203137830D100FF30CF00D000EA
:1008800083160313FF309200831203134E144E138A
:10089000CE164E16CE14831603138C148312031334
:1008A0001215831203134E18512C83120313783040
:1008B000D100FF30CF00D00183160313FF30920028
:1008C000831203134E144E13CE164E16CE108316FB
:1008D00003138C14831203131215831203134E187F
:1008E0006D2C831203134E15CE154E30772508005C
:1008F00083120313B818080083120313CE1B0800D9
:10090000831203134E1C862C0330862DCB307725A3
:10091000831203137830D100831603132408831243
:100920000313CF0083160313250883120313D0008B
:1009300083160313FF309200831203134E144E13D9
:10094000CE164E16CE14831603138C148312031383
:100950001215831203134E18A92C831603132408AF
:1009600083120313CF008316031325088312031386
:10097000D00083120313920192158312031397017F
:10098000831203138C10CB30772583120313783036
:10099000D10083160313FF30920083120313FF303C
:1009A000D200831203134E144E13CE164E16CE10E1
:1009B000831603138C14831203131215831203136B
:1009C0004E18DE2C83120313CE17CE154E3077252A
:1009D0000800CB307725831203137830D1008316BB
:1009E0000313240883120313CF008316031325086F
:1009F00083120313D00083160313FF309200831277
:100A000003134E144E17CE164E16CE108316031334
:100A10008C14831203131215831203134E180C2D1A
:100A200083120313CE15292C831203134E18222D83
:100A300083120313D3080319222DD303031D222D80
:100A40004E307725080083120313CE1C2B2D831202
:100A50000313071E682D831203134F1C422D8312AC
:100A600003134E1E3C2D83120313510883160313E8
:100A7000120603199203422D831603131208FF3A3C
:100A8000031D920A83120313510883160313920065
:100A9000831203134F0850040319682D0130CF024D
:100AA000031CD0034F08FF3A031D592DD00803192A
:100AB0004E1283120313071500000000000083127A
:100AC00003130711831203138C108A110A123E2894
:100AD000831603138C108312031312118312031352
:100AE000CE01831203138C108A110A123E2883123E
:100AF000031388008312031387148A110A16342102
:100B00008A110A1283120313871008008312031339
:0C0B1000B814BB00831203130614080085
:040B1C00831203132A
:100B20008313031B83172B308400383A03199D2D40
:100B300000308000840A0408952D831203132F309F
:100B4000AE003330AD00831603132F3099002430EC
:100B50009800831203138030980090309800831619
:100B600003130C128C169812831203130030900595
:100B70001D080A389D008E018F018316031306128B
:100B80008312031306120800080083120313AB013B
:100B90002E082F3A0319D12D2E08323A0319082EA8
:100BA000172E9A1A222E1A081F39153A031D222EC3
:100BB000AB1683120313FF309B000530F03883120D
:100BC00003139C009C0E03109C0C1014831603133B
:100BD0000D14831203131A0883120313AC01C039D6
:100BE000003A031DF52D2C14172E003A403A031D30
:100BF000FB2DAC14172E403AC03A031D012E2C15C4
:100C0000172EC03A803A031D072EAC15172E222E40
:100C10001A08B7002F08300631063706031D222EAA
:100C20002B16831603138C128312031318128313CB
:100C30002E0884001A0880002B1A362EAE0A8A115C
:100C40000A123E2883120313AF01B001B101B201B1
:100C50002F30AE00831203130D1010108E018F0180
:100C6000831603130D108A110A123E282F30AE008E
:100C7000831203130D1010108E018F0183160313BE
:100C80000D10831203132F08B300AC19592E2C1822
:100C90004D2E2C19632EAC18532E8A110A16812260
:100CA0008A110A126D2E8A110A16E1228A110A127D
:100CB0006D2E831203133008B4008A110A12B22772
:100CC0008A110A126D2E831203133008B4008A11A0
:100CD0000A168F248A110A126D2E83120313063A04
:100CE0000319782E063AB500073A031DFF30B40009
:100CF00083120313330834063506B6007F2E8312A1
:100D000003130616831203133330AD008316031347
:100D100098160C168E2E83120313AB0183138312C5
:100D200003132D088400383A031DA72E83120313E2
:100D3000AC018316031398120C128C168312031342
:100D400018168312031306128A110A123E28831200
:100D5000031300089900AD0A8A110A123E28831273
:100D60000313AB01831603130D10831203130D102D
:100D70008312031310108E018F01831203132F307F
:100D8000AE00AB018A110A123E28831603130C121F
:060D90008C12981208000D
:0A0D9600831203132608A002031CB9
:100DA000A1032708A102031CA20308008312031356
:100DB0002608A002031CA1032708A1020800831231
:100DC0000313A2012608A0070318A10A2708A107F8
:100DD0000318A20A080083120313A101A00C031830
:100DE000A107A10CA00C0318A107A10CA00C0318CB
:100DF000A107A10CA00C0318A107A10CA00C0318BB
:100E0000A107A10CA00C0318A107A10CA00C0318AA
:100E1000A107A10CA00C0318A107A10CA00C0800AD
:100E200083120313A201A8001030AA00280803109F
:100E3000201C1B2FA207A20CA10CA00C0310AA0BB4
:100E4000182F080083120313A301A8001830AA006A
:100E500028080310201C2D2FA307A30CA20CA10C03
:100E6000A00C0310AA0B2A2F080083120313A6005C
:100E7000A2010830AA00210DA20D2608A202031823
:100E8000432FA2070310A10DAA0B3B2FA801083086
:100E9000AA00200DA20DA80D2608A202A901030197
:100EA000031C290FA80203185D2F2608A207A90119
:100EB00003010318290FA8070310A00DAA0B492F3F
:100EC000080083120313A600A3011830AA00200D06
:100ED000A10DA20DA30DA00D2608A3020318201436
:100EE000201CA307AA0B672F080083120313A3017A
:100EF000A4011830AA00200DA10DA20DA30DA40D70
:100F0000A00D2608A3022708031C270FA40203181C
:100F1000201420188E2FA4072608A307AA0B7B2FC6
:100F20000800831203132030AA00A501A4010310B6
:100F3000A00DA10DA20DA30DA40DA50D0318A82FA2
:100F400027082502031DA62F26082402031CAF2F05
:100F50002608A402031CA5032708A5022014AA0B37
:040F6000972F0800BF
:0C0F64008312031330088400B4008312D1
:100F700003133108031DC22F8313000883120313C8
:100F8000B5000634013A031DCB2F831700088312E6
:100F90000313B5000634033A031DD82F04088A1141
:100FA0000A1660238A110A1283120313B50006344D
:0E0FB00004088A110A12DF278A110A12063479
:020FBE00A03C55
:100FC000FF3C013E123C03190034031C0034123C68
:100FD000820722346134A134DF3440340634BE3415
:100FE000FF3400340034003400340034143400344E
:060FF0000034003400345F
:06200000521630323031AF
:0A20060083120313E70120307B2052
:102010000800831603132E186B28A320AC2083120C
:10202000031368081E020319582803181928671794
:102030001A28671383120313FF30EA008A208312E1
:1020400003136716E71683120313671B2928DF3073
:102050002A28CF307B2083120313671A30286B287D
:10206000AC208312031368081E02031958280318B2
:102070003E2883120313671F582842288312031334
:10208000671B5828831203133A1D4F28E713831642
:1020900003131208323A03194E2892035728E71304
:1020A000831603131208193A0319572892032B2891
:1020B0004E307B20831203130F30E70567080F397A
:1020C00083120313CA04AC20831203131E08831265
:1020D0000313E6000800831603132E1420307B2020
:1020E000831203130F30E70583120313680883126A
:1020F0000313E600080083120313880083120313FE
:1021000009148A110A1634218A110A16831203133C
:102110000910080083160313FF3092008312031383
:1021200000309500203097000430920017080C38DA
:1021300097000711080083120313B814BB00831221
:10214000031306140800831203139F121F129F111A
:10215000831603139F130800831203131F151F19FF
:04216000AF2808009C
:0C21640083160313811101118110011476
:1021700081128B16831203130A30DF000A30E0004D
:102180000A30E100080083120313DF0B29290A300B
:10219000DF0083120313EC1DD028EF08031DEF03AB
:1021A00083120313671ED728EA03031967128A11E3
:1021B0000A12FF238A110A1683120313E00B29293E
:1021C0000A30E0008A110A1214258A110A168312B5
:1021D0000313541FEE28DA03031954138312031355
:1021E0004D08073983120313E3003E3E8400831237
:1021F00003133D08831203138000831203134D0859
:10220000F839CD0083120313630A0739CD04831212
:102210000313B91383120313B91539168312031369
:102220005E1C1529E40303195E1083120313E10BEE
:1022300029290A30E100831203130608083A8600B0
:1022400083120313EC1C29298A110A163E228A11D3
:102250000A160B118A110A123E2883120313043046
:10226000E300E30B31290800831203132830E30055
:10227000E30B38290800831203130A30A00034212D
:10228000A00B3F290800831203133230A1003B2129
:10229000A10B4729080083120313A200A20B4E29A9
:0222A000080034
:0E22A2008316031305080B38850083160313FB
:1022B00004309F00831203139F019F171F1483167E
:1022C0000313B201B301B4010800831603133208EB
:1022D000003A03196D29B2030800831203131F1972
:1022E00008008316031334187D29B418A229B419E1
:1022F000C729B401B415B301080033199629B318DE
:102300009129831603139F13831203139F121F1225
:102310009F1183160313B314831603130030B20006
:1023200008003315831203131F15080083120313CB
:102330001E0883120313EB0083160313B401B414B5
:10234000B30108003319BB29B318B6298316031348
:102350009F13831203139F121F129F1583160313DB
:10236000B314831603130030B20008003315831230
:1023700003131F150800831203131E08831203138F
:10238000BD0083160313B401B415B301080033195B
:10239000E029B318DB29831603139F138312031359
:1023A0009F121F169F1583160313B314831603136E
:1023B0000030B20008003315831203131F15080004
:1023C000831203131E0883120313C600831603131C
:0A23D000B4013414B3010800080042
:0623DA0083160313051633
:1023E00083160313051183120313051183120313BC
:1023F000EC01080083120313ED00831203136D1F19
:102400001A2A831203130515831203136C14831203
:102410000313ED1F192A83120313CE19142A8A11EC
:102420000A12E9248A110A168A110A1278248A11DA
:102430000A16352A831203130511831203136C1035
:10244000EC10EE0183120313ED1F352A83120313E0
:10245000CE19302A8A110A12E9248A110A16352A5D
:102460008A110A1229248A110A16831203136D088D
:102470003F3903190800EE00EC140800831203131F
:102480003819080083120313EE03031D0800EC1033
:102490008312031338153C1783120313CB01080072
:1024A00083120313B814BB0083120313061408002D
:1024B00083120313051E652A831203136C19642A01
:1024C0006C15EC153230EF006D2A831203136C1D6E
:1024D0006D2A6C11EC153230EF0083120313EC1DE2
:1024E000080083120313EF08031D0800EC11831684
:1024F00003132D08C0388A110A16FA218A110A1608
:022500000800D1
:0E2502008312031330081F39013A031D8B2A80
:102510008A110A16802C013A023A031D922A8A1166
:102520000A16A52C023A033A031D992A8A110A16A3
:102530009B2C033A043A031DA02A8A110A160A2C7E
:10254000043A053A031DA72A8A110A16F42B053A04
:10255000063A031DAE2A8A110A16C42B063A073A18
:10256000031DB52A8A110A16DD2B073A083A031D06
:10257000BC2A8A110A16F42A083A093A031DC32A0A
:102580008A110A164A2C093A0A3A031DCA2A8A11E4
:102590000A165D2C0A3A0B3A031DD12A8A110A1633
:1025A000352C0B3A0C3A031DD82A8A110A16202C16
:1025B0000C3A0D3A031DDF2A8A110A16702C0D3AC7
:1025C000043483120313381900343815BC178312EE
:1025D0000313300883160313AB008312031331086F
:0825E00083160313AC0007345D
:0825E80083120313B818033439
:1025F0008312031338190034831203133108003A8D
:10260000031D0A2B83120313660883160313A0000D
:102610005F2B5F2B013A031D152B831203136608F2
:1026200083160313A1005F2B5F2B033A031D202B9E
:1026300083120313660883160313A2005F2B5F2B1C
:10264000013A031D2B2B8312031366088316031311
:10265000A3005F2B5F2B073A031D412B8316031347
:102660000130AF0083160313B50183120313CC01AD
:1026700083120313BA10B9168312031338155F2B94
:102680005F2B013A031D572B831603130030AF0055
:1026900083160313B50183120313CC0083120313B3
:1026A000BA10B9168312031338155F2B5F2B033A48
:1026B000031D5D2B07345F2B5F2B02345F2B073428
:1026C000831203178D00A0308D02831603178C131D
:1026D0000C14831203170C080800831383160317C6
:1026E0008C18702B0408831203178D00A0308D0204
:1026F000831203130008831203178C008316031739
:102700008C130C158B1B8D2B55308D00AA308D0032
:102710008C140C118C188A2B08008B1355308D00EB
:10272000AA308D008C140C118C18942B8B17080078
:1027300008008313A0308400040860238000840A0A
:102740000408B23A031D9C2B08008313A0308400B8
:102750006D23840A0408B03A031DA82B08008313D4
:1027600007308A000408DF278A110A1680006D23CB
:1027700008008313A0308400AF23840A0408B03A11
:0827800003190800BC2B08003E
:0827880083120313671A0034E9
:1027900083120313381900348312031331080C39E0
:1027A000031D0234831203133C14381583120313E0
:0A27B000310883120313CB00073435
:0627BA0083120313B8189E
:1027C000033483120313671A003483120313381976
:1027D000003483120313BC14381583120313310819
:0827E00083120313CB00073440
:0827E80083120313B91A003437
:1027F000831203133819003483120313310883162C
:102800000313B50083120313CC0083120313BA1011
:04281000B9160734BA
:0C28140083120313B91A0034831203135B
:102820003819003483120313310883160313B500DB
:1028300083120313CC0083120313BA14B91607349E
:10284000831203134E18003483120313BC1A073487
:1028500083120313381900343815BC16831203137E
:0A286000310883120313CB00073484
:06286A00831203134E1857
:102870000034831203133C1A0734831203133819EC
:10288000003438153C1683120313310883120313E6
:04289000CB0007343E
:0C289400831203134E1907348312031340
:1028A0004E180034831203133C19073483120313A8
:0A28B0003819003438153C150734C0
:0628BA00831203134E1807
:1028C000003483120313CE1B073483120313BC1985
:1028D000073483120313381900343815BC15073434
:1028E000831203133819003438153C17831203136D
:1028F000310883120313CB0083120313EC10073447
:10290000831203133108013A031D8B2C8312031326
:0E2910003A1438158E2C831203133810073436
:02291E00831222
:1029200003133008B4008400831203133108B50088
:0629300083138000063451
:0A29360083120313BB018312031385
:0A294000B8108312031306100734C9
:06294A00023083120313AA
:08295000B5000130B4000634AB
:02400E00723FFF
:1042000022006100A100DF0040000600BE00FF00A8
:10421000000000000000000000001400000000008A
:04422000000000009A
:00000001FF
