<0xa1bc,1.2>
:020000040000FA
:060000008A110A12502EC5
:080008008B13FF0003088312B3
:100010000313F1000A08F2000408F4008316031326
:10002000010883120313F300831203130C08F50075
:100030000D08F600831603130C0883120313F5054D
:10004000831603130D0883120313F6058A110A128F
:100050008B1E2B280B19B92E8A110A12F51A7B2B2D
:100060008A110A12751A0A2C8B133528831203136E
:100070007408840072088A007308831603138100D1
:0E0080008312031371088300FF0E7F0E090028
:02008E0000343C
:0200900000343A
:0E009200831603130812831203130812831639
:1000A0000313881283120313881283160313081391
:1000B0008312031308138316031305128312031309
:1000C00005128316031307118312031307118316F6
:1000D00003138613831203138613831603138710E7
:1000E00083120313871083160313871183120313DC
:1000F0008711831603130712831203130712831643
:1001000003130910831203130910831603138910B4
:100110008312031389108316031309118312031327
:100120000911831603130612831203130612831692
:100130000313861283120313861283160313061108
:1001400083120313061183160313861083120313FD
:1001500086108316031308108312031308108316E6
:100160000313081183120313081183160313881055
:10017000831203138810831603138817831603133F
:1001800007148316031387168316031306148316A6
:100190000313861583160313881583120313B60100
:1001A000B701B80183120313BE01BF01C0010800EB
:1001B0008B13831203133E08B6003F08B7004008B4
:1001C000B8003908C1003A08C2003B08C3003C0827
:1001D000C4003D08C5008B17831203133618F4289A
:1001E000831203138710F7288312031387148312D3
:1001F0000313361AFF2883120313091002298312EE
:100200000313091483120313B61A0A298312031362
:1002100086100D2983120313861483120313B61A52
:10022000152983120313BB10182983120313BB145F
:10023000831203133718202983120313061223296C
:1002400083120313061683120313B7182B29831284
:10025000031386122E2983120313861683120313A7
:10026000361B36298312031307123929831203130D
:10027000071683120313B61B4129831203130813B5
:1002800044298312031308178312031307184C29F8
:100290008312031339104F29831203133914831265
:1002A0000313871A572983120313B9105A2983128B
:1002B0000313B91483120313091862298312031359
:1002C0003911652983120313391583120313861913
:1002D0006D2983120313B917702983120313B913FD
:1002E0008312031388197829831203133B107B2987
:1002F000831203133B1483120313061C87298316EE
:1003000003135030A40083120313BA1590298316E7
:100310000313A408031D902983120313BA113B127F
:10032000831203132B1C992983120313BA1D9929D5
:100330003B16C830831203132E02031CA429831218
:100340000313B9163913BF299630831203132E02F3
:10035000031CAF2983120313B9163917BF293C3088
:10036000831203132E02031CBB2983120313B91239
:100370003913BB11BF2983120313B9123917831222
:1003800003132B1CCD2983120313391FC829BB1556
:0C03900083120313B91ECD29BB15080011
:04039C0083120313B2
:1003A000DE01DF01E601E501DF141430E000831215
:1003B00003135E10831203130530E200831203134C
:1003C0005E1483120313881283120313DE11831247
:1003D0000313081283120313E101831203133A1269
:1003E0000800202AE6080319FB29E603031DFA2961
:1003F0005F14DF10202A83120313881E202A831221
:100400000313E50803190A2AE503031D0A2ADE1669
:100410000330E600831203135F19182A83120313B3
:10042000381F172A831203130F30E5005F15202AA7
:1004300083120313B81F202A83120313E501DF1070
:1004400083120313DE1C342A831203135E192E2A2F
:100450005E158A110A125B278A110A12831203138E
:10046000E30B342ADE160800831203132C08E0394C
:10047000031D412A83120313BA16831203133A1081
:10048000692A83120313BA12831203132D08E03969
:10049000031D5F2A831203133A185A2A3A1483124F
:1004A00003130812831203133A118A110A12372711
:1004B0008A110A12831203131E30E100692A831283
:1004C00003133A1C692A3A108A110A1215278A1155
:1004D0000A1283120313371E772A8312031308129A
:1004E000831203133A11831203131E30E1008312A7
:1004F0000313E10803198E2AE103031D8E2A8312D8
:100500000313081E872A831203133A158E2A8312B7
:1005100003130816831203130530E100831203133B
:100520005E1C992A83120313E20B08008312031343
:100530005E100800831203135E1CA32ADE1314301E
:10054000E000E401080083120313881FC22A83120B
:1005500003135E1FB42A1430E000E4080319B32A21
:10056000E4030319DE16080083120313E003031DDE
:1005700008005E17DE1783120313DE1DC12AC83080
:10058000E400D42A831203135E1BC92A1430E0004E
:10059000080083120313E003031D0800E4015E1347
:1005A000831203133A120800080083120313DE1AA1
:1005B0002F2B831203135F18F02A83120313DE1FFD
:1005C0000800DE13831203135E180800831203135E
:1005D000DE1DEE2A831203133A16EF2AF02A0800D2
:1005E00083120313BE01BF01C00183120313B601BE
:1005F000B701B801831203133A12831203130530B3
:10060000B5002B1483120313DE105E100530E200D8
:100610005E14831203130812831203133A111E305F
:1006200083120313E100831203138816831203134A
:10063000DE158A110A1215278A110A128312031372
:100640005F18262B1930E5005F11DF145F1083124D
:1006500003130615831203130630E7000800831204
:100660000313DE10DE125E115E100530E2005E1430
:1006700083120313881283120313DE1183120313F0
:100680000812831203133A1183120313E1018A1132
:0A0690000A1215278A110A12080049
:06069A0083120313C101ED
:1006A000C201C301C401C5018316031304309800BD
:1006B00083120313903098008316031319309900A6
:1006C0008316031387178316031307138316031365
:1006D0000711831203130711831203131A088312DD
:1006E00003134930C800C601831603138C16831206
:1006F000031318160800831203134808513C03180B
:10070000892B831203134930C800C6018A110A12CB
:1007100036288312031348088400831203131A082F
:100720008000831203134608031DA42B83120313B6
:100730004930C8000A30C6000008C700533A031900
:10074000AB2B8A110A12362847080006C700040896
:10075000513A0319B12B83120313C80A8A110A12E2
:100760003628831203131812831603138C12831274
:1007700003134A08D4004708031DE32B4108D8009F
:100780004208D9004308DA004408DB004508DC00D1
:100790004E08BE004F08BF005008C0005330D300C1
:1007A000D501831203132C0883120313D60083127E
:1007B00003132D0883120313D700831203134B086E
:1007C000031D382CE92B831203134530D30002306C
:1007D000D5008312031353085406550656065706D0
:1007E000580659065A065B065C06DD005430D200F6
:1007F0008312031353088312031399008312031304
:100800000715831603130C168316031398168A1103
:100810000A12362883120313520884005E3C031820
:100820002E2C831603130C128316031398128316AF
:1008300003130711831203130711831203131A08FA
:10084000831203134930C800C601831603138C16A4
:100850008312031318168A110A12362883120313FF
:100860000008990083120313D20A8A110A1236284B
:10087000013A031D532C83120313DE18492C8312F3
:1008800003134C0883120313E30083120313DE14D3
:100890003A12831203130130D5004C08D600003001
:1008A000D700622C622C053A031D602C83120313BF
:1008B0000430D5000130D6000230D700622C622C03
:1008C0006A2C622CE22B831203134530D3000530CF
:1008D000D500E22B831203134530D3000330D5003B
:1008E000E22B831203134530D3000430D500E22BF2
:0E08F000831203134530D3000130D500E22BF4
:0208FE0083165F
:10090000031305081F3885008316031302309F0068
:10091000831203139F019F171F1483120313EB010C
:10092000EC01ED010800831203136B08003A031970
:100930009B2CEB030800831203131F19080083127A
:1009400003136D18AF2CED18D42C6D19F92CED197B
:100950001E2D6D1A432DED016D16EC0108006C196A
:10096000C82CEC18C32C831603139F138312031394
:100970009F121F129F1183120313EC14831203138F
:100980000230EB0008006C15831203131F150800DA
:10099000831203131E0883120313AC008312031384
:1009A000ED01ED14EC0108006C19ED2CEC18E82CAD
:1009B000831603139F13831203139F121F129F1595
:1009C00083120313EC14831203130230EB000800AC
:1009D0006C15831203131F150800831203131E08DE
:1009E00083120313AD0083120313ED016D15EC01A7
:1009F00008006C19122DEC180D2D831603139F138C
:100A0000831203139F121F169F1183120313EC14FA
:100A1000831203130230EB0008006C1583120313DA
:100A20001F150800831203131E0883120313AE0060
:100A300083120313ED01ED15EC0108006C19372D3D
:100A4000EC18322D831603139F13831203139F1286
:100A50001F169F1583120313EC1483120313023025
:100A6000EB0008006C15831203131F150800831296
:100A700003131E0883120313AF0083120313ED0147
:100A80006D16EC0108006C195C2DEC18572D8316BF
:100A900003139F13831203139F161F129F118312B8
:100AA0000313EC14831203130230EB0008006C15DF
:100AB000831203131F150800831203131E088312E9
:100AC0000313B00083120313ED016D14EC01080051
:020AD00008001C
:0E0AD200831203132608A002031CA1032708A9
:100AE000A102031CA2030800831203132608A0021C
:100AF000031CA1032708A102080083120313A2010B
:100B00002608A0070318A10A2708A1070318A20AAC
:100B1000080083120313A101A00C0318A107A10C64
:100B2000A00C0318A107A10CA00C0318A107A10C8D
:100B3000A00C0318A107A10CA00C0318A107A10C7D
:100B4000A00C0318A107A10CA00C0318A107A10C6D
:100B5000A00C0318A107A10CA00C0800831203131A
:100B6000A201A8001030AA0028080310201CB92DEB
:100B7000A207A20CA10CA00C0310AA0BB62D080012
:100B800083120313A301A8001830AA002808031039
:100B9000201CCB2DA307A30CA20CA10CA00C0310AE
:100BA000AA0BC82D080083120313A600A201083067
:100BB000AA00210DA20D2608A2020318E12DA2070A
:100BC0000310A10DAA0BD92DA8010830AA00200DF1
:100BD000A20DA80D2608A202A9010301031C290FDA
:100BE000A8020318FB2D2608A207A9010301031878
:100BF000290FA8070310A00DAA0BE72D08008312E8
:100C00000313A600A3011830AA00200DA10DA20D08
:100C1000A30DA00D2608A30203182014201CA3076F
:100C2000AA0B052E080083120313A301A401183098
:100C3000AA00200DA10DA20DA30DA40DA00D260844
:100C4000A3022708031C270FA4020318201420184E
:100C50002C2EA4072608A307AA0B192E080083121E
:100C600003132030AA00A501A4010310A00DA10DBB
:100C7000A20DA30DA40DA50D0318462E27082502CD
:100C8000031D442E26082402031C4D2E2608A40210
:100C9000031CA5032708A5022014AA0B352E080063
:100CA0008312031300308B00831603138C0083160A
:100CB00003138D00831203138313031B83172B303D
:100CC00084000408373A0319682E8001840A612ED3
:100CD0008A110A127F248A110A1249208A110A12E3
:100CE0004D238A110A12CE218A110A1603208A1175
:100CF0000A12AE278A110A16F7208A110A1215273E
:100D00008A110A128316031381110111811401142F
:100D100081128B16831203132030B40050308316D7
:100D20000313A40083120313AB0183120313B10155
:100D30000A30B2000A30B300B501831203138B17D7
:100D40000B178A110A1293248A110A12D8208A11C9
:100D50000A12D5228A110A1604208A110A12AF2714
:100D60008A110A16FE208A110A121A278A110A12FB
:100D7000A12E83120313C6080319BF2EC6038312C4
:100D80000313B403031DCB2E1030B4008A110A12D2
:100D90009A228A110A1283120313B10B112F0A30FF
:100DA000B10083120313EE080319D72EEE0383124A
:100DB0000313EF080319DD2EEF0383120313E80872
:100DC0000319E32EE80383160313A4080319E92E7D
:100DD000A40383120313B20B112F0A30B200831243
:100DE0000313E7080319FA2EE703031DFA2E8312F3
:100DF0000313061183120313B30B112F0A30B30030
:100E0000831203130608803A8600831203132B1CF7
:100E10000C2FB50B0C2F2B108A110A12F1218A11FD
:0A0E20000A120B118A110A1236287B
:060E2A0083120313051200
:100E3000E90108008312031369183D2F831203137D
:100E4000E918612F831203136919992F8312031371
:100E50005E1C2B2F932F83120313DE1D332F83125F
:100E600003130512362F831203130516080083128D
:100E70000313E901E8016914080083120313E80869
:100E8000031D0800831203136A08003A031D4F2F45
:100E90001E30E800EA0A8312031305165A2F043A9B
:100EA000031D542FEA015A2F6430E800EA0A831226
:100EB00003130512080083120313E901E801E91482
:100EC000080083120313E808031D080083120313AC
:100ED0006A08003A031D732F1E30E800EA0A8312E5
:100EE00003130516922F013A031D7D2F1E30E800D3
:100EF000EA0A831203130512922F023A031D872F69
:100F00001E30E800EA0A831203130516922F043AF2
:100F1000031D8C2FEA01922F6430E800EA0A831245
:100F200003130512080083120313E901E801691590
:100F30000800831203135E18A12F83120313E90123
:100F4000080083120313E808031D08001430E800AA
:0C0F5000831203130508103A8500080006
:040F5C0008008312F4
:100F60000313361DC82F83120313B61AC82F83121A
:100F70000313381CC42F83120313B91AC42F83120E
:100F80000313391BC42FC82F831203130915CB2F4A
:100F900083120313091183120313B61DD32F831277
:0E0FA00003138914D62F83120313891008003F
:020FAE00A03C65
:100FB000FF3C013E043C03190034031C0034043C94
:0A0FC00082070034003400340034CE
:06200000521630313032AF
:0A2006000800C830831203132F02F4
:10201000031C0F2883120313B91139162828963090
:10202000831203132F02031C1A2883120313B915FA
:10203000391628283C30831203132F02031C24284E
:102040003912B9113B112828831203133912B9151B
:1020500083120313B01F3028831203133A17332857
:10206000831203133A13831203132B1C4528831284
:102070000313B91D3E28831203133B158312031368
:10208000391E4528831203133B15831203133A1B91
:102090008A28831203133B198A28831203133A1DDB
:1020A0008A2883120313361C8A2883120313B61A54
:1020B0008A2883120313B61C8A2883120313BA17C3
:1020C00083120313081483120313391E6C2883121E
:1020D0000313B9197528832883120313B91D7528B2
:1020E00083120313391A75287C288312031388106E
:1020F000831203130811080083120313881083123C
:1021000003130815080083120313881483120313A2
:102110000811080083120313BA13B911391283127C
:0621200003130810080083
:0A212600831203178D00A0308D0214
:10213000831603178C130C14831203170C08080062
:102140008313831603178C18A3280408831203171C
:102150008D00A0308D028312031300088312031731
:102160008C00831603178C130C158B1BC02855305D
:102170008D00AA308D008C140C118C18BD2808001D
:102180008B1355308D00AA308D008C140C118C18D7
:10219000C7288B17080008008313A03084000408A8
:1021A00093208000840A0408A43A031DCF28080065
:1021B0008313A0308400A020840A0408A23A031DDF
:1021C000DB280800831307308A000408D7278A1108
:1021D0000A168000A02008008313A0308400E220AB
:0E21E000840A0408A23A03190800EF28080038
:0221EE0083125A
:1021F0000313871183120313BB1208008312031306
:10220000B71B212983120313871A1629831203137C
:10221000B719162983120313EE08031D152983121B
:102220000313871183120313BB12080083120313D5
:102230008715073083120313EE0083120313BB16B6
:10224000080083120313EF08031D2E2983120313C2
:10225000871D2C2987112D2987152F290800831206
:102260000313B71E412983120313371F3C2983121E
:1022700003130D30EF004029831203131930EF00D0
:102280004E2983120313371F4A29831203130B307D
:0E229000EF004E29831203132D30EF000800DB
:02400E00723FFF
:084200000000000000000000B6
:00000001FF
