<0x4501,1.1>
:020000040000FA
:060000008A150A16002813
:020006000734BD
:080008008B13FF0003088312B3
:100010000313F1000A08F2000408F4008316031326
:10002000010883120313F300831203130C08F50075
:100030000D08F600831603130C0883120313F5054D
:10004000831603130D0883120313F6058A150A128B
:1000500075186D2D8A110A12F51AA02E8A110A122E
:10006000751A692F8A110A1275198F2F8A150A16A7
:100070008B1E3B280B197D2A8B133D2883120313FB
:100080007408840072088A007308831603138100C1
:0E0090008312031371088300FF0E7F0E090018
:02009E0000342C
:0200A00000342A
:0E00A20083120313A818372E83120313861E31
:1000B00051288A110A1248260A308A150A12822407
:1000C0008A110A126326831603131E088312031370
:1000D000E000831203131E0883120313E10063265A
:1000E000831603131E0883120313E60083120313FF
:1000F0001E0883120313E7008A150A12AA258A1123
:100100000A126326831603131E0883120313E600E4
:10011000831203131E0883120313E7008A150A12C1
:10012000AA258A110A126326831603131E08831256
:100130000313E600831203131E0883120313E70060
:100140008A150A12AA258A110A128312031360085B
:1001500083120313B1008312031361088312031384
:10016000B20083120313310883120313AF0083120A
:100170000313320883120313B000831203132814ED
:100180008A150A12AB248A110A128A150A126924E6
:100190008A110A12831203130817831203130430FF
:1001A000C9008A150A127224873082248A110A1221
:1001B00083120313C90BD128831203130430C9001F
:1001C0008A150A127224743082248A110A12831248
:1001D0000313C90BE028831203130430C9008A15E6
:1001E0000A127224663082248A110A1283120313BF
:1001F000C90BEF28831203130430C9008A150A12B1
:1002000072245B3082248A110A1283120313C90BF1
:10021000FE28831203130430C9008A150A127224BF
:10022000523082248A110A1283120313C90B0D293A
:10023000831203130430C9008A150A1272244A304B
:1002400082248A110A1283120313C90B1C298312F8
:1002500003130430C9008A150A1272244430822420
:100260008A110A1283120313C90B2B298312031359
:100270000430C9008A150A1272243F3082248A1180
:100280000A1283120313C90B3A2983120313043091
:10029000C9008A150A1272243A3082248A110A127D
:1002A00083120313C90B4929831203130430C900B5
:1002B0008A150A127224363082248A110A12831295
:1002C0000313C90B5829831203130430C9008A157C
:1002D0000A127224333082248A110A128312031301
:1002E000C90B6729831203130430C9008A150A1247
:1002F0007224303082248A110A1283120313C90B2C
:1003000076298312031328148A150A12AB248A1142
:100310000A12831203138813831203130830C900CF
:100320008A150A127224303082248A110A1283122A
:100330000313C90B9029831203130430C9008A15D3
:100340000A127224303082248A110A128312031393
:10035000C90B9F298A110A1248260A308A150A12E7
:1003600082248A110A126326831603131E0883123D
:100370000313E000831203131E0883120313E1002A
:100380006326831603131E0883120313E6008312E9
:1003900003131E0883120313E7008A150A12AA2505
:1003A0008A110A126326831603131E08831203138D
:1003B000E600831203131E0883120313E7008A1555
:1003C0000A12AA258A110A126326831603131E082D
:1003D00083120313E600831203131E088312031310
:1003E000E7008A150A12AA258A110A12831203133A
:1003F000600883120313B100831203136108831290
:100400000313B2008A110A1251260A308A150A1201
:1004100082248A110A126326831603131E0883128C
:100420000313E000831203131E0883120313E10079
:100430006326831603131E0883120313E600831238
:1004400003131E0883120313E7008A150A12AA2554
:100450008A110A126326831603131E0883120313DC
:10046000E600831203131E0883120313E7008A15A4
:100470000A12AA258A110A126326831603131E087C
:1004800083120313E600831203131E08831203135F
:10049000E7008A150A12AA258A110A128312031389
:1004A000600883120313B3008312031361088312DD
:1004B0000313B400831203130430C9008A150A120F
:1004C0007224303082248A110A1283120313C90B5A
:1004D0005E2A831203131F30CB00831203130830EC
:1004E000C9008A150A127224303082248A110A1235
:1004F00083120313C90B712A83120313CB0B6D2ACA
:10050000831203130430C9008A150A127224303092
:1005100082248A110A1283120313C90B842A8312BC
:1005200003130430C9008A150A127224333082245E
:100530008A110A1283120313C90B932A831203131D
:100540000430C9008A150A127224363082248A11B6
:100550000A1283120313C90BA22A83120313043055
:10056000C9008A150A1272243A3082248A110A12AA
:1005700083120313C90BB12A831203130430C90079
:100580008A150A1272243F3082248A110A128312B9
:100590000313C90BC02A831203130430C9008A1540
:1005A0000A127224443082248A110A12831203131D
:1005B000C90BCF2A831203138817831203134E1D0E
:1005C000E42A831203131010831203130430C900AA
:1005D0008A150A1272244A3082248A110A1283125E
:1005E0000313C90BE82A831203130430C9008A15C8
:1005F0000A127224523082248A110A1283120313BF
:10060000C90BF72A831203130430C9008A150A1292
:1006100072245B3082248A110A1283120313C90BDD
:10062000062B831203130430C9008A150A127224A0
:10063000663082248A110A1283120313C90B152B08
:10064000831203130430C9008A150A12722474300D
:1006500082248A110A1283120313C90B242B8312DA
:1006600003130430C9008A150A12722487308224C9
:100670008A110A1283120313C90B332B831203133B
:100680000813831203130430C9008A150A12722456
:10069000873082248A110A1283120313C90B452B57
:1006A000831203130430C9008A150A1272247430AD
:1006B00082248A110A1283120313C90B542B83124A
:1006C00003130430C9008A150A127224663082248A
:1006D0008A110A1283120313C90B632B83120313AB
:1006E0000430C9008A150A1272245B3082248A11F0
:1006F0000A1283120313C90B722B831203130430E3
:10070000C9008A150A127224523082248A110A12F0
:1007100083120313C90B812B831203130430C90006
:100720008A150A1272244A3082248A110A1283120C
:100730000313C90B902B831203134E1DA52B831299
:10074000031388138312031310148312031304304A
:10075000C9008A150A127224443082248A110A12AE
:1007600083120313C90BA92B831203130430C9008E
:100770008A150A1272243F3082248A110A128312C7
:100780000313C90BB82B831203130430C9008A1555
:100790000A1272243A3082248A110A128312031335
:1007A000C90BC72B831203130430C9008A150A1220
:1007B0007224363082248A110A1283120313C90B61
:1007C000D62B831203130430C9008A150A1272242F
:1007D000333082248A110A1283120313C90BE52BCA
:1007E000831203130430C9008A150A1272243030B0
:1007F00082248A110A1283120313C90BF42B831269
:1008000003131B30CB00831203130830C9008A1571
:100810000A127224303082248A110A1283120313BE
:10082000C90B072C83120313CB0B032C8312031366
:100830000430C9008A150A127224303082248A11C9
:100840000A1283120313C90B1A2C831203130430E8
:10085000C9008A150A127224333082248A110A12BE
:1008600083120313C90B292C831203130430C9000C
:100870008A150A127224363082248A110A128312CF
:100880000313C90B382C831203130430C9008A15D3
:100890000A1272243A3082248A110A128312031334
:1008A000C90B472C831203130430C9008A150A129E
:1008B00072243F3082248A110A1283120313C90B57
:1008C000562C831203130430C9008A150A127224AD
:1008D000443082248A110A1283120313C90B652C37
:1008E000831203138817831203134E1D7A2C83126D
:1008F00003131010831203130430C9008A150A125F
:1009000072244A3082248A110A1283120313C90BFB
:100910007E2C831203130430C9008A150A12722434
:10092000523082248A110A1283120313C90B8D2CB0
:10093000831203130430C9008A150A1272245B3033
:1009400082248A110A1283120313C90B9C2C83126E
:1009500003130430C9008A150A12722466308224F7
:100960008A110A1283120313C90BAB2C83120313CF
:100970000430C9008A150A127224743082248A1144
:100980000A1283120313C90BBA2C83120313043007
:10099000C9008A150A127224873082248A110A1229
:1009A00083120313C90BC92C83120313CE18372EDD
:1009B00083120313061CE72C83120313A01FE52CDC
:1009C000831203130430A900372EA017EA2C8312D8
:1009D0000313A013831203130817831203130430A5
:1009E000C9008A150A127224503082248A110A1210
:1009F00083120313C90BF12C831203130430C900B3
:100A00008A150A1272244C3082248A110A12831227
:100A10000313C90B002D831203130430C9008A1578
:100A20000A127224493082248A110A128312031393
:100A3000C90B0F2D831203130430C9008A150A1243
:100A40007224453082248A110A1283120313C90BBF
:100A50001E2D831203134E1D332D8312031388138F
:100A6000831203131014831203132330CB00831259
:100A700003130830C9008A150A12722449308224EF
:100A80008A110A1283120313C90B3B2D831203131D
:100A9000CB0B372D831203138817831203134E1DBC
:100AA000542D831203131010831203130430C90052
:100AB0008A150A127224453082248A110A1283127E
:100AC0000313C90B582D831203130430C9008A1570
:100AD0000A127224493082248A110A1283120313E3
:100AE000C90B672D831203130430C9008A150A123B
:100AF00072244C3082248A110A1283120313C90B08
:100B0000762D831203130430C9008A150A12722449
:100B1000503082248A110A1283120313C90B852DC7
:100B2000831203130813831203130430C9008A15B8
:100B30000A127224503082248A110A12831203137B
:100B4000C90B972D831203130430C9008A150A12AA
:100B500072244C3082248A110A1283120313C90BA7
:100B6000A62D831203130430C9008A150A127224B9
:100B7000493082248A110A1283120313C90BB52D3E
:100B8000831203130430C9008A150A1272244530F7
:100B900082248A110A1283120313C90BC42D8312F3
:100BA00003134E1DD92D83120313881383120313CD
:100BB0001014831203132330CB0083120313083065
:100BC000C9008A150A127224493082248A110A1235
:100BD00083120313C90BE12D83120313CB0BDD2DFD
:100BE000831203138817831203134E1DFA2D8312E9
:100BF00003131010831203130430C9008A150A125C
:100C00007224453082248A110A1283120313C90BFD
:100C1000FE2D831203130430C9008A150A127224B0
:100C2000493082248A110A1283120313C90B0D2E34
:100C3000831203130430C9008A150A1272244C303F
:100C400082248A110A1283120313C90B1C2E8312E9
:100C500003130430C9008A150A127224503082240A
:100C60008A110A1283120313C90B2B2ED42C831260
:100C7000031388178A150A1211258A110A12831282
:100C80000313A5018A150A124C248A110A120800BE
:100C9000831203139F121F169F11831603139F17AE
:100CA0000800831203139F121F169F158316031348
:100CB0009F170800831203139F161F129F1183169C
:100CC00003139F170800831203131F151F19662EA5
:020CD00008001A
:0E0CD200831203138313031B83175330840014
:100CE000603A0319782E00308000840A0408702EC0
:100CF000831203135730D6005B30D50083160313DD
:100D00002F3099002430980083120313803098000C
:100D100090309800831603130C128C1698128312CD
:100D200003130030900517080B3897008E018F01D0
:100D30008316031307118312031307110800080019
:100D400083120313D301831203135608573A03196E
:100D5000AE2E56085A3A0319E22EF12E9A1A002F97
:100D60001A081F39173A031D002FD31683120313D5
:100D7000FF3095000530F038831203139600960E6D
:100D80000310960C1014831603130C15831203130F
:100D90001A08C039003A031DCF2E5414F12E003A20
:100DA000403A031DD52ED414F12E403AC03A031D0B
:100DB000DB2E5415F12EC03A803A031DE12ED415D6
:100DC000F12E002F1A08DF005708580659065F0653
:100DD000031D002F5316831603138C128312031363
:100DE0001812831603138113831203135608840009
:100DF0001A088000531A142FD60A8A110A123E28A4
:100E000083120313D701D801D901DA015730D60074
:100E1000831203130C1110108E018F01831603131C
:100E20000C118A110A123E285730D6008312031380
:100E30000C1110108E018F01831603130C118312F5
:100E400003135708DB00D419372F54182B2F5419CC
:100E5000412FD418312F8A150A127D268A110A12C1
:100E60004B2F8A150A12C8268A110A124B2F831299
:100E700003135808DC008A150A12FC268A110A128C
:100E80004B2F831203135808DC008A150A12982787
:100E90008A110A124B2F83120313063A0319562F95
:100EA000063ADD00073A031DFF30DC00831203130E
:100EB0005B085C065D06DE005D2F831203130715D9
:100EC000831203135B30D5008316031398160C1698
:100ED0006C2F83120313D301831603138113831220
:100EE000031355088400603A031D872F83120313F0
:100EF000D4018316031398120C128C168312031359
:100F000018168312031307118A110A123E2883123E
:100F1000031300089900D50A8A110A123E28831289
:100F20000313D301831603130C11831203130C1143
:100F30008312031310108E018F0183120313573095
:0A0F4000D600D3018A110A123E28E0
:060F4A00831203178D0065
:100F5000A0308D02831603178C130C148312031711
:100F60000C0808008313831603178C18B52F040888
:100F7000831203178D00A0308D0283120313000823
:100F8000831203178C00831603178C130C158B1B0D
:100F9000D22F55308D00AA308D008C140C118C1876
:100FA000CF2F08008B1355308D00AA308D008C1484
:100FB0000C118C18D92F8B17080008008313A03050
:100FC00084000408A5278000840A0408A33A031DAE
:100FD000E12F08008313080083130800831308001F
:100FE00083120313A01A0034A016831203135908A6
:100FF00083120313C500831203130830A5000734BE
:101000006924831203130817831203130430C900E1
:101010008A150A127224873082248A150A128312D2
:101020000313C90B0828831203130430C9008A155F
:101030000A127224743082248A150A12831203134E
:10104000C90B1728831203130430C9008A150A122A
:101050007224663082248A150A1283120313C90B84
:101060002628831203130430C9008A150A12722439
:101070005B3082248A150A1283120313C90B3528A8
:10108000831203130430C9008A150A1272245230E5
:1010900082248A150A1283120313C90B442883126F
:1010A00003130430C9008A150A1272244A308224BC
:1010B0008A150A1283120313C90B532883120313D0
:1010C0000430C9008A150A127224443082248A1519
:1010D0000A1283120313C90B62288312031304300C
:1010E000C9008A150A1272243F3082248A150A1216
:1010F00083120313C90B7128831203130430C90030
:101100008A150A1272243A3082248A150A1283122E
:101110000313C90B8028831203130430C9008A15F6
:101120000A127224363082248A150A12831203139B
:10113000C90B8F28831203130430C9008A150A12C1
:101140007224333082248A150A1283120313C90BC6
:101150009E28831203130430C9008A150A127224D0
:10116000303082248A150A1283120313C90BAD286A
:10117000831203132130CA00831203130830C900FD
:101180008A150A127224303082248A150A128312B8
:101190000313C90BC028CA0BBC28831203130430E5
:1011A000C9008A150A127224303082248A150A1264
:1011B00083120313C90BD128831203130430C9000F
:1011C0008A150A127224333082248A150A12831275
:1011D0000313C90BE028831203130430C9008A15D6
:1011E0000A127224363082248A150A1283120313DB
:1011F000C90BEF28831203130430C9008A150A12A1
:1012000072243A3082248A150A1283120313C90BFE
:10121000FE28831203130430C9008A150A127224AF
:101220003F3082248A150A1283120313C90B0D2939
:10123000831203130430C9008A150A127224443041
:1012400082248A150A1283120313C90B1C298312E4
:1012500003130430C9008A150A1272244A3082240A
:101260008A150A1283120313C90B2B298312031345
:101270000430C9008A150A127224523082248A1559
:101280000A1283120313C90B3A2983120313043081
:10129000C9008A150A1272245B3082248A150A1248
:1012A00083120313C90B4929831203130430C900A5
:1012B0008A150A127224663082248A150A12831251
:1012C0000313C90B5829831203130430C9008A156C
:1012D0000A127224743082248A150A1283120313AC
:1012E000C90B6729831203130430C9008A150A1237
:1012F0007224873082248A150A1283120313C90BC1
:101300007629831203130813831203130430C900D0
:101310008A150A127224873082248A150A128312CF
:101320000313C90B8829831203130430C9008A15DB
:101330000A127224743082248A150A12831203134B
:10134000C90B9729831203130430C9008A150A12A6
:101350007224663082248A150A1283120313C90B81
:10136000A629831203130430C9008A150A127224B5
:101370005B3082248A150A1283120313C90BB52924
:10138000831203130430C9008A150A1272245230E2
:1013900082248A150A1283120313C90BC4298312EB
:1013A00003130430C9008A150A1272244A308224B9
:1013B0008A150A1283120313C90BD329831203134C
:1013C0000430C9008A150A127224443082248A1516
:1013D0000A1283120313C90BE22983120313043088
:1013E000C9008A150A1272243F3082248A150A1213
:1013F00083120313C90BF129831203130430C900AC
:101400008A150A1272243A3082248A150A1283122B
:101410000313C90B002A831203130430C9008A1571
:101420000A127224363082248A150A128312031398
:10143000C90B0F2A831203130430C9008A150A123C
:101440007224333082248A150A1283120313C90BC3
:101450001E2A831203130430C9008A150A1272244B
:10146000303082248A150A1283120313C90B2D2AE5
:10147000831203131B30CA00831203130830C90000
:101480008A150A127224303082248A150A128312B5
:101490000313C90B402ACA0B3C2A831203130430DE
:1014A000C9008A150A127224303082248A150A1261
:1014B00083120313C90B512A831203130430C9008A
:1014C0008A150A127224333082248A150A12831272
:1014D0000313C90B602A831203130430C9008A1551
:1014E0000A127224363082248A150A1283120313D8
:1014F000C90B6F2A831203130430C9008A150A121C
:1015000072243A3082248A150A1283120313C90BFB
:101510007E2A831203130430C9008A150A1272242A
:101520003F3082248A150A1283120313C90B8D2AB5
:10153000831203130430C9008A150A12722444303E
:1015400082248A150A1283120313C90B9C2A831260
:1015500003130430C9008A150A1272244A30822407
:101560008A150A1283120313C90BAB2A83120313C1
:101570000430C9008A150A127224523082248A1556
:101580000A1283120313C90BBA2A831203130430FD
:10159000C9008A150A1272245B3082248A150A1245
:1015A00083120313C90BC92A831203130430C90021
:1015B0008A150A127224663082248A150A1283124E
:1015C0000313C90BD82A831203130430C9008A15E8
:1015D0000A127224743082248A150A1283120313A9
:1015E000C90BE72A831203130430C9008A150A12B3
:1015F0007224873082248A150A1283120313C90BBE
:10160000F62A0800692483120313081783120313B0
:101610000430C9008A150A127224503082248A15B7
:101620000A1283120313C90B0A2B8312031304300B
:10163000C9008A150A1272244C3082248A150A12B3
:1016400083120313C90B192B831203130430C9002F
:101650008A150A127224493082248A150A128312CA
:101660000313C90B282B831203130430C9008A15F6
:101670000A127224453082248A150A128312031337
:10168000C90B372B831203134E1D4C2B83120313EC
:101690008813831203131014831203132330CA0018
:1016A000831203130830C9008A150A1272244930C4
:1016B00082248A150A1283120313C90B542BCA0BF6
:1016C000502B831203138817831203134E1D6B2BA9
:1016D000831203131010831203130430C9008A15F8
:1016E0000A127224453082248A150A1283120313C7
:1016F000C90B6F2B831203130430C9008A150A1219
:101700007224493082248A150A1283120313C90BEA
:101710007E2B831203130430C9008A150A12722427
:101720004C3082248A150A1283120313C90B8D2BA5
:10173000831203130430C9008A150A127224503030
:1017400082248A150A1283120313C90B9C2B83125D
:1017500003130813831203130430C9008A150A12F5
:101760007224503082248A150A1283120313C90B83
:10177000AE2B831203130430C9008A150A12722497
:101780004C3082248A150A1283120313C90BBD2B15
:10179000831203130430C9008A150A1272244930D7
:1017A00082248A150A1283120313C90BCC2B8312CD
:1017B00003130430C9008A150A12722445308224AA
:1017C0008A150A1283120313C90BDB2B831203132E
:1017D0004E1DF02B8312031388138312031310146E
:1017E000831203132330CA00831203130830C90085
:1017F0008A150A127224493082248A150A12831229
:101800000313C90BF82BCA0BF42B8312031388178D
:10181000831203134E1D0F2C831203131010831217
:1018200003130430C9008A150A1272244530822439
:101830008A150A1283120313C90B132C8312031384
:101840000430C9008A150A127224493082248A158C
:101850000A1283120313C90B222C831203130430C0
:10186000C9008A150A1272244C3082248A150A1281
:1018700083120313C90B312C831203130430C900E4
:101880008A150A127224503082248A150A12831291
:101890000313C90B402C080083120313081383128F
:1018A00003132130CA00831203130830C9008A15BC
:1018B0000A127224613082248A150A1283120313D9
:1018C000C90B572CCA0B532C831203130814081787
:1018D00008008312031388110810881408110816D1
:1018E00008178815831203138812000000000000F7
:1018F000881600000000000000000000000000004A
:10190000881208008312031391018C1083160313AD
:101910009200831203131F3092008C1C8D2C1930FF
:041920009200080029
:0C19240083120313CE01D101D201CF01C8
:10193000D0018316031309108316031309118316AC
:1019400003138910831203130914091189108316D4
:1019500003130714080083120313861E0800831262
:101960000313281C080083120313A1180800831214
:101970000313A013831203132B0883120313E00035
:10198000831203132C0883120313E1008312031341
:101990002B0883120313D100831203132C08831224
:1019A0000313D20083120313CE104E104E15831270
:1019B0000313FF30E006E10603100130E0070318CF
:1019C000E10A83120313A113831603130C128C1262
:1019D0009812831203130711831203131708F039A7
:1019E00097008312031306309000831203130C1028
:1019F000831603130C10831203136008831203135E
:101A00008E00831203136108831203138F00831265
:101A100003130C10831603130C14831203131014F6
:101A20000800831203131010831203134E11831244
:101A300003130E0883120313E000831203130F082D
:101A400083120313E100831203135108831203135B
:101A5000E60083120313520883120313E7008A156A
:101A60000A12AA2583120313600883120313AD0020
:101A700083120313610883120313AE008A150A123E
:101A800083120313A0150800831203134E1483124C
:101A900003131010831203138E018F01831203139B
:101AA00010140800831203134E1C08008312031342
:101AB0001010831203130E0883120313CF00831236
:101AC00003130F0883120313D000831203138E0134
:101AD0008F018312031310140800831203131010D4
:101AE00083120313881783120313CE144E1183122B
:101AF00003130130A900831203130C108A110A1278
:101B000069268A150A128316031332309900203091
:101B10009800831203132030900083120313A1173F
:0C1B200083120313A0158A110A123E283C
:041B2C00831203130A
:101B30006608E002031CE1036708E102031CE203FC
:101B40000800831203136608E002031CE103670820
:101B5000E102080083120313E2016608E00703189C
:101B6000E10A6708E1070318E20A08008312031379
:101B7000E101E00C0318E107E10CE00C0318E107B8
:101B8000E10CE00C0318E107E10CE00C0318E1079D
:101B9000E10CE00C0318E107E10CE00C0318E1078D
:101BA000E10CE00C0318E107E10CE00C0318E1077D
:101BB000E10CE00C080083120313E201E80010308E
:101BC000EA0068080310601CE62DE207E20CE10C55
:101BD000E00C0310EA0BE32D080083120313E3016A
:101BE000E8001830EA0068080310601CF82DE307CD
:101BF000E30CE20CE10CE00C0310EA0BF52D0800FD
:101C000083120313E600E2010830EA00610DE20DE1
:101C10006608E20203180E2EE2070310E10DEA0B3C
:101C2000062EE8010830EA00600DE20DE80D6608B6
:101C3000E202E9010301031C690FE8020318282EE0
:101C40006608E207E90103010318690FE8070310BA
:101C5000E00DEA0B142E080083120313E600E301E3
:101C60001830EA00600DE10DE20DE30DE00D6608AD
:101C7000E30203186014601CE307EA0B322E08002D
:101C800083120313E301E4011830EA00600DE10D53
:101C9000E20DE30DE40DE00D6608E3026708031CA6
:101CA000670FE402031860146018592EE4076608F1
:101CB000E307EA0B462E0800831203132030EA00E4
:101CC000E501E4010310E00DE10DE20DE30DE40D8B
:101CD000E50D0318732E67086502031D712E660853
:101CE0006402031C7A2E6608E402031CE5036708FD
:0A1CF000E5026014EA0B622E080002
:061CFA00831203135808D9
:101D00001F39013A031D872E8A150A12A62F013AA0
:101D1000023A031D8E2E8A150A12DF2F023A033A69
:101D2000031D952E8A150A12E62F033A043A031D65
:101D30009C2E8A110A120328043A053A031DA32E89
:101D40008A150A12D82F053A063A031DAA2E8A15BB
:101D50000A122D2F063A073A031DB12E8A150A12D0
:101D6000C12F073A083A031DB82E8A150A125B2FB5
:101D7000083A093A031DBF2E8A150A12CE2F093AD6
:101D80000A3A031DC62E8A110A12F02F0A3A0434A9
:101D900083120313581CD92E8312031331088312A4
:101DA0000313DC0083120313320883120313DD00D4
:101DB000063483120313D81CEA2E8312031333084C
:101DC00083120313DC0083120313340883120313FA
:101DD000DD00063483120313581DFB2E83120313F8
:101DE000350883120313DC008312031336088312B1
:081DF0000313DD000634063484
:081DF800831203135808840054
:101E0000DC00831203135908031D0E2F83160313DE
:101E10008113000883120313DD000634013A031D09
:101E2000192F831603138117000883120313DD0093
:101E30000634033A031D262F04088A110A12A52727
:101E40008A150A1283120313DD00063404088A156A
:0A1E50000A12B4278A150A1206349C
:061E5A0083120313A01A1D
:101E60000034A016A011831203131930BF0083128F
:101E70000313211783120313A11D412F8312031390
:101E8000211683120313881783120313211183125F
:101E90000313281083120313A81083120313A11035
:101EA00083120313CE104E118312031359088312A9
:061EB0000313A500073436
:0A1EB600831203135908003A031DBC
:101EC000682F83120313091409118910822F822F9E
:101ED000013A031D722F831203130910091589108B
:101EE000822F822F033A031D7C2F831203130910C4
:101EF00009118914822F822F8312031309100911EB
:061F00008910822F073456
:0A1F06008316031305080038850058
:101F10008316031302309F00831203139F019F1740
:101F20001F1483120313C601C701C801080008006B
:101F3000831203135808DC0084008312031359082A
:0C1F4000DD0083160313811380000634BB
:041F4C0083120313E6
:101F50005908013A031DB02F83120313A014B32FA5
:081F6000831203132010073463
:081F6800A03CFF3C013E033CDC
:101F700003190034031C0034033C8207003400348E
:021F800000342B
:0E1F820083120313A01A0034A0168312031357
:0C1F90002111831203130530A500073453
:041F9C008312031396
:101FA000A01A0034A016831203130730A5000734CB
:0E1FB00083120313A2018312031320110734BE
:021FBE000130F0
:0C1FC00083120313DD000130DC00063446
:021FCC000734D8
:06200000521630313031B0
:0A20060083120313A818AB2D8312F8
:102010000313861E03288A150A1269248A110A16D8
:10202000831203130817831203130430C9008A159F
:102030000A127224873082248A110A16831203132B
:10204000C90B1728831203130430C9008A150A121A
:102050007224743082248A110A1683120313C90B66
:102060002628831203130430C9008A150A12722429
:10207000663082248A110A1683120313C90B35288D
:10208000831203130430C9008A150A1272245B30CC
:1020900082248A110A1683120313C90B442883125F
:1020A00003130430C9008A150A12722452308224A4
:1020B0008A110A1683120313C90B532883120313C0
:1020C0000430C9008A150A1272244A3082248A1107
:1020D0000A1683120313C90B6228831203130430F8
:1020E000C9008A150A127224443082248A110A1601
:1020F00083120313C90B7128831203130430C90020
:102100008A150A1272243F3082248A110A16831219
:102110000313C90B8028831203130430C9008A15E6
:102120000A1272243A3082248A110A168312031387
:10213000C90B8F28831203130430C9008A150A12B1
:102140007224363082248A110A1683120313C90BB3
:102150009E28831203130430C9008A150A127224C0
:10216000333082248A110A1683120313C90BAD2857
:10217000831203130430C9008A150A127224303006
:1021800082248A110A1683120313C90BBC288A11F0
:102190000A1248260A308A150A1282248A110A1263
:1021A0006326831603131E0883120313E0008312B1
:1021B00003131E0883120313E1006326831603131F
:1021C0001E0883120313E600831203131E088312F2
:1021D0000313E7008A150A12AA258A110A12632638
:1021E000831603131E0883120313E60083120313DE
:1021F0001E0883120313E7008A150A12AA258A1102
:102200000A126326831603131E0883120313E600C3
:10221000831203131E0883120313E7008A150A12A0
:10222000AA258A110A168312031360088312031366
:10223000B10083120313610883120313B2008312E7
:102240000313310883120313AF0083120313320800
:1022500083120313B0008312031388138312031332
:102260001F30CB00831203130830C9008A150A12ED
:102270007224303082248A110A1683120313C90B88
:102280003629831203130430C9008A150A127224F6
:10229000303082248A110A1683120313C90B452990
:1022A0008A110A1248260A308A150A1282248A11D3
:1022B0000A126326831603131E0883120313E00019
:1022C000831203131E0883120313E100632683168F
:1022D00003131E0883120313E600831203131E0860
:1022E00083120313E7008A150A12AA258A110A121B
:1022F0006326831603131E0883120313E60083125A
:1023000003131E0883120313E7008A150A12AA2575
:102310008A110A126326831603131E0883120313FD
:10232000E600831203131E0883120313E7008A15C5
:102330000A12AA258A110A1683120313600883124F
:102340000313B10083120313610883120313B20055
:1023500083120313881783120313211583120313A7
:102360000430C9008A150A127224303082248A117E
:102370000A1683120313C90BB22983120313083000
:10238000C9008A150A127224303082248A110A1672
:1023900083120313C90BC12983120313CB0BBD296D
:1023A000831203130430C9008A150A1272243030D4
:1023B00082248A110A1683120313C90BD4298312AB
:1023C00003130430C9008A150A12722433308224A0
:1023D0008A110A1683120313C90BE329831203130C
:1023E0000430C9008A150A127224363082248A11F8
:1023F0000A1683120313C90BF22983120313043044
:10240000C9008A150A1272243A3082248A110A16E7
:1024100083120313C90B012A831203130430C9006A
:102420008A150A1272243F3082248A110A168312F6
:102430000313C90B102A831203130430C9008A1531
:102440000A127224443082248A110A16831203135A
:10245000C90B1F2A831203130430C9008A150A12FC
:1024600072244A3082248A110A1683120313C90B7C
:102470002E2A831203130430C9008A150A1272240B
:10248000523082248A110A1683120313C90B3D2A83
:10249000831203130430C9008A150A1272245B30B8
:1024A00082248A110A1683120313C90B4C2A831241
:1024B00003130430C9008A150A127224663082247C
:1024C0008A110A1683120313C90B5B2A83120313A2
:1024D0000430C9008A150A127224743082248A11C9
:1024E0000A1683120313C90B6A2A831203130430DA
:1024F000C9008A150A127224873082248A110A16AA
:1025000083120313C90B792A8A150A12AB248A1184
:102510000A16831203130813831203130430C9002D
:102520008A150A127224873082248A110A168312AD
:102530000313C90B902A831203130430C9008A15B0
:102540000A127224743082248A110A168312031329
:10255000C90B9F2A831203130430C9008A150A127B
:102560007224663082248A110A1683120313C90B5F
:10257000AE2A831203130430C9008A150A1272248A
:102580005B3082248A110A1683120313C90BBD2AF9
:10259000831203130430C9008A150A1272245230C0
:1025A00082248A110A1683120313C90BCC2A8312C0
:1025B00003130430C9008A150A1272244A30822497
:1025C0008A110A1683120313C90BDB2A8312031321
:1025D0004E1DF02A83120313881383120313101461
:1025E000831203130430C9008A150A12722444307E
:1025F00082248A110A1683120313C90BF42A831248
:1026000003130430C9008A150A1272243F30822451
:102610008A110A1683120313C90B032B83120313A7
:102620000430C9008A150A1272243A3082248A11B1
:102630000A1683120313C90B122B831203130430DF
:10264000C9008A150A127224363082248A110A16A9
:1026500083120313C90B212B831203130430C90007
:102660008A150A127224333082248A110A168312C0
:102670000313C90B302B831203130430C9008A15CE
:102680000A127224303082248A110A16831203132C
:10269000C90B3F2B831203131B30CB008312031390
:1026A0000830C9008A150A127224303082248A1137
:1026B0000A1683120313C90B522B83120313CB0B7D
:1026C0004E2B831203130430C9008A150A12722498
:1026D000303082248A110A1683120313C90B652B2A
:1026E000831203130430C9008A150A12722433308E
:1026F00082248A110A1683120313C90B742B8312C6
:1027000003130430C9008A150A1272243630822459
:102710008A110A1683120313C90B832B8312031326
:102720000430C9008A150A1272243A3082248A11B0
:102730000A1683120313C90B922B8312031304305E
:10274000C9008A150A1272243F3082248A110A169F
:1027500083120313C90BA12B831203130430C90086
:102760008A150A127224443082248A110A168312AE
:102770000313C90BB02B831203138817831203139F
:102780004E1DC52B83120313101083120313043044
:10279000C9008A150A1272244A3082248A110A1644
:1027A00083120313C90BC92B831203130430C9000E
:1027B0008A150A127224523082248A110A16831250
:1027C0000313C90BD82B831203130430C9008A15D5
:1027D0000A1272245B3082248A110A1683120313B0
:1027E000C90BE72B831203130430C9008A150A12A0
:1027F0007224663082248A110A1683120313C90BCD
:10280000F62B831203130430C9008A150A127224AE
:10281000743082248A110A1683120313C90B052C03
:10282000831203130430C9008A150A1272248730F8
:1028300082248A110A1683120313C90B142C8312E3
:102840000313A11C282C831203130530A900AB2D00
:1028500083120313CE18AB2D83120313A81C352C3F
:10286000831203130330A900AB2D831203134E19F7
:102870003F2C8A150A12AB248A110A16512C831296
:102880000313061C4E2C83120313A01F4C2C83121F
:1028900003130430A900AB2DA017512C831203138E
:1028A000A013831203130817831203130430C90003
:1028B0008A150A127224503082248A110A16831251
:1028C0000313C90B582C831203130430C9008A1553
:1028D0000A1272244C3082248A110A1683120313BE
:1028E000C90B672C831203130430C9008A150A121E
:1028F0007224493082248A110A1683120313C90BE9
:10290000762C831203130430C9008A150A1272242C
:10291000453082248A110A1683120313C90B852CB1
:10292000831203134E1D9A2C8312031388138312F0
:1029300003131014831203132330CB0083120313E9
:102940000830C9008A150A127224493082248A117B
:102950000A1683120313C90BA22C83120313CB0B89
:102960009E2C831203138817831203134E1DBB2C56
:10297000831203131010831203130430C9008A1545
:102980000A127224453082248A110A168312031314
:10299000C90BBF2C831203130430C9008A150A1215
:1029A0007224493082248A110A1683120313C90B38
:1029B000CE2C831203130430C9008A150A12722424
:1029C0004C3082248A110A1683120313C90BDD2CA2
:1029D000831203130430C9008A150A12722450307E
:1029E00082248A110A1683120313C90BEC2C83125A
:1029F0000313CE18042D831203134E19042D8A15C8
:102A00000A12AB248A110A168312031308138312C5
:102A100003130430C9008A150A127224503082242C
:102A20008A110A1683120313C90B0B2D8312031389
:102A30000430C9008A150A1272244C3082248A118B
:102A40000A1683120313C90B1A2D831203130430C1
:102A5000C9008A150A127224493082248A110A1682
:102A600083120313C90B292D831203130430C900E9
:102A70008A150A127224453082248A110A1683129A
:102A80000313C90B382D831203134E1D4D2D8312D2
:102A900003138813831203131014831203132330B8
:102AA000CB00831203130830C9008A150A1272245E
:102AB000493082248A110A1683120313C90B552D3B
:102AC00083120313CB0B512D831203138817831228
:102AD00003134E1D6E2D8312031310108312031364
:102AE0000430C9008A150A127224453082248A11E2
:102AF0000A1683120313C90B722D831203130430B9
:102B0000C9008A150A127224493082248A110A16D1
:102B100083120313C90B812D831203130430C900E0
:102B20008A150A1272244C3082248A110A168312E2
:102B30000313C90B902D831203130430C9008A15A7
:102B40000A127224503082248A110A168312031347
:102B5000C90B9F2D282C8312031388178A150A127C
:102B600011258A110A1683120313A5018A150A1268
:082B70004C248A110A1608002A
:082B780083120313A818B22F09
:102B800083120313861EBC2D8A110A1248260A30AE
:102B90008A150A1282248A110A12632683160313E5
:102BA0001E0883120313E000831203131E0883120E
:102BB0000313E1006326831603131E088312031315
:102BC000E600831203131E0883120313E7008A151D
:102BD0000A12AA258A110A126326831603131E08F5
:102BE00083120313E600831203131E0883120313D8
:102BF000E7008A150A12AA258A110A12632683168B
:102C000003131E0883120313E600831203131E0826
:102C100083120313E7008A150A12AA258A110A16DD
:102C200083120313600883120313B100831203138A
:102C3000610883120313B200831203133108831255
:102C40000313AF0083120313320883120313B0007F
:102C50008312031388138A150A129F3082249F302F
:102C600082248A110A168A110A1248260A308A1505
:102C70000A1282248A110A126326831603131E087D
:102C800083120313E000831203131E08831203133D
:102C9000E1006326831603131E0883120313E60064
:102CA000831203131E0883120313E7008A150A1206
:102CB000AA258A110A126326831603131E0883129B
:102CC0000313E600831203131E0883120313E700A5
:102CD0008A150A12AA258A110A126326831603137B
:102CE0001E0883120313E600831203131E088312C7
:102CF0000313E7008A150A12AA258A110A168312FD
:102D00000313600883120313B100831203136108D5
:102D100083120313B2008312031388178312031361
:102D2000211583120313A118B22F83120313A818BD
:102D3000B22F83120313861E952E83120313281CB1
:102D4000952E8A150A12AB248A110A1683120313D0
:102D5000881383120313CE18B22F83120313061C99
:102D6000B72E83120313A01BB22FA017BA2E831203
:102D70000313A01383120313A818B22FA92E8312D2
:102D80000313A818B22F83120313861EBF2E8312BB
:102D9000031328148A150A12AB248A110A168A1101
:102DA0000A1248260A308A150A1282248A110A1247
:102DB0006326831603131E0883120313E000831295
:102DC00003131E0883120313E10063268316031303
:102DD0001E0883120313E600831203131E088312D6
:102DE0000313E7008A150A12AA258A110A1263261C
:102DF000831603131E0883120313E60083120313C2
:102E00001E0883120313E7008A150A12AA258A11E5
:102E10000A126326831603131E0883120313E600A7
:102E2000831203131E0883120313E7008A150A1284
:102E3000AA258A110A16831203136008831203134A
:102E4000B10083120313610883120313B2008312CB
:102E50000313310883120313AF00831203133208E4
:102E600083120313B0008312031388138A150A1206
:102E70009F3082249F308224D43082248A110A1603
:102E80008A110A1248260A308A150A1282248A11E7
:102E90000A126326831603131E0883120313E0002D
:102EA000831203131E0883120313E10063268316A3
:102EB00003131E0883120313E600831203131E0874
:102EC00083120313E7008A150A12AA258A110A122F
:102ED0006326831603131E0883120313E60083126E
:102EE00003131E0883120313E7008A150A12AA258A
:102EF0008A110A126326831603131E088312031312
:102F0000E600831203131E0883120313E7008A15D9
:102F10000A12AA258A110A16831203136008831263
:102F20000313B10083120313610883120313B20069
:102F300083120313CE18B22F83120313061CA62F7D
:102F400083120313A01BB22FA017A92F8312031300
:102F5000A013982F83120313881383120313A81846
:102F6000B22FAA2F8312031388178A150A1211256C
:0C2F70008A110A1683120313A501080041
:042F7C0083120313A6
:102F8000EB01EC01831603138712831603138711D9
:102F900083160313871083120313871483160313F6
:102FA00040309400831203132030940008008312F1
:102FB0000313EC01831203138C1193008316031384
:102FC0001418080083120313EC0BDE2F8312031373
:102FD0000130EB00080083120313871083120313E0
:102FE0006E080F3930388A110A16D7278312031357
:102FF0006D08D7278A110A16831203138714080055
:103000008312031380308B00831603138C00831606
:1030100003138D008A110A12DE2783120313A113F2
:103020008A150A1695238A150A1283278A110A1609
:10303000BE278A150A1683120313A101A001A0015D
:10304000A201A301A401A50183160313051283168F
:10305000031307168316031308108316031388102F
:1030600083160313081183160313881183160313A1
:10307000081283160313881283160313081383168A
:10308000031388138316031306148316031386167B
:10309000831603138614831603130615831603136E
:1030A0000616831603138611831203130B30C00018
:1030B0008312031320148316031381110115811049
:1030C000011481128B1683120313003092008312B5
:1030D00003139101831203138C10831603137D30A5
:1030E00092008312031301309200831203138B1793
:1030F0000B17831203130814831203138817831208
:1031000003130512831203130530BB000530BC0006
:103110000530BD000A30BE000B238A150A12922426
:103120008A150A1683120313B701B8018312031319
:10313000370883120313ED00831203133808831238
:103140000313EE008A110A16EB278A150A1683125A
:103150000313A01CAC280028C52219235623831270
:103160000313A01EA72883120313211BB328831265
:1031700003132508013A031DDC2883120313211CC5
:10318000C7288A110A1603208A150A16CC288A1124
:103190000A16BC258A150A1683120313A0158A1570
:1031A0000A1695238A150A16831203132017831211
:1031B0000313A501792A792A033A031D04298312EE
:1031C0000313A11483120313CE1483120313211CBF
:1031D000EF288A110A1603208A150A16F4288A1184
:1031E0000A16BC258A150A1683120313A0158A1520
:1031F0000A1695238A150A168312031320178312C1
:103200000313A501792A792A013A031D2329831280
:103210000313211C11298A110A1251208A150A163A
:1032200016298A110A16BF268A150A168A150A1641
:1032300095238A150A16831203132017831203138A
:10324000A501792A792A073A031D38298A110A1615
:10325000BF268A150A168A150A1695238A150A1694
:1032600083120313201783120313A501792A792AE5
:10327000023A031D48298A110A16AA278A150A1636
:1032800083120313201783120313A501792A792AC5
:10329000033A031D5B2A8A110A1248260A308A154E
:1032A0000A1282248A110A126326831603131E0847
:1032B00083120313E000831203131E088312031307
:1032C000E1006326831603131E0883120313E6002E
:1032D000831203131E0883120313E7008A150A12D0
:1032E000AA258A110A126326831603131E08831265
:1032F0000313E600831203131E0883120313E7006F
:103300008A150A12AA258A110A1263268316031344
:103310001E0883120313E600831203131E08831290
:103320000313E7008A150A12AA258A150A168312C2
:103330000313600883120313B1008312031361089F
:1033400083120313B2008A110A1251260A308A1519
:103350000A1282248A110A126326831603131E0896
:1033600083120313E000831203131E088312031356
:10337000E1006326831603131E0883120313E6007D
:10338000831203131E0883120313E7008A150A121F
:10339000AA258A110A126326831603131E088312B4
:1033A0000313E600831203131E0883120313E700BE
:1033B0008A150A12AA258A110A1263268316031394
:1033C0001E0883120313E600831203131E088312E0
:1033D0000313E7008A150A12AA258A150A16831212
:1033E0000313600883120313B300831203136108ED
:1033F00083120313B4008A110A125A260A308A155E
:103400000A1282248A110A126326831603131E08E5
:1034100083120313E000831203131E0883120313A5
:10342000E1006326831603131E0883120313E600CC
:10343000831203131E0883120313E7008A150A126E
:10344000AA258A110A126326831603131E08831203
:103450000313E600831203131E0883120313E7000D
:103460008A150A12AA258A110A12632683160313E3
:103470001E0883120313E600831203131E0883122F
:103480000313E7008A150A12AA258A150A16831261
:103490000313600883120313B5008312031361083A
:1034A00083120313B600831203132115831203132F
:1034B000A501792A792A023A031D742A831203137B
:1034C000370883120313ED008312031338088312A5
:1034D0000313EE008A110A16EB278A150A168312C7
:1034E0000313A501792A792A0F3A031D792A422369
:1034F000792A83120313A012A72883120313211F12
:10350000892A83120313BF03031D892A831203131D
:10351000211383120313C00BC12A1830C000831279
:103520000313BB08031DBB0383120313BC08031D55
:10353000BC0383120313BE08031DBE0383120313CF
:10354000BD03031DC12A0530BD0083120313211ED4
:10355000AF2A831203130608083A8600BC2A831296
:103560000313A119B92A831203130608083A860027
:10357000BC2A831203138615831203130508103A1D
:1035800085000B118A110A123E28831203130608C4
:10359000063983120313A401063A031DD12AE22A35
:1035A000E22A023A031DD72A2415E22AE22A043A23
:1035B000031DDD2AA414E22AE22A023A031DE22AAC
:1035C0002414E22A24082306031DEA2A8312031383
:1035D0000530BB0083120313BB08031D0800053030
:1035E000BB00211083120313241821148312031328
:1035F000A418211483120313240883120313A300B5
:1036000083120313211C0A2B8A150A1269244C24E5
:103610008A150A16080083120313061A142B831244
:103620000313A1152116182B83120313A1112112C4
:10363000080083120313061A262B83120313A11DFD
:10364000252B831203130530BC002E2B831203138A
:10365000A1192E2B831203130530BC008312031310
:10366000BC08031D08000530BC0083120313061AB2
:103670003D2B83120313A115402B83120313A111B9
:10368000211208008A150A1200208A150A168A15C6
:103690000A1202238A150A1683120313C50B472B3D
:1036A0008A150A124C248A150A160800831203137D
:1036B000201F622B83120313861A08008312031340
:1036C0002013080083120313A01A902B83120313F4
:1036D000861E902B83120313BE08031D080083125D
:1036E0000313A0168A150A1200208A150A168312DF
:1036F00003130A30C5008A150A1202238A150A1616
:1037000083120313861E882B83120313C50B7B2B96
:103710008A150A124C248A150A1683120313A01262
:10372000831203130A30BE00080083120313A11B87
:103730000800A1178A110A1269268A150A1683162B
:103740000313323099002030980083120313203085
:0437500090000800DD
:02400E00723FFF
:06420000000000000000B8
:00000001FF
