<0x2f23,2.5>
:020000040000FA
:060000008A110A12E52B33
:080008008B13FF0003088312B3
:100010000313F1000A08F2000408F4008316031326
:10002000010883120313F300831203130C08F50075
:100030000D08F600831603130C0883120313F5054D
:10004000831603130D0883120313F6058A110A168B
:10005000F51A3A288A110A16751A00298A110A1601
:10006000761824298A110A168B1E37280B199C2A08
:100070008B133928831203137408840072088A00D2
:10008000730883160313810083120313710883001E
:06009000FF0E7F0E0900C7
:0400960000340034FE
:06009A0083160313091098
:1000A0008312031309108316031389108312031399
:1000B0008910831603130911831203130911831680
:1000C0000313071083120313071483120317C201CB
:1000D000D801FF30DA00D900831203133911B911A6
:1000E00083120317FF30C700C800C900092220305F
:1000F000D3212030E5212030F7210800831203139B
:10010000B919B028831603130A309200831203131F
:10011000391DAF28831603132608AF238312031754
:1001200047085B06031996284210DB068316031363
:100130002708C1238312031748085C060319A22865
:10014000C210DC06831603132808D3238312031777
:1001500049085D060319AE284211DD0612297728E9
:10016000831603130A309200831203135A087F394F
:1001700083120317CA00183C0318C0281830CA009D
:10018000831203174A08590603191229D906C21007
:10019000421042114A0883120313DA1BD628831235
:1001A00003178313031B8317293EDC2883120317CD
:1001B0008313031B8317103E840000088312031768
:1001C000C700AF234A0883120313DA1BEE288316F5
:1001D00003138313031B8317C83EF42883160313EA
:1001E0008313031B8317AF3E840000088312031799
:1001F000C800C1234A0883120313DA1B0629831699
:1002000003178313031B8317A93E0C2983160317B7
:100210008313031B8317903E840000088312031787
:10022000C900D323831203174708450203181E2968
:1002300045084702CC00C330D5002129CC00D3307B
:10024000D5004C080A3C031C292955080C38D50058
:100250002C2955080838D500831203174C0883123F
:10026000031742183729003C03184C2938294C2918
:100270004210831203175508520603194B298312A3
:100280000317421F46291039031D4C295508D32155
:10029000831203174217562983120317D21F5629B8
:1002A00042144230D32183120317421383120317DF
:1002B00048084402CC0003186329CC00CC09CC0ABE
:1002C000D330D6006529C330D6004C080A3C031C45
:1002D0006D2956080C38D600702956080838D60003
:1002E0004C0883120317C2187929003C03188E2981
:1002F0007A298E29C2108312031756085306031950
:100300008D2983120317C21F88291039031D8E29D6
:100310005608E52183120317C21798298312031781
:10032000D31F9829C2144230E521831203174213C8
:100330008312031749084602CC000318A529CC00F4
:10034000CC09CC0AD330D700A729C330D70057082F
:100350000C38D7004C08831203174219B329003C0C
:100360000318C829B429C829421183120317570852
:1003700054060319C72983120317581CC2291039C0
:10038000031DC8295708F7218312031758140800C2
:1003900083120317D41FD22942154230F72183124A
:1003A00003175810080083120313880083120317E1
:1003B000D2008312031309148A110A16DE228A114D
:1003C0000A12831203130910080083120313880012
:1003D00083120317D3008312031389148A110A1698
:1003E000DE228A110A128312031389100800831275
:1003F0000313880083120317D40083120313091513
:100400008A110A16DE228A110A12831203130911B5
:100410000800831603130711831603130A30920092
:100420008312031300309500203097000430013808
:10043000920017080C389700071108008312031365
:10044000B816C3008312031306140800831203179F
:100450004D08003A031D472A831603130430920007
:1004600083120317450883120317CE008312031764
:10047000440883120317CF00CF30D321DF30E521AA
:1004800083120317C830D100CD0A0800AE2B013A01
:10049000031DAA2A83120317D108031D0800831223
:1004A0000317D21F682A83120317B4304502031CB6
:1004B000682AFA304502031C602A2030D321682ABA
:1004C0008312031745084E02031C682A2030D321EB
:1004D00083120317D31F812A83120317B4304402F7
:1004E000031C812AFA304402031C792A2030E521BA
:1004F000812A8312031744084F02031C812A2030EB
:10050000E52183120317450883120317CE008312D7
:100510000317440883120317CF00831203170A300E
:10052000D10083120317D31B080083120317D21BB9
:100530000800831203174E0883160313AA008312C0
:1005400003174F0883160313AC0083120317CD0A59
:100550000800AE2B033A031DC42A83120317450873
:1005600083120317CE008312031744088312031764
:10057000CF00DF30D321CF30E52183120317C830FD
:10058000D100CD0A0800AE2B013A031D232B8312A4
:100590000317D108031D080083120317D21FE32A93
:1005A00083120317193045020318E32A0530450268
:1005B0000318DD2A2030D321E32A4E084502031C0C
:1005C000E32A2030D32183120317D31FFA2A831280
:1005D0000317193044020318FA2A0530440203189D
:1005E000F42A2030E521FA2A4F084402031CFA2A93
:1005F0002030E52183120317450883120317CE002C
:1006000083120317440883120317CF0083120317C2
:100610000A30D10083120317D31B0800831203177B
:10062000D21B0800831203174E0883160313A90078
:10063000831203174F0883160313AB0083120317AB
:10064000CD0A0800AE2B073A031D392B831603137E
:100650000A30920083120317460883120317D00052
:10066000CF30F721831203171430D100CD0A0800D0
:10067000AE2B013A031D5F2B83120317D108031D14
:10068000080083120317460850020318532B20302A
:10069000F72183120317460883160313AD00831254
:1006A0000317CD0A080083120317460883120317A5
:1006B000D000831203171430D1000800AE2B033A88
:1006C000031D712B83120317460883120317D000F2
:1006D000DF30F721831203171430D100CD0A080050
:1006E000AE2B013A031D9B2B83120317D108031D68
:1006F000080083120317D41F8F2B8312031750088F
:10070000460203188F2B2030F72183120317460867
:1007100083160313AE0083120317CD0A0800831259
:100720000317460883120317D000831203171430EF
:10073000D1000800AE2B0922831603130230A9074B
:100740000F30AA020230AB070F30AC020430AD0705
:100750000430AE02831203133B1108000800831615
:100760000313290703182A08831603132A02031800
:10077000BB2B2A08BC2B2A0283120317C700421383
:100780000800831603132B0703182C088316031382
:100790002C020318CD2B2C08CE2B2C02831203170E
:1007A000C800C2130800831603132D0703182E0870
:1007B000831603132E020318DF2B2E08E02B2E02C4
:0A07C00083120317C9005810080047
:0607CA008312031300304E
:1007D0008B00831603138C00831603138D00831282
:1007E00003138313031B8317383084000408443A2F
:1007F0000319FD2B8001840AF62B83160313831340
:10080000031B8317EA3084000408EC3A03190B2C0D
:100810008001840A042C8A110A1660228A110A16A1
:1008200003208A110A120F278A110A1287258A11BA
:100830000A166D238A110A124D208A110A168B227C
:100840008A110A12831603130030880083120313DF
:1008500088018316031386118312031386118316EE
:100860000313061483120313061083160313861250
:1008700083120313861283120313B8018316031322
:10088000EA018B170B178312031338178312031314
:10089000BA1483120313BA1C4F2C6400492C831220
:1008A0000313C201662578258A110A160A30D72259
:1008B0008A110A128125831203131E08831203135F
:1008C000C00083120313C01F6C2C83160313A401F2
:1008D000831203134212732C831603130130A400F6
:1008E0008312031342168312031338138A110A1258
:1008F00023278A110A12831203133B1C892C3B10F5
:100900008A110A1202268A110A128312031338135B
:100910008E2C8A110A12A1268A110A12831203133D
:10092000BB1CC92CBB10831203133808F039B80064
:100930003908F039B900831203133C08003A031D4B
:10094000A72C391583120313C212C62CC62C013AE8
:10095000031DB02C391583120313C212C62CC62CEA
:10096000033A031DB92C391583120313C212C62C86
:10097000C62C013A031DC62CB91583120317DB01DF
:10098000DC01DD0183120313C216C62C831203138C
:100990003813831203133B1DEE2C831203133A17F3
:1009A0008A110A1226228A110A12831203133B1992
:1009B000ED2C831203133A138B130B138A110A16AF
:1009C0006C228A110A128B170B178A110A16032040
:1009D0008A110A12831203133813762C831203131D
:1009E000BA1FF32C66258A110A127E208A110A1278
:1009F00083120313BB1D382DBB11831603136A0822
:100A0000003A031D0F2D83160313EC018A110A16F9
:100A100089238A110A1283160313EA0A382D013A30
:100A2000031D1D2D831203133F0883120313BD0002
:100A300083160313EA0A3925382D033A031D2C2D9A
:100A400083160313EC0A8A110A1689238A110A12E3
:100A500083160313EA0A382D013A031D382D831239
:100A600003133F0883120313BE0083160313EA0126
:100A7000762C831603132108831203133D02031CF3
:100A8000442D83120313C217831603132008831205
:100A900003133D0203184F2D83120313C213831651
:100AA00003132208831203133D02031C5A2D8312E1
:100AB0000313B817831603132308831203133D028D
:100AC0000318652D83120313B81308008312031350
:100AD00042088312031388008312031386168A11B7
:100AE0000A16DE228A110A128312031386120800E4
:100AF000831203139F161F129F11831603139F1354
:0E0B00000800831203131F151F19842D08000F
:020B0E0083164C
:100B1000031387108312031387148316031387129A
:100B2000831203138712831603138711831203138F
:100B3000871183160313141383120313141614144A
:100B400094160330E700E70BA32D83120313DB0198
:100B5000DC01DE01DF01E001E101DA0108008312BE
:100B600003130430E700E70BB32D080083120313CF
:100B70008710AF25831203136308831203139300B6
:100B800083160313141CC22D8312031362088312ED
:100B90000313930083160313141CCC2DAF2583126B
:100BA00003138714831203132130E700E70BD62DBC
:100BB000831203138710AF25831203136308831274
:100BC0000313930083160313141CE42D83120313E1
:100BD000130883120313E5008312031362088312C0
:100BE0000313930083160313141CF42D83120313B1
:100BF000130883120313E400AF2583120313871431
:100C0000AF2508008316031314138312031314165D
:100C100014149416831203133A1783120313BE306D
:100C2000E3000230E200B6250A308A110A16D72204
:100C30008A110A12013083120313E200B630E30076
:100C4000B625083083120313E200B830E300B6255E
:100C5000C8308A110A16D7228A110A120C30831260
:100C60000313E300B6258312031365083F39E5003B
:100C700083120313640883120313A6008312031361
:100C8000650883120313A700831203135B08831202
:100C90000313A000831203135C0883120313A10043
:100CA000403083120313A0070318A10A3830A107AC
:100CB0008A110A164B218A110A12831203139830E3
:100CC00083120313E3008312031320088312031318
:100CD000E200B625993083120313E3008312031355
:100CE000210883120313E200B625BE30E30008306A
:100CF00083120313E200B62514308A110A16D72294
:100D00008A110A12831203133A130800840A800915
:100D1000000884038009800A0319013E840A8000C8
:100D20000800031483120313801FA02E80090008FB
:100D300084038009800A0319013E840A800003109D
:100D400008008316031314138312031314161414C8
:100D500094160F3083120313E300B6258312031396
:100D6000E51EB52E6508C038B72E65083F39E50089
:100D70000B1383120313640883120313DE00831220
:100D80000313650883120313DF000B178312031389
:100D90005E0883120313A000831203135F088312FB
:100DA0000313A10083120313600883120313A60028
:100DB00083120313610883120313A7008A110A1612
:100DC0004B218A110A12831203138313031B831707
:100DD00021308400912683120313031CF12E5D142D
:100DE000F22E5D1028308A110A16AA218A110A12E1
:100DF000831203132208143C0318FF2EA00A0B13BE
:100E000083120313200883120313DA0083120313DF
:0E0E10005D1C0C2FDA130D2FDA170B170800DC
:020E1E00831639
:100E2000031305081F3885008316031302309F0043
:100E3000831203139F019F171F1483160313E701E7
:100E4000E801E9010800831603136708003A031953
:100E50002B2FE7030800831203131F1908008316C2
:100E6000031369183F2FE918642F6919892FE919AD
:100E7000AE2F691AD32FE9016916E8010800681935
:100E8000582FE818532F831603139F13831203134D
:100E90009F121F129F1183160313E8148316031366
:100EA0000230E70008006815831203131F150800BD
:100EB000831203131E0883120317C400831603133F
:100EC000E901E914E801080068197D2FE818782F76
:100ED000831603139F13831203139F121F129F1570
:100EE00083160313E814831603130230E700080087
:100EF0006815831203131F150800831203131E08BD
:100F000083120317C60083160313E9016915E8016C
:100F100008006819A22FE8189D2F831603139F134A
:100F2000831203139F121F169F1183160313E814D5
:100F3000831603130230E7000800681583120313B9
:100F40001F150800831203131E0883120317C50020
:100F500083160313E901E915E80108006819C72F92
:100F6000E818C22F831603139F13831203139F12D3
:100F70001F169F1583160313E814831603130230FC
:100F8000E70008006815831203131F150800831279
:100F900003131E0883120313BF0083160313E90112
:100FA0006916E80108006819EC2FE818E72F831686
:100FB00003139F13831203139F161F129F1183168F
:100FC0000313E814831603130230E70008006815C2
:100FD000831203131F150800831203131E088312C4
:100FE0000313C00083160313E9016914E801080024
:020FF0000800F7
:0E0FF200831203135A0883120313B50006344A
:06200000521630323035AB
:0A200600831203138313031B8317D7
:102010002B308400383A0319122800308000840ADB
:1020200004080A28831203132F30AE003330AD00AA
:10203000831603132F309900243098008312031362
:102040008030980090309800831603130C128C1681
:10205000981283120313003090051D080A389D0062
:102060008E018F01831603130612831203130612C7
:102070000800080083120313AB012E082F3A03193E
:1020800046282E08323A03197D288C289A1A972858
:102090001A081F39163A031D9728AB16831203132B
:1020A000FF309B000530F038831203139C009C0E18
:1020B00003109C0C1014831603130D1483120313C6
:1020C0001A0883120313AC01C039003A031D6A28B1
:1020D0002C148C28003A403A031D7028AC148C282C
:1020E000403AC03A031D76282C158C28C03A803A15
:1020F000031D7C28AC158C2897281A08B7002F08D8
:10210000300631063706031D97282B168316031356
:102110008C1283120313181283132E0884001A08DA
:1021200080002B1AAB28AE0A8A110A123A288312B1
:102130000313AF01B001B101B2012F30AE00831221
:1021400003130D1010108E018F01831603130D1051
:102150008A110A123A282F30AE00831203130D1091
:1021600010108E018F01831603130D1083120313B9
:102170002F08B300AC19CE282C18C2282C19D82847
:10218000AC18C8288A110A16E5228A110A16E22814
:102190008A110A1622238A110A16E22883120313CF
:1021A0003008B4008A110A1630238A110A16E22870
:1021B000831203133008B4008A110A165D238A11B2
:1021C0000A16E22883120313063A0319ED28063A89
:1021D000B500073A031DFF30B40083120313330820
:1021E00034063506B600F42883120313061683124C
:1021F00003133330AD008316031398160C1603290E
:1022000083120313AB018313831203132D0884007D
:10221000383A031D1C2983120313AC0183160313E0
:1022200098120C128C1683120313181683120313C0
:1022300006128A110A123A28831203130008990021
:10224000AD0A8A110A123A2883120313AB018316CE
:1022500003130D10831203130D10831203131010B8
:102260008E018F01831203132F30AE00AB018A1150
:102270000A123A28831603130C128C1298120800C3
:10228000831203132608A002031CA1032708A1023E
:10229000031CA2030800831203132608A002031CD8
:1022A000A1032708A102080083120313A201260834
:1022B000A0070318A10A2708A1070318A20A08000B
:1022C00083120313A101A00C0318A107A10CA00CF9
:1022D0000318A107A10CA00C0318A107A10CA00CC6
:1022E0000318A107A10CA00C0318A107A10CA00CB6
:1022F0000318A107A10CA00C0318A107A10CA00CA6
:102300000318A107A10CA00C080083120313A2015B
:10231000A8001030AA0028080310201C9029A2074A
:10232000A20CA10CA00C0310AA0B8D29080083128B
:102330000313A301A8001830AA0028080310201CCA
:10234000A229A307A30CA20CA10CA00C0310AA0B9A
:102350009F29080083120313A600A2010830AA00D7
:10236000210DA20D2608A2020318B829A207031006
:10237000A10DAA0BB029A8010830AA00200DA20DBA
:10238000A80D2608A202A9010301031C290FA80217
:102390000318D2292608A207A90103010318290F4F
:1023A000A8070310A00DAA0BBE290800831203136F
:1023B000A600A3011830AA00200DA10DA20DA30DA7
:1023C000A00D2608A30203182014201CA307AA0BA3
:1023D000DC29080083120313A301A4011830AA000A
:1023E000200DA10DA20DA30DA40DA00D2608A30282
:1023F0002708031C270FA402031820142018032AFF
:10240000A4072608A307AA0BF029080083120313C8
:102410002030AA00A501A4010310A00DA10DA20D5A
:10242000A30DA40DA50D03181D2A27082502031DC1
:102430001B2A26082402031C242A2608A402031CA3
:0E244000A5032708A5022014AA0B0C2A0800E9
:02244E008312F7
:1024500003178D00A0308D02831603178C130C1404
:10246000831203170C0808008313831603178C18B4
:10247000372A0408831203178D00A0308D028312BF
:1024800003130008831203178C00831603178C13A1
:102490000C158B1B542A55308D00AA308D008C14DE
:1024A0000C118C18512A08008B1355308D00AA305E
:1024B0008D008C140C118C185B2A8B1708000800F7
:1024C0008313A0308400040827228000840A0408B3
:1024D000AF3A031D632A08008313A030840034221E
:1024E000840A0408AF3A031D6F2A080083131330CF
:1024F0008A0004089E238A110A16800034220800EC
:102500008313A03084007622840A0408AF3A0319AA
:062510000800832A080008
:0A25160083160313811101118110D7
:10252000011481128B16831603130A30E1000A305E
:10253000E2000A30E300080083160313E10BD32AFC
:102540000A30E10083160313651CA92AE40BA92AAB
:10255000651083120317D10383160313E20BD32AEA
:102560000A30E20083120313BA10831203133A1FD6
:10257000BE2A831203130608083A86008312031347
:10258000BA1783120313BB1583160313E30BD32A65
:102590000A30E300831203133A1BD32A8312031376
:1025A0000608083A86000B118A110A123A28831687
:1025B0000313E40065146518DB2A0800831603136F
:0A25C0002830E600E60BE22A0800CE
:0625CA0083120313300828
:1025D0001F39013A031DEF2A8A110A16B72B013A57
:1025E000023A031DF62A8A110A16F92B023A033A17
:1025F000031DFD2A8A110A16F22B033A043A031D21
:10260000042B8A110A16E92B043A053A031D0B2BF9
:102610008A110A12F92F053A063A031D122B8A1164
:102620000A16D22B063A073A031D192B8A110A16ED
:10263000DF2B073A083A031D202B8A110A16C52BF7
:10264000083A0434831383120313B108031D83175C
:10265000300884000008B500840A0008B40006347D
:102660008312031330088400B4008312031331086B
:10267000031D402B8313000883120313B500063497
:10268000013A031D492B8317000883120313B50079
:102690000634033A031D562B04088A110A16272212
:1026A0008A110A1683120313B500063404088A112E
:1026B0000A169E238A110A16063483120313300861
:1026C000B400840083138312031341188317831209
:0A26D00003133108B5008000063442
:0626DA00831603138610B5
:1026E00083120313861483160313871283120313B2
:1026F00087128316031387118312031387110800AF
:10270000831203138C11930083160313141808000B
:10271000842B83160313403094008312031320305C
:102720009400831203138610413080238316031311
:0C2730006C088023831203138614080039
:04273C00A03CFF3C82
:10274000013E0F3C03190034031C00340F3C820788
:10275000A034A334AC34A73400340034A034A03403
:0E27600023340034FF340034FF340034FF34DF
:02276E008312D4
:1027700003133108013A031DC12B83120313BA1549
:0A278000C42B831203133812073430
:06278A0083120313B108E5
:10279000031DCE2B831203134110D12B831203137D
:0427A00041140734A5
:0C27A40083120313381B00343817BB14D9
:0E27B00083120313310883120313BC00073495
:0227BE00831284
:1027C0000313381B003438173B1583120317CD0150
:0227D0000734CC
:0E27D20083120313381B0034831203133B14CD
:0427E000381707346B
:0C27E40083120313C30183120313B81205
:0227F0000734AC
:0E27F200023083120313B5000530B400063424
:02400E00721F1F
:10420000A000A300AC00A70000000000A000A000D8
:0E42100023000000FF000000FF000000FF0080
:00000001FF
